{
  "contractName": "Adoption",
  "abi": [
    {
      "inputs": [],
      "stateMutability": "nonpayable",
      "type": "constructor"
    },
    {
      "inputs": [
        {
          "internalType": "uint256",
          "name": "",
          "type": "uint256"
        }
      ],
      "name": "adopters",
      "outputs": [
        {
          "internalType": "address",
          "name": "",
          "type": "address"
        }
      ],
      "stateMutability": "view",
      "type": "function",
      "constant": true
    },
    {
      "inputs": [
        {
          "internalType": "uint256",
          "name": "",
          "type": "uint256"
        }
      ],
      "name": "arrayForItems",
      "outputs": [
        {
          "internalType": "uint256",
          "name": "",
          "type": "uint256"
        }
      ],
      "stateMutability": "view",
      "type": "function",
      "constant": true
    },
    {
      "inputs": [],
      "name": "keyboardCount",
      "outputs": [
        {
          "internalType": "uint256",
          "name": "",
          "type": "uint256"
        }
      ],
      "stateMutability": "view",
      "type": "function",
      "constant": true
    },
    {
      "inputs": [],
      "name": "keyboardId",
      "outputs": [
        {
          "internalType": "uint256",
          "name": "",
          "type": "uint256"
        }
      ],
      "stateMutability": "view",
      "type": "function",
      "constant": true
    },
    {
      "inputs": [
        {
          "internalType": "uint256",
          "name": "",
          "type": "uint256"
        }
      ],
      "name": "keyboards",
      "outputs": [
        {
          "internalType": "string",
          "name": "name",
          "type": "string"
        },
        {
          "internalType": "string",
          "name": "picture",
          "type": "string"
        },
        {
          "internalType": "string",
          "name": "keycaps",
          "type": "string"
        },
        {
          "internalType": "string",
          "name": "ffactor",
          "type": "string"
        },
        {
          "internalType": "string",
          "name": "switches",
          "type": "string"
        }
      ],
      "stateMutability": "view",
      "type": "function",
      "constant": true
    },
    {
      "inputs": [
        {
          "internalType": "uint256",
          "name": "",
          "type": "uint256"
        }
      ],
      "name": "owners",
      "outputs": [
        {
          "internalType": "address",
          "name": "",
          "type": "address"
        }
      ],
      "stateMutability": "view",
      "type": "function",
      "constant": true
    },
    {
      "inputs": [
        {
          "internalType": "uint256",
          "name": "petId",
          "type": "uint256"
        }
      ],
      "name": "adopt",
      "outputs": [
        {
          "internalType": "uint256",
          "name": "",
          "type": "uint256"
        }
      ],
      "stateMutability": "nonpayable",
      "type": "function"
    },
    {
      "inputs": [],
      "name": "getAdopters",
      "outputs": [
        {
          "internalType": "address[16]",
          "name": "",
          "type": "address[16]"
        }
      ],
      "stateMutability": "view",
      "type": "function",
      "constant": true
    }
  ],
  "bytecode": "0x60806040526000805560006001553480156200001a57600080fd5b50620001396040518060400160405280600481526020017f49443830000000000000000000000000000000000000000000000000000000008152506040518060400160405280600f81526020017f696d616765732f494438302e706e6700000000000000000000000000000000008152506040518060400160405280600581526020017f4c617365720000000000000000000000000000000000000000000000000000008152506040518060400160405280600381526020017f37352500000000000000000000000000000000000000000000000000000000008152506040518060400160405280600881526020017f424f4241205534540000000000000000000000000000000000000000000000008152506200049960201b60201c565b620002576040518060400160405280600b81526020017f54686520436c61737369630000000000000000000000000000000000000000008152506040518060400160405280601281526020017f696d616765732f436c61737369632e706e6700000000000000000000000000008152506040518060400160405280600981526020017f426f74616e6963616c00000000000000000000000000000000000000000000008152506040518060400160405280600381526020017f36352500000000000000000000000000000000000000000000000000000000008152506040518060400160405280600f81526020017f436865727279204d582042726f776e00000000000000000000000000000000008152506200049960201b60201c565b620003756040518060400160405280600981526020017f43616e64792042617200000000000000000000000000000000000000000000008152506040518060400160405280601381526020017f696d616765732f43616e64794261722e706e67000000000000000000000000008152506040518060400160405280600981526020017f56696c65426c6f6f6d00000000000000000000000000000000000000000000008152506040518060400160405280600381526020017f35302500000000000000000000000000000000000000000000000000000000008152506040518060400160405280600881526020017f424f42412047756d0000000000000000000000000000000000000000000000008152506200049960201b60201c565b620004936040518060400160405280600481526020017f48616c6f000000000000000000000000000000000000000000000000000000008152506040518060400160405280601381526020017f696d616765732f43616e64794261722e706e67000000000000000000000000008152506040518060400160405280600481526020017f48616c6f000000000000000000000000000000000000000000000000000000008152506040518060400160405280600381526020017f39362500000000000000000000000000000000000000000000000000000000008152506040518060400160405280600e81526020017f47617465726f6e2059656c6c6f770000000000000000000000000000000000008152506200049960201b60201c565b6200079e565b6040518060a00160405280868152602001858152602001848152602001838152602001828152506013600060015481526020019081526020016000206000820151816000019080519060200190620004f392919062000602565b5060208201518160010190805190602001906200051292919062000602565b5060408201518160020190805190602001906200053192919062000602565b5060608201518160030190805190602001906200055092919062000602565b5060808201518160040190805190602001906200056f92919062000602565b50905050600060146000600154815260200190815260200160002060006101000a81548173ffffffffffffffffffffffffffffffffffffffff021916908373ffffffffffffffffffffffffffffffffffffffff16021790555060016000815480929190620005dd90620006eb565b9190505550600080815480929190620005f690620006eb565b91905055505050505050565b828054620006109062000768565b90600052602060002090601f01602090048101928262000634576000855562000680565b82601f106200064f57805160ff191683800117855562000680565b8280016001018555821562000680579182015b828111156200067f57825182559160200191906001019062000662565b5b5090506200068f919062000693565b5090565b5b80821115620006ae57600081600090555060010162000694565b5090565b7f4e487b7100000000000000000000000000000000000000000000000000000000600052601160045260246000fd5b6000819050919050565b6000620006f882620006e1565b91507fffffffffffffffffffffffffffffffffffffffffffffffffffffffffffffffff8214156200072e576200072d620006b2565b5b600182019050919050565b7f4e487b7100000000000000000000000000000000000000000000000000000000600052602260045260246000fd5b600060028204905060018216806200078157607f821691505b6020821081141562000798576200079762000739565b5b50919050565b6109f980620007ae6000396000f3fe608060405234801561001057600080fd5b50600436106100885760003560e01c806362d6ea451161005b57806362d6ea451461013f5780638588b2c51461015d578063d945db0b1461018d578063fd313ef5146101bd57610088565b8063025e7c271461008d5780633de4eb17146100bd57806343ae80d3146100db578063562277771461010b575b600080fd5b6100a760048036038101906100a291906106aa565b6101db565b6040516100b49190610718565b60405180910390f35b6100c561020e565b6040516100d291906107de565b60405180910390f35b6100f560048036038101906100f091906106aa565b61028f565b6040516101029190610718565b60405180910390f35b610125600480360381019061012091906106aa565b6102c5565b604051610136959493929190610893565b60405180910390f35b6101476105a3565b6040516101549190610918565b60405180910390f35b610177600480360381019061017291906106aa565b6105a9565b6040516101849190610918565b60405180910390f35b6101a760048036038101906101a291906106aa565b610622565b6040516101b49190610918565b60405180910390f35b6101c5610646565b6040516101d29190610918565b60405180910390f35b60146020528060005260406000206000915054906101000a900473ffffffffffffffffffffffffffffffffffffffff1681565b61021661064c565b6003601080602002604051908101604052809291908260108015610285576020028201915b8160009054906101000a900473ffffffffffffffffffffffffffffffffffffffff1673ffffffffffffffffffffffffffffffffffffffff168152602001906001019080831161023b575b5050505050905090565b6003816010811061029f57600080fd5b016000915054906101000a900473ffffffffffffffffffffffffffffffffffffffff1681565b60136020528060005260406000206000915090508060000180546102e890610962565b80601f016020809104026020016040519081016040528092919081815260200182805461031490610962565b80156103615780601f1061033657610100808354040283529160200191610361565b820191906000526020600020905b81548152906001019060200180831161034457829003601f168201915b50505050509080600101805461037690610962565b80601f01602080910402602001604051908101604052809291908181526020018280546103a290610962565b80156103ef5780601f106103c4576101008083540402835291602001916103ef565b820191906000526020600020905b8154815290600101906020018083116103d257829003601f168201915b50505050509080600201805461040490610962565b80601f016020809104026020016040519081016040528092919081815260200182805461043090610962565b801561047d5780601f106104525761010080835404028352916020019161047d565b820191906000526020600020905b81548152906001019060200180831161046057829003601f168201915b50505050509080600301805461049290610962565b80601f01602080910402602001604051908101604052809291908181526020018280546104be90610962565b801561050b5780601f106104e05761010080835404028352916020019161050b565b820191906000526020600020905b8154815290600101906020018083116104ee57829003601f168201915b50505050509080600401805461052090610962565b80601f016020809104026020016040519081016040528092919081815260200182805461054c90610962565b80156105995780601f1061056e57610100808354040283529160200191610599565b820191906000526020600020905b81548152906001019060200180831161057c57829003601f168201915b5050505050905085565b60015481565b60008082101580156105bd57506000548211155b6105c657600080fd5b33600383601081106105db576105da610994565b5b0160006101000a81548173ffffffffffffffffffffffffffffffffffffffff021916908373ffffffffffffffffffffffffffffffffffffffff160217905550819050919050565b6002818154811061063257600080fd5b906000526020600020016000915090505481565b60005481565b604051806102000160405280601090602082028036833780820191505090505090565b600080fd5b6000819050919050565b61068781610674565b811461069257600080fd5b50565b6000813590506106a48161067e565b92915050565b6000602082840312156106c0576106bf61066f565b5b60006106ce84828501610695565b91505092915050565b600073ffffffffffffffffffffffffffffffffffffffff82169050919050565b6000610702826106d7565b9050919050565b610712816106f7565b82525050565b600060208201905061072d6000830184610709565b92915050565b600060109050919050565b600081905092915050565b6000819050919050565b61075c816106f7565b82525050565b600061076e8383610753565b60208301905092915050565b6000602082019050919050565b61079081610733565b61079a818461073e565b92506107a582610749565b8060005b838110156107d65781516107bd8782610762565b96506107c88361077a565b9250506001810190506107a9565b505050505050565b6000610200820190506107f46000830184610787565b92915050565b600081519050919050565b600082825260208201905092915050565b60005b83811015610834578082015181840152602081019050610819565b83811115610843576000848401525b50505050565b6000601f19601f8301169050919050565b6000610865826107fa565b61086f8185610805565b935061087f818560208601610816565b61088881610849565b840191505092915050565b600060a08201905081810360008301526108ad818861085a565b905081810360208301526108c1818761085a565b905081810360408301526108d5818661085a565b905081810360608301526108e9818561085a565b905081810360808301526108fd818461085a565b90509695505050505050565b61091281610674565b82525050565b600060208201905061092d6000830184610909565b92915050565b7f4e487b7100000000000000000000000000000000000000000000000000000000600052602260045260246000fd5b6000600282049050600182168061097a57607f821691505b6020821081141561098e5761098d610933565b5b50919050565b7f4e487b7100000000000000000000000000000000000000000000000000000000600052603260045260246000fdfea2646970667358221220c3abd2ec1685f40687c9490d61a9e3b6a8084abc6fcb39939d2d0c5db13eef2c64736f6c634300080a0033",
  "immutableReferences": {},
  "source": "// SPDX-License-Identifier: MIF\r\npragma solidity 0.8.10;\r\n\r\ncontract Adoption {\r\n\r\n  struct Item{\r\n    string name;\r\n    string picture;\r\n    string keycaps;\r\n    string ffactor;\r\n    string switches;\r\n  }\r\nuint public keyboardCount = 0;\r\nuint public keyboardId = 0;\r\nuint[] public arrayForItems;\r\naddress[16] public adopters;\r\n\r\nmapping(uint => Item) public keyboards;\r\nmapping(uint => address) public owners;\r\n\r\nconstructor(){\r\n  add(\"ID80\",\"images/ID80.png\",\"Laser\",\"75%\",\"BOBA U4T\");\r\n  add(\"The Classic\",\"images/Classic.png\",\"Botanical\",\"65%\",\"Cherry MX Brown\");\r\n  add(\"Candy Bar\",\"images/CandyBar.png\",\"VileBloom\",\"50%\",\"BOBA Gum\");\r\n  add(\"Halo\",\"images/CandyBar.png\",\"Halo\",\"96%\",\"Gateron Yellow\");\r\n}\r\n\r\nfunction add(string memory name, string memory picture, string memory keycaps, string memory ffactor, string memory switches) private{\r\n  keyboards[keyboardId] = Item(name, picture, keycaps, ffactor, switches);\r\n  owners[keyboardId] = address(0);\r\n  keyboardId++;\r\n  keyboardCount++;\r\n}\r\n\r\n// Adopting a pet\r\nfunction adopt(uint petId) public returns (uint) {\r\n  require(petId >= 0 && petId <= keyboardCount);\r\n\r\n  adopters[petId] = msg.sender;\r\n\r\n  return petId;\r\n}\r\n\r\n// Retrieving the adopters\r\nfunction getAdopters() public view returns (address[16] memory) {\r\n  return adopters;\r\n}\r\n\r\n}",
  "sourcePath": "C:\\Users\\matol\\OneDrive\\Documents\\GitHub\\KeyboardShop\\contracts\\Adoption.sol",
  "compiler": {
    "name": "solc",
    "version": "0.8.10+commit.fc410830.Emscripten.clang"
  },
  "schemaVersion": "3.4.3",
  "updatedAt": "2021-12-15T20:01:24.525Z",
  "networkType": "ethereum",
  "devdoc": {
    "kind": "dev",
    "methods": {},
    "version": 1
  },
  "userdoc": {
    "kind": "user",
    "methods": {},
    "version": 1
  }
}