{
  "contractName": "Adoption",
  "abi": [
    {
      "inputs": [],
      "stateMutability": "nonpayable",
      "type": "constructor"
    },
    {
      "inputs": [],
      "name": "keyboardCount",
      "outputs": [
        {
          "internalType": "uint256",
          "name": "",
          "type": "uint256"
        }
      ],
      "stateMutability": "view",
      "type": "function",
      "constant": true
    },
    {
      "inputs": [],
      "name": "keyboardId",
      "outputs": [
        {
          "internalType": "uint256",
          "name": "",
          "type": "uint256"
        }
      ],
      "stateMutability": "view",
      "type": "function",
      "constant": true
    },
    {
      "inputs": [
        {
          "internalType": "uint256",
          "name": "",
          "type": "uint256"
        }
      ],
      "name": "keyboards",
      "outputs": [
        {
          "internalType": "uint256",
          "name": "id",
          "type": "uint256"
        },
        {
          "internalType": "string",
          "name": "name",
          "type": "string"
        },
        {
          "internalType": "string",
          "name": "picture",
          "type": "string"
        },
        {
          "internalType": "string",
          "name": "keycaps",
          "type": "string"
        },
        {
          "internalType": "string",
          "name": "ffactor",
          "type": "string"
        },
        {
          "internalType": "string",
          "name": "switches",
          "type": "string"
        },
        {
          "internalType": "address",
          "name": "owner",
          "type": "address"
        }
      ],
      "stateMutability": "view",
      "type": "function",
      "constant": true
    },
    {
      "inputs": [
        {
          "internalType": "string",
          "name": "name",
          "type": "string"
        },
        {
          "internalType": "string",
          "name": "picture",
          "type": "string"
        },
        {
          "internalType": "string",
          "name": "keycaps",
          "type": "string"
        },
        {
          "internalType": "string",
          "name": "ffactor",
          "type": "string"
        },
        {
          "internalType": "string",
          "name": "switches",
          "type": "string"
        }
      ],
      "name": "add",
      "outputs": [],
      "stateMutability": "nonpayable",
      "type": "function"
    },
    {
      "inputs": [
        {
          "internalType": "uint256",
          "name": "itemId",
          "type": "uint256"
        },
        {
          "internalType": "address",
          "name": "wallet",
          "type": "address"
        }
      ],
      "name": "checkBuyer",
      "outputs": [
        {
          "internalType": "bool",
          "name": "",
          "type": "bool"
        }
      ],
      "stateMutability": "view",
      "type": "function",
      "constant": true
    },
    {
      "inputs": [
        {
          "internalType": "uint256",
          "name": "kbId",
          "type": "uint256"
        }
      ],
      "name": "buy",
      "outputs": [
        {
          "internalType": "uint256",
          "name": "",
          "type": "uint256"
        }
      ],
      "stateMutability": "nonpayable",
      "type": "function"
    },
    {
      "inputs": [],
      "name": "getOwners",
      "outputs": [
        {
          "internalType": "address[]",
          "name": "",
          "type": "address[]"
        }
      ],
      "stateMutability": "view",
      "type": "function",
      "constant": true
    }
  ],
  "bytecode": "0x60806040526000805560006002553480156200001a57600080fd5b50620001396040518060400160405280600481526020017f49443830000000000000000000000000000000000000000000000000000000008152506040518060400160405280600f81526020017f696d616765732f494438302e706e6700000000000000000000000000000000008152506040518060400160405280600581526020017f4c617365720000000000000000000000000000000000000000000000000000008152506040518060400160405280600381526020017f37352500000000000000000000000000000000000000000000000000000000008152506040518060400160405280600881526020017f424f4241205534540000000000000000000000000000000000000000000000008152506200049960201b60201c565b620002576040518060400160405280600981526020017f43616e64792042617200000000000000000000000000000000000000000000008152506040518060400160405280601281526020017f696d616765732f436c61737369632e706e6700000000000000000000000000008152506040518060400160405280600981526020017f426f74616e6963616c00000000000000000000000000000000000000000000008152506040518060400160405280600381526020017f36352500000000000000000000000000000000000000000000000000000000008152506040518060400160405280600f81526020017f436865727279204d582042726f776e00000000000000000000000000000000008152506200049960201b60201c565b620003756040518060400160405280600481526020017f49443830000000000000000000000000000000000000000000000000000000008152506040518060400160405280601381526020017f696d616765732f43616e64794261722e706e67000000000000000000000000008152506040518060400160405280600981526020017f56696c65426c6f6f6d00000000000000000000000000000000000000000000008152506040518060400160405280600381526020017f35302500000000000000000000000000000000000000000000000000000000008152506040518060400160405280600881526020017f424f42412047756d0000000000000000000000000000000000000000000000008152506200049960201b60201c565b620004936040518060400160405280600481526020017f48616c6f000000000000000000000000000000000000000000000000000000008152506040518060400160405280601381526020017f696d616765732f43616e64794261722e706e67000000000000000000000000008152506040518060400160405280600481526020017f48616c6f000000000000000000000000000000000000000000000000000000008152506040518060400160405280600381526020017f39362500000000000000000000000000000000000000000000000000000000008152506040518060400160405280600e81526020017f47617465726f6e2059656c6c6f770000000000000000000000000000000000008152506200049960201b60201c565b620007d4565b60016040518060e001604052806002548152602001878152602001868152602001858152602001848152602001838152602001600073ffffffffffffffffffffffffffffffffffffffff1681525090806001815401808255809150506001900390600052602060002090600702016000909190919091506000820151816000015560208201518160010190805190602001906200053892919062000638565b5060408201518160020190805190602001906200055792919062000638565b5060608201518160030190805190602001906200057692919062000638565b5060808201518160040190805190602001906200059592919062000638565b5060a0820151816005019080519060200190620005b492919062000638565b5060c08201518160060160006101000a81548173ffffffffffffffffffffffffffffffffffffffff021916908373ffffffffffffffffffffffffffffffffffffffff1602179055505050600080815480929190620006129062000721565b9190505550600260008154809291906200062c9062000721565b91905055505050505050565b82805462000646906200079e565b90600052602060002090601f0160209004810192826200066a5760008555620006b6565b82601f106200068557805160ff1916838001178555620006b6565b82800160010185558215620006b6579182015b82811115620006b557825182559160200191906001019062000698565b5b509050620006c59190620006c9565b5090565b5b80821115620006e4576000816000905550600101620006ca565b5090565b7f4e487b7100000000000000000000000000000000000000000000000000000000600052601160045260246000fd5b6000819050919050565b60006200072e8262000717565b91507fffffffffffffffffffffffffffffffffffffffffffffffffffffffffffffffff821415620007645762000763620006e8565b5b600182019050919050565b7f4e487b7100000000000000000000000000000000000000000000000000000000600052602260045260246000fd5b60006002820490506001821680620007b757607f821691505b60208210811415620007ce57620007cd6200076f565b5b50919050565b61115280620007e46000396000f3fe608060405234801561001057600080fd5b506004361061007d5760003560e01c8063d96a094a1161005b578063d96a094a146100f4578063df8022be14610124578063fd313ef514610140578063fec4d15d1461015e5761007d565b8063562277771461008257806362d6ea45146100b8578063a0e67e2b146100d6575b600080fd5b61009c600480360381019061009791906109bb565b61018e565b6040516100af9796959493929190610ad1565b60405180910390f35b6100c06104a8565b6040516100cd9190610b63565b60405180910390f35b6100de6104ae565b6040516100eb9190610c3c565b60405180910390f35b61010e600480360381019061010991906109bb565b61056c565b60405161011b9190610b63565b60405180910390f35b61013e60048036038101906101399190610d93565b6106a8565b005b610148610839565b6040516101559190610b63565b60405180910390f35b61017860048036038101906101739190610ec6565b61083f565b6040516101859190610f21565b60405180910390f35b6001818154811061019e57600080fd5b90600052602060002090600702016000915090508060000154908060010180546101c790610f6b565b80601f01602080910402602001604051908101604052809291908181526020018280546101f390610f6b565b80156102405780601f1061021557610100808354040283529160200191610240565b820191906000526020600020905b81548152906001019060200180831161022357829003601f168201915b50505050509080600201805461025590610f6b565b80601f016020809104026020016040519081016040528092919081815260200182805461028190610f6b565b80156102ce5780601f106102a3576101008083540402835291602001916102ce565b820191906000526020600020905b8154815290600101906020018083116102b157829003601f168201915b5050505050908060030180546102e390610f6b565b80601f016020809104026020016040519081016040528092919081815260200182805461030f90610f6b565b801561035c5780601f106103315761010080835404028352916020019161035c565b820191906000526020600020905b81548152906001019060200180831161033f57829003601f168201915b50505050509080600401805461037190610f6b565b80601f016020809104026020016040519081016040528092919081815260200182805461039d90610f6b565b80156103ea5780601f106103bf576101008083540402835291602001916103ea565b820191906000526020600020905b8154815290600101906020018083116103cd57829003601f168201915b5050505050908060050180546103ff90610f6b565b80601f016020809104026020016040519081016040528092919081815260200182805461042b90610f6b565b80156104785780601f1061044d57610100808354040283529160200191610478565b820191906000526020600020905b81548152906001019060200180831161045b57829003601f168201915b5050505050908060060160009054906101000a900473ffffffffffffffffffffffffffffffffffffffff16905087565b60025481565b60608060005b60005481101561056457600181815481106104d2576104d1610f9d565b5b906000526020600020906007020160060160009054906101000a900473ffffffffffffffffffffffffffffffffffffffff1682828151811061051757610516610f9d565b5b602002602001019073ffffffffffffffffffffffffffffffffffffffff16908173ffffffffffffffffffffffffffffffffffffffff1681525050808061055c90610ffb565b9150506104b4565b508091505090565b6000610578823361083f565b6105b7576040517f08c379a00000000000000000000000000000000000000000000000000000000081526004016105ae90611090565b60405180910390fd5b600082101580156105c9575060005482105b610608576040517f08c379a00000000000000000000000000000000000000000000000000000000081526004016105ff906110fc565b60405180910390fd5b60005b60005481101561069f57826001828154811061062a57610629610f9d565b5b906000526020600020906007020160000154141561068c573373ffffffffffffffffffffffffffffffffffffffff166001828154811061066d5761066c610f9d565b5b906000526020600020906007020160060160009054906101000a905050505b808061069790610ffb565b91505061060b565b50819050919050565b60016040518060e001604052806002548152602001878152602001868152602001858152602001848152602001838152602001600073ffffffffffffffffffffffffffffffffffffffff1681525090806001815401808255809150506001900390600052602060002090600702016000909190919091506000820151816000015560208201518160010190805190602001906107459291906108ce565b5060408201518160020190805190602001906107629291906108ce565b50606082015181600301908051906020019061077f9291906108ce565b50608082015181600401908051906020019061079c9291906108ce565b5060a08201518160050190805190602001906107b99291906108ce565b5060c08201518160060160006101000a81548173ffffffffffffffffffffffffffffffffffffffff021916908373ffffffffffffffffffffffffffffffffffffffff160217905550505060008081548092919061081590610ffb565b91905055506002600081548092919061082d90610ffb565b91905055505050505050565b60005481565b60006001838154811061085557610854610f9d565b5b906000526020600020906007020160060160009054906101000a900473ffffffffffffffffffffffffffffffffffffffff1673ffffffffffffffffffffffffffffffffffffffff168273ffffffffffffffffffffffffffffffffffffffff1614156108c357600090506108c8565b600190505b92915050565b8280546108da90610f6b565b90600052602060002090601f0160209004810192826108fc5760008555610943565b82601f1061091557805160ff1916838001178555610943565b82800160010185558215610943579182015b82811115610942578251825591602001919060010190610927565b5b5090506109509190610954565b5090565b5b8082111561096d576000816000905550600101610955565b5090565b6000604051905090565b600080fd5b600080fd5b6000819050919050565b61099881610985565b81146109a357600080fd5b50565b6000813590506109b58161098f565b92915050565b6000602082840312156109d1576109d061097b565b5b60006109df848285016109a6565b91505092915050565b6109f181610985565b82525050565b600081519050919050565b600082825260208201905092915050565b60005b83811015610a31578082015181840152602081019050610a16565b83811115610a40576000848401525b50505050565b6000601f19601f8301169050919050565b6000610a62826109f7565b610a6c8185610a02565b9350610a7c818560208601610a13565b610a8581610a46565b840191505092915050565b600073ffffffffffffffffffffffffffffffffffffffff82169050919050565b6000610abb82610a90565b9050919050565b610acb81610ab0565b82525050565b600060e082019050610ae6600083018a6109e8565b8181036020830152610af88189610a57565b90508181036040830152610b0c8188610a57565b90508181036060830152610b208187610a57565b90508181036080830152610b348186610a57565b905081810360a0830152610b488185610a57565b9050610b5760c0830184610ac2565b98975050505050505050565b6000602082019050610b7860008301846109e8565b92915050565b600081519050919050565b600082825260208201905092915050565b6000819050602082019050919050565b610bb381610ab0565b82525050565b6000610bc58383610baa565b60208301905092915050565b6000602082019050919050565b6000610be982610b7e565b610bf38185610b89565b9350610bfe83610b9a565b8060005b83811015610c2f578151610c168882610bb9565b9750610c2183610bd1565b925050600181019050610c02565b5085935050505092915050565b60006020820190508181036000830152610c568184610bde565b905092915050565b600080fd5b600080fd5b7f4e487b7100000000000000000000000000000000000000000000000000000000600052604160045260246000fd5b610ca082610a46565b810181811067ffffffffffffffff82111715610cbf57610cbe610c68565b5b80604052505050565b6000610cd2610971565b9050610cde8282610c97565b919050565b600067ffffffffffffffff821115610cfe57610cfd610c68565b5b610d0782610a46565b9050602081019050919050565b82818337600083830152505050565b6000610d36610d3184610ce3565b610cc8565b905082815260208101848484011115610d5257610d51610c63565b5b610d5d848285610d14565b509392505050565b600082601f830112610d7a57610d79610c5e565b5b8135610d8a848260208601610d23565b91505092915050565b600080600080600060a08688031215610daf57610dae61097b565b5b600086013567ffffffffffffffff811115610dcd57610dcc610980565b5b610dd988828901610d65565b955050602086013567ffffffffffffffff811115610dfa57610df9610980565b5b610e0688828901610d65565b945050604086013567ffffffffffffffff811115610e2757610e26610980565b5b610e3388828901610d65565b935050606086013567ffffffffffffffff811115610e5457610e53610980565b5b610e6088828901610d65565b925050608086013567ffffffffffffffff811115610e8157610e80610980565b5b610e8d88828901610d65565b9150509295509295909350565b610ea381610ab0565b8114610eae57600080fd5b50565b600081359050610ec081610e9a565b92915050565b60008060408385031215610edd57610edc61097b565b5b6000610eeb858286016109a6565b9250506020610efc85828601610eb1565b9150509250929050565b60008115159050919050565b610f1b81610f06565b82525050565b6000602082019050610f366000830184610f12565b92915050565b7f4e487b7100000000000000000000000000000000000000000000000000000000600052602260045260246000fd5b60006002820490506001821680610f8357607f821691505b60208210811415610f9757610f96610f3c565b5b50919050565b7f4e487b7100000000000000000000000000000000000000000000000000000000600052603260045260246000fd5b7f4e487b7100000000000000000000000000000000000000000000000000000000600052601160045260246000fd5b600061100682610985565b91507fffffffffffffffffffffffffffffffffffffffffffffffffffffffffffffffff82141561103957611038610fcc565b5b600182019050919050565b7f6974656d20616c7265616479206f776e65640000000000000000000000000000600082015250565b600061107a601283610a02565b915061108582611044565b602082019050919050565b600060208201905081810360008301526110a98161106d565b9050919050565b7f496e76616c696420494400000000000000000000000000000000000000000000600082015250565b60006110e6600a83610a02565b91506110f1826110b0565b602082019050919050565b60006020820190508181036000830152611115816110d9565b905091905056fea2646970667358221220114d2e89b59b864a2e95919d82884b3083ec142ef4de6439fdb6fa92559a0d5b64736f6c634300080a0033",
  "immutableReferences": {},
  "source": "// SPDX-License-Identifier: MIF\r\npragma solidity 0.8.10;\r\n\r\ncontract Adoption {\r\n\r\n  struct Item{\r\n    uint id;\r\n    string name;\r\n    string picture;\r\n    string keycaps;\r\n    string ffactor;\r\n    string switches;\r\n    address owner;\r\n  }\r\n\r\nuint public keyboardCount = 0;\r\nItem[] public keyboards;\r\nuint public keyboardId = 0;\r\n\r\nconstructor(){\r\n  add(\"ID80\", \"images/ID80.png\", \"Laser\", \"75%\", \"BOBA U4T\");\r\n  add(\"Candy Bar\", \"images/Classic.png\", \"Botanical\", \"65%\", \"Cherry MX Brown\");\r\n  add(\"ID80\", \"images/CandyBar.png\", \"VileBloom\", \"50%\", \"BOBA Gum\");\r\n  add(\"Halo\", \"images/CandyBar.png\", \"Halo\", \"96%\", \"Gateron Yellow\");\r\n}\r\n\r\nfunction add(string memory name, string memory picture, string memory keycaps, string memory ffactor, string memory switches) public{\r\nkeyboards.push(Item(keyboardId, name, picture, keycaps, ffactor, switches, address(0)));\r\nkeyboardCount++;\r\nkeyboardId++;\r\n}\r\n\r\n//checking if a person already owns the item\r\nfunction checkBuyer(uint itemId, address wallet)public view returns (bool){\r\nif(wallet == keyboards[itemId].owner){\r\n  return false;\r\n}else return true;\r\n}\r\n\r\n// buying a keyboard\r\nfunction buy(uint kbId) public returns (uint) {\r\n  require(checkBuyer(kbId, msg.sender), \"item already owned\");\r\n  require((kbId >= 0 && kbId < keyboardCount), \"Invalid ID\");\r\n  for(uint i = 0; i < keyboardCount; i++){\r\n    if(keyboards[i].id == kbId){\r\n      keyboards[i].owner == msg.sender;\r\n    }\r\n  }\r\n  return kbId;\r\n}\r\n\r\n// Retrieving the owners\r\nfunction getOwners() public view returns (address[] memory) {\r\naddress[] memory arrayOfOwners;\r\n\r\n  for (uint i=0; i < keyboardCount; i++) {\r\n\t\t\tarrayOfOwners[i] = keyboards[i].owner;\r\n\t\t}\r\n  return arrayOfOwners;\r\n}\r\n\r\n}",
  "sourcePath": "C:\\Users\\matol\\OneDrive\\Documents\\GitHub\\KeyboardShop\\contracts\\Adoption.sol",
  "compiler": {
    "name": "solc",
    "version": "0.8.10+commit.fc410830.Emscripten.clang"
  },
  "schemaVersion": "3.4.3",
  "updatedAt": "2021-12-15T19:09:59.953Z",
  "networkType": "ethereum",
  "devdoc": {
    "kind": "dev",
    "methods": {},
    "version": 1
  },
  "userdoc": {
    "kind": "user",
    "methods": {},
    "version": 1
  }
}