{
  "contractName": "Adoption",
  "abi": [
    {
      "inputs": [],
      "stateMutability": "nonpayable",
      "type": "constructor"
    },
    {
      "inputs": [],
      "name": "keyboardId",
      "outputs": [
        {
          "internalType": "uint256",
          "name": "",
          "type": "uint256"
        }
      ],
      "stateMutability": "view",
      "type": "function",
      "constant": true
    },
    {
      "inputs": [
        {
          "internalType": "uint256",
          "name": "",
          "type": "uint256"
        }
      ],
      "name": "keyboards",
      "outputs": [
        {
          "internalType": "uint256",
          "name": "id",
          "type": "uint256"
        },
        {
          "internalType": "string",
          "name": "name",
          "type": "string"
        },
        {
          "internalType": "string",
          "name": "picture",
          "type": "string"
        },
        {
          "internalType": "string",
          "name": "switches",
          "type": "string"
        },
        {
          "internalType": "uint256",
          "name": "price",
          "type": "uint256"
        },
        {
          "internalType": "address",
          "name": "uploader",
          "type": "address"
        },
        {
          "internalType": "address",
          "name": "owner",
          "type": "address"
        }
      ],
      "stateMutability": "view",
      "type": "function",
      "constant": true
    },
    {
      "inputs": [
        {
          "internalType": "uint256",
          "name": "id",
          "type": "uint256"
        }
      ],
      "name": "get",
      "outputs": [
        {
          "internalType": "uint256",
          "name": "thisKeyboardId",
          "type": "uint256"
        },
        {
          "internalType": "string",
          "name": "name",
          "type": "string"
        },
        {
          "internalType": "string",
          "name": "picture",
          "type": "string"
        },
        {
          "internalType": "string",
          "name": "switches",
          "type": "string"
        },
        {
          "internalType": "uint256",
          "name": "price",
          "type": "uint256"
        },
        {
          "internalType": "address",
          "name": "uploader",
          "type": "address"
        },
        {
          "internalType": "address",
          "name": "owner",
          "type": "address"
        }
      ],
      "stateMutability": "view",
      "type": "function",
      "constant": true
    },
    {
      "inputs": [
        {
          "internalType": "uint256",
          "name": "id",
          "type": "uint256"
        }
      ],
      "name": "buy",
      "outputs": [],
      "stateMutability": "payable",
      "type": "function",
      "payable": true
    },
    {
      "inputs": [],
      "name": "getKeyboardsAmount",
      "outputs": [
        {
          "internalType": "uint256",
          "name": "length",
          "type": "uint256"
        }
      ],
      "stateMutability": "view",
      "type": "function",
      "constant": true
    }
  ],
  "bytecode": "0x6080604052600080553480156200001557600080fd5b50620000ca6040518060400160405280600481526020017f49443830000000000000000000000000000000000000000000000000000000008152506040518060400160405280600f81526020017f696d616765732f494438302e706e6700000000000000000000000000000000008152506040518060400160405280600881526020017f424f4241205534540000000000000000000000000000000000000000000000008152506002620002ec60201b60201c565b6200017e6040518060400160405280600b81526020017f54686520436c61737369630000000000000000000000000000000000000000008152506040518060400160405280601281526020017f696d616765732f436c61737369632e706e6700000000000000000000000000008152506040518060400160405280600f81526020017f436865727279204d582042726f776e00000000000000000000000000000000008152506003620002ec60201b60201c565b620002326040518060400160405280600981526020017f43616e64792042617200000000000000000000000000000000000000000000008152506040518060400160405280601381526020017f696d616765732f43616e64794261722e706e67000000000000000000000000008152506040518060400160405280600881526020017f424f42412047756d0000000000000000000000000000000000000000000000008152506004620002ec60201b60201c565b620002e66040518060400160405280600481526020017f48616c6f000000000000000000000000000000000000000000000000000000008152506040518060400160405280601381526020017f696d616765732f43616e64794261722e706e67000000000000000000000000008152506040518060400160405280600e81526020017f47617465726f6e2059656c6c6f770000000000000000000000000000000000008152506005620002ec60201b60201c565b62000635565b60016040518060e0016040528060005481526020018681526020018581526020018481526020018381526020013373ffffffffffffffffffffffffffffffffffffffff168152602001600073ffffffffffffffffffffffffffffffffffffffff168152509080600181540180825580915050600190039060005260206000209060070201600090919091909150600082015181600001556020820151816001019080519060200190620003a192919062000499565b506040820151816002019080519060200190620003c092919062000499565b506060820151816003019080519060200190620003df92919062000499565b506080820151816004015560a08201518160050160006101000a81548173ffffffffffffffffffffffffffffffffffffffff021916908373ffffffffffffffffffffffffffffffffffffffff16021790555060c08201518160060160006101000a81548173ffffffffffffffffffffffffffffffffffffffff021916908373ffffffffffffffffffffffffffffffffffffffff16021790555050506000808154809291906200048e9062000582565b919050555050505050565b828054620004a790620005ff565b90600052602060002090601f016020900481019282620004cb576000855562000517565b82601f10620004e657805160ff191683800117855562000517565b8280016001018555821562000517579182015b8281111562000516578251825591602001919060010190620004f9565b5b5090506200052691906200052a565b5090565b5b80821115620005455760008160009055506001016200052b565b5090565b7f4e487b7100000000000000000000000000000000000000000000000000000000600052601160045260246000fd5b6000819050919050565b60006200058f8262000578565b91507fffffffffffffffffffffffffffffffffffffffffffffffffffffffffffffffff821415620005c557620005c462000549565b5b600182019050919050565b7f4e487b7100000000000000000000000000000000000000000000000000000000600052602260045260246000fd5b600060028204905060018216806200061857607f821691505b602082108114156200062f576200062e620005d0565b5b50919050565b610c0780620006456000396000f3fe60806040526004361061004a5760003560e01c8063562277771461004f57806362d6ea45146100925780639507d39a146100bd578063c6f8fc3814610100578063d96a094a1461012b575b600080fd5b34801561005b57600080fd5b50610076600480360381019061007191906108ba565b610147565b60405161008997969594939291906109d0565b60405180910390f35b34801561009e57600080fd5b506100a7610371565b6040516100b49190610a54565b60405180910390f35b3480156100c957600080fd5b506100e460048036038101906100df91906108ba565b610377565b6040516100f797969594939291906109d0565b60405180910390f35b34801561010c57600080fd5b506101156106e2565b6040516101229190610a54565b60405180910390f35b610145600480360381019061014091906108ba565b6106ef565b005b6001818154811061015757600080fd5b906000526020600020906007020160009150905080600001549080600101805461018090610a9e565b80601f01602080910402602001604051908101604052809291908181526020018280546101ac90610a9e565b80156101f95780601f106101ce576101008083540402835291602001916101f9565b820191906000526020600020905b8154815290600101906020018083116101dc57829003601f168201915b50505050509080600201805461020e90610a9e565b80601f016020809104026020016040519081016040528092919081815260200182805461023a90610a9e565b80156102875780601f1061025c57610100808354040283529160200191610287565b820191906000526020600020905b81548152906001019060200180831161026a57829003601f168201915b50505050509080600301805461029c90610a9e565b80601f01602080910402602001604051908101604052809291908181526020018280546102c890610a9e565b80156103155780601f106102ea57610100808354040283529160200191610315565b820191906000526020600020905b8154815290600101906020018083116102f857829003601f168201915b5050505050908060040154908060050160009054906101000a900473ffffffffffffffffffffffffffffffffffffffff16908060060160009054906101000a900473ffffffffffffffffffffffffffffffffffffffff16905087565b60005481565b60006060806060600080600080600090505b6001805490508110156106d55788600182815481106103ab576103aa610ad0565b5b90600052602060002090600702016000015414156106c257600181815481106103d7576103d6610ad0565b5b906000526020600020906007020160000154600182815481106103fd576103fc610ad0565b5b90600052602060002090600702016001016001838154811061042257610421610ad0565b5b90600052602060002090600702016002016001848154811061044757610446610ad0565b5b90600052602060002090600702016003016001858154811061046c5761046b610ad0565b5b9060005260206000209060070201600401546001868154811061049257610491610ad0565b5b906000526020600020906007020160050160009054906101000a900473ffffffffffffffffffffffffffffffffffffffff16600187815481106104d8576104d7610ad0565b5b906000526020600020906007020160060160009054906101000a900473ffffffffffffffffffffffffffffffffffffffff1685805461051690610a9e565b80601f016020809104026020016040519081016040528092919081815260200182805461054290610a9e565b801561058f5780601f106105645761010080835404028352916020019161058f565b820191906000526020600020905b81548152906001019060200180831161057257829003601f168201915b505050505095508480546105a290610a9e565b80601f01602080910402602001604051908101604052809291908181526020018280546105ce90610a9e565b801561061b5780601f106105f05761010080835404028352916020019161061b565b820191906000526020600020905b8154815290600101906020018083116105fe57829003601f168201915b5050505050945083805461062e90610a9e565b80601f016020809104026020016040519081016040528092919081815260200182805461065a90610a9e565b80156106a75780601f1061067c576101008083540402835291602001916106a7565b820191906000526020600020905b81548152906001019060200180831161068a57829003601f168201915b505050505093509750975097509750975097509750506106d7565b80806106cd90610b2e565b915050610389565b505b919395979092949650565b6000600180549050905090565b34670de0b6b3a76400006001838154811061070d5761070c610ad0565b5b9060005260206000209060070201600401546107299190610b77565b111561073457600080fd5b6001818154811061074857610747610ad0565b5b906000526020600020906007020160050160009054906101000a900473ffffffffffffffffffffffffffffffffffffffff1673ffffffffffffffffffffffffffffffffffffffff166108fc349081150290604051600060405180830381858888f193505050501580156107bf573d6000803e3d6000fd5b5060005b60018054905081101561087a5781600182815481106107e5576107e4610ad0565b5b906000526020600020906007020160000154141561086757336001828154811061081257610811610ad0565b5b906000526020600020906007020160060160006101000a81548173ffffffffffffffffffffffffffffffffffffffff021916908373ffffffffffffffffffffffffffffffffffffffff1602179055505061087c565b808061087290610b2e565b9150506107c3565b505b50565b600080fd5b6000819050919050565b61089781610884565b81146108a257600080fd5b50565b6000813590506108b48161088e565b92915050565b6000602082840312156108d0576108cf61087f565b5b60006108de848285016108a5565b91505092915050565b6108f081610884565b82525050565b600081519050919050565b600082825260208201905092915050565b60005b83811015610930578082015181840152602081019050610915565b8381111561093f576000848401525b50505050565b6000601f19601f8301169050919050565b6000610961826108f6565b61096b8185610901565b935061097b818560208601610912565b61098481610945565b840191505092915050565b600073ffffffffffffffffffffffffffffffffffffffff82169050919050565b60006109ba8261098f565b9050919050565b6109ca816109af565b82525050565b600060e0820190506109e5600083018a6108e7565b81810360208301526109f78189610956565b90508181036040830152610a0b8188610956565b90508181036060830152610a1f8187610956565b9050610a2e60808301866108e7565b610a3b60a08301856109c1565b610a4860c08301846109c1565b98975050505050505050565b6000602082019050610a6960008301846108e7565b92915050565b7f4e487b7100000000000000000000000000000000000000000000000000000000600052602260045260246000fd5b60006002820490506001821680610ab657607f821691505b60208210811415610aca57610ac9610a6f565b5b50919050565b7f4e487b7100000000000000000000000000000000000000000000000000000000600052603260045260246000fd5b7f4e487b7100000000000000000000000000000000000000000000000000000000600052601160045260246000fd5b6000610b3982610884565b91507fffffffffffffffffffffffffffffffffffffffffffffffffffffffffffffffff821415610b6c57610b6b610aff565b5b600182019050919050565b6000610b8282610884565b9150610b8d83610884565b9250817fffffffffffffffffffffffffffffffffffffffffffffffffffffffffffffffff0483118215151615610bc657610bc5610aff565b5b82820290509291505056fea2646970667358221220c2bffaea859c17683b1f6acb8e3297bd8851c45ae9ab017c006fbf1724a85bc464736f6c634300080a0033",
  "immutableReferences": {},
  "source": "// SPDX-License-Identifier: MIF\r\npragma solidity 0.8.10;\r\n\r\ncontract Adoption {\r\n\r\n  struct Item{\r\n    uint id;\r\n    string name;\r\n    string picture;\r\n    string switches;\r\n    uint price;\r\n    address uploader;\r\n    address owner;\r\n  }\r\nuint public keyboardId = 0;\r\nItem[] public keyboards;\r\n\r\nconstructor(){\r\n  add(\"ID80\",\"images/ID80.png\",\"BOBA U4T\", 2);\r\n  add(\"The Classic\",\"images/Classic.png\", \"Cherry MX Brown\", 3);\r\n  add(\"Candy Bar\",\"images/CandyBar.png\", \"BOBA Gum\", 4);\r\n  add(\"Halo\",\"images/CandyBar.png\",\"Gateron Yellow\", 5);\r\n}\r\n\r\nfunction add(string memory name, string memory picture, string memory switches, uint price) private{\r\n  keyboards.push(Item(keyboardId, name, picture, switches, price, msg.sender, address(0)));\r\n  keyboardId++;\r\n}\r\n\r\nfunction get(uint id) public view returns (uint thisKeyboardId, string memory name, string memory picture, string memory switches, uint price, address uploader, address owner){\r\n    for(uint i = 0; i < keyboards.length; i++){\r\n      if(keyboards[i].id == id){\r\n        return (keyboards[i].id, keyboards[i].name, keyboards[i].picture, keyboards[i].switches, keyboards[i].price, keyboards[i].uploader, keyboards[i].owner);\r\n      }\r\n    }\r\n  }\r\n\r\n// Buying a keyboard\r\nfunction buy(uint id) public payable{\r\n  require(keyboards[id].price * 1 ether <= msg.value);\r\n\r\n  payable(keyboards[id].uploader).transfer(msg.value);\r\n  for(uint i = 0; i < keyboards.length; i++){\r\n      if (keyboards[i].id == id) {\r\n        keyboards[i].owner = msg.sender;\r\n        return;\r\n      }\r\n}\r\n}\r\n\r\nfunction getKeyboardsAmount() public view returns (uint256 length){\r\n  return keyboards.length;\r\n}\r\n\r\n}",
  "sourcePath": "C:\\Users\\matol\\OneDrive\\Documents\\GitHub\\KeyboardShop\\contracts\\Adoption.sol",
  "compiler": {
    "name": "solc",
    "version": "0.8.10+commit.fc410830.Emscripten.clang"
  },
  "schemaVersion": "3.4.3",
  "updatedAt": "2021-12-16T13:01:53.815Z",
  "networkType": "ethereum",
  "devdoc": {
    "kind": "dev",
    "methods": {},
    "version": 1
  },
  "userdoc": {
    "kind": "user",
    "methods": {},
    "version": 1
  }
}