{
  "contractName": "Adoption",
  "abi": [
    {
      "inputs": [],
      "stateMutability": "nonpayable",
      "type": "constructor"
    },
    {
      "inputs": [],
      "name": "keyboardId",
      "outputs": [
        {
          "internalType": "uint256",
          "name": "",
          "type": "uint256"
        }
      ],
      "stateMutability": "view",
      "type": "function",
      "constant": true
    },
    {
      "inputs": [
        {
          "internalType": "uint256",
          "name": "",
          "type": "uint256"
        }
      ],
      "name": "keyboards",
      "outputs": [
        {
          "internalType": "uint256",
          "name": "id",
          "type": "uint256"
        },
        {
          "internalType": "string",
          "name": "name",
          "type": "string"
        },
        {
          "internalType": "string",
          "name": "picture",
          "type": "string"
        },
        {
          "internalType": "string",
          "name": "switches",
          "type": "string"
        },
        {
          "internalType": "uint256",
          "name": "price",
          "type": "uint256"
        },
        {
          "internalType": "address",
          "name": "uploader",
          "type": "address"
        },
        {
          "internalType": "address",
          "name": "owner",
          "type": "address"
        }
      ],
      "stateMutability": "view",
      "type": "function",
      "constant": true
    },
    {
      "inputs": [
        {
          "internalType": "string",
          "name": "name",
          "type": "string"
        },
        {
          "internalType": "string",
          "name": "picture",
          "type": "string"
        },
        {
          "internalType": "string",
          "name": "switches",
          "type": "string"
        },
        {
          "internalType": "uint256",
          "name": "price",
          "type": "uint256"
        }
      ],
      "name": "add",
      "outputs": [],
      "stateMutability": "nonpayable",
      "type": "function"
    },
    {
      "inputs": [
        {
          "internalType": "uint256",
          "name": "id",
          "type": "uint256"
        }
      ],
      "name": "get",
      "outputs": [
        {
          "internalType": "uint256",
          "name": "thisKeyboardId",
          "type": "uint256"
        },
        {
          "internalType": "string",
          "name": "name",
          "type": "string"
        },
        {
          "internalType": "string",
          "name": "picture",
          "type": "string"
        },
        {
          "internalType": "string",
          "name": "switches",
          "type": "string"
        },
        {
          "internalType": "uint256",
          "name": "price",
          "type": "uint256"
        },
        {
          "internalType": "address",
          "name": "uploader",
          "type": "address"
        },
        {
          "internalType": "address",
          "name": "owner",
          "type": "address"
        }
      ],
      "stateMutability": "view",
      "type": "function",
      "constant": true
    },
    {
      "inputs": [
        {
          "internalType": "uint256",
          "name": "id",
          "type": "uint256"
        }
      ],
      "name": "buy",
      "outputs": [],
      "stateMutability": "payable",
      "type": "function",
      "payable": true
    },
    {
      "inputs": [],
      "name": "getOwners",
      "outputs": [
        {
          "internalType": "address[]",
          "name": "",
          "type": "address[]"
        }
      ],
      "stateMutability": "view",
      "type": "function",
      "constant": true
    },
    {
      "inputs": [],
      "name": "getKeyboardsAmount",
      "outputs": [
        {
          "internalType": "uint256",
          "name": "length",
          "type": "uint256"
        }
      ],
      "stateMutability": "view",
      "type": "function",
      "constant": true
    }
  ],
  "bytecode": "0x6080604052600080553480156200001557600080fd5b50620000ca6040518060400160405280600481526020017f49443830000000000000000000000000000000000000000000000000000000008152506040518060400160405280600f81526020017f696d616765732f494438302e706e6700000000000000000000000000000000008152506040518060400160405280600881526020017f424f4241205534540000000000000000000000000000000000000000000000008152506002620002c660201b60201c565b6200017e6040518060400160405280600b81526020017f54686520436c61737369630000000000000000000000000000000000000000008152506040518060400160405280601281526020017f696d616765732f436c61737369632e706e6700000000000000000000000000008152506040518060400160405280600f81526020017f436865727279204d582042726f776e00000000000000000000000000000000008152506003620002c660201b60201c565b620002326040518060400160405280600981526020017f43616e64792042617200000000000000000000000000000000000000000000008152506040518060400160405280601381526020017f696d616765732f43616e64794261722e706e67000000000000000000000000008152506040518060400160405280600881526020017f424f42412047756d0000000000000000000000000000000000000000000000008152506004620002c660201b60201c565b620002c06040518060400160405280600481526020017f48616c6f00000000000000000000000000000000000000000000000000000000815250604051806020016040528060008152506040518060400160405280600e81526020017f47617465726f6e2059656c6c6f770000000000000000000000000000000000008152506005620002c660201b60201c565b620007ff565b604051806020016040528060008152508051906020012083805190602001201415620004b55760016040518060e0016040528060005481526020018681526020016040518060400160405280601681526020017f696d616765732f6e6f7455706c6f616465642e706e670000000000000000000081525081526020018481526020018381526020013373ffffffffffffffffffffffffffffffffffffffff168152602001600073ffffffffffffffffffffffffffffffffffffffff168152509080600181540180825580915050600190039060005260206000209060070201600090919091909150600082015181600001556020820151816001019080519060200190620003d692919062000663565b506040820151816002019080519060200190620003f592919062000663565b5060608201518160030190805190602001906200041492919062000663565b506080820151816004015560a08201518160050160006101000a81548173ffffffffffffffffffffffffffffffffffffffff021916908373ffffffffffffffffffffffffffffffffffffffff16021790555060c08201518160060160006101000a81548173ffffffffffffffffffffffffffffffffffffffff021916908373ffffffffffffffffffffffffffffffffffffffff160217905550505062000644565b60016040518060e0016040528060005481526020018681526020018581526020018481526020018381526020013373ffffffffffffffffffffffffffffffffffffffff168152602001600073ffffffffffffffffffffffffffffffffffffffff1681525090806001815401808255809150506001900390600052602060002090600702016000909190919091506000820151816000015560208201518160010190805190602001906200056a92919062000663565b5060408201518160020190805190602001906200058992919062000663565b506060820151816003019080519060200190620005a892919062000663565b506080820151816004015560a08201518160050160006101000a81548173ffffffffffffffffffffffffffffffffffffffff021916908373ffffffffffffffffffffffffffffffffffffffff16021790555060c08201518160060160006101000a81548173ffffffffffffffffffffffffffffffffffffffff021916908373ffffffffffffffffffffffffffffffffffffffff16021790555050505b60008081548092919062000658906200074c565b919050555050505050565b8280546200067190620007c9565b90600052602060002090601f016020900481019282620006955760008555620006e1565b82601f10620006b057805160ff1916838001178555620006e1565b82800160010185558215620006e1579182015b82811115620006e0578251825591602001919060010190620006c3565b5b509050620006f09190620006f4565b5090565b5b808211156200070f576000816000905550600101620006f5565b5090565b7f4e487b7100000000000000000000000000000000000000000000000000000000600052601160045260246000fd5b6000819050919050565b6000620007598262000742565b91507fffffffffffffffffffffffffffffffffffffffffffffffffffffffffffffffff8214156200078f576200078e62000713565b5b600182019050919050565b7f4e487b7100000000000000000000000000000000000000000000000000000000600052602260045260246000fd5b60006002820490506001821680620007e257607f821691505b60208210811415620007f957620007f86200079a565b5b50919050565b611451806200080f6000396000f3fe6080604052600436106100705760003560e01c80639507d39a1161004e5780639507d39a1461010c578063a0e67e2b1461014f578063c6f8fc381461017a578063d96a094a146101a557610070565b80633f647a9714610075578063562277771461009e57806362d6ea45146100e1575b600080fd5b34801561008157600080fd5b5061009c60048036038101906100979190610f7a565b6101c1565b005b3480156100aa57600080fd5b506100c560048036038101906100c09190611035565b61054e565b6040516100d8979695949392919061113a565b60405180910390f35b3480156100ed57600080fd5b506100f6610778565b60405161010391906111be565b60405180910390f35b34801561011857600080fd5b50610133600480360381019061012e9190611035565b61077e565b604051610146979695949392919061113a565b60405180910390f35b34801561015b57600080fd5b50610164610ae9565b6040516101719190611297565b60405180910390f35b34801561018657600080fd5b5061018f610baa565b60405161019c91906111be565b60405180910390f35b6101bf60048036038101906101ba9190611035565b610bb7565b005b6040518060200160405280600081525080519060200120838051906020012014156103a85760016040518060e0016040528060005481526020018681526020016040518060400160405280601681526020017f696d616765732f6e6f7455706c6f616465642e706e670000000000000000000081525081526020018481526020018381526020013373ffffffffffffffffffffffffffffffffffffffff168152602001600073ffffffffffffffffffffffffffffffffffffffff1681525090806001815401808255809150506001900390600052602060002090600702016000909190919091506000820151816000015560208201518160010190805190602001906102ce929190610d47565b5060408201518160020190805190602001906102eb929190610d47565b506060820151816003019080519060200190610308929190610d47565b506080820151816004015560a08201518160050160006101000a81548173ffffffffffffffffffffffffffffffffffffffff021916908373ffffffffffffffffffffffffffffffffffffffff16021790555060c08201518160060160006101000a81548173ffffffffffffffffffffffffffffffffffffffff021916908373ffffffffffffffffffffffffffffffffffffffff1602179055505050610531565b60016040518060e0016040528060005481526020018681526020018581526020018481526020018381526020013373ffffffffffffffffffffffffffffffffffffffff168152602001600073ffffffffffffffffffffffffffffffffffffffff16815250908060018154018082558091505060019003906000526020600020906007020160009091909190915060008201518160000155602082015181600101908051906020019061045b929190610d47565b506040820151816002019080519060200190610478929190610d47565b506060820151816003019080519060200190610495929190610d47565b506080820151816004015560a08201518160050160006101000a81548173ffffffffffffffffffffffffffffffffffffffff021916908373ffffffffffffffffffffffffffffffffffffffff16021790555060c08201518160060160006101000a81548173ffffffffffffffffffffffffffffffffffffffff021916908373ffffffffffffffffffffffffffffffffffffffff16021790555050505b600080815480929190610543906112e8565b919050555050505050565b6001818154811061055e57600080fd5b906000526020600020906007020160009150905080600001549080600101805461058790611360565b80601f01602080910402602001604051908101604052809291908181526020018280546105b390611360565b80156106005780601f106105d557610100808354040283529160200191610600565b820191906000526020600020905b8154815290600101906020018083116105e357829003601f168201915b50505050509080600201805461061590611360565b80601f016020809104026020016040519081016040528092919081815260200182805461064190611360565b801561068e5780601f106106635761010080835404028352916020019161068e565b820191906000526020600020905b81548152906001019060200180831161067157829003601f168201915b5050505050908060030180546106a390611360565b80601f01602080910402602001604051908101604052809291908181526020018280546106cf90611360565b801561071c5780601f106106f15761010080835404028352916020019161071c565b820191906000526020600020905b8154815290600101906020018083116106ff57829003601f168201915b5050505050908060040154908060050160009054906101000a900473ffffffffffffffffffffffffffffffffffffffff16908060060160009054906101000a900473ffffffffffffffffffffffffffffffffffffffff16905087565b60005481565b60006060806060600080600080600090505b600180549050811015610adc5788600182815481106107b2576107b1611392565b5b9060005260206000209060070201600001541415610ac957600181815481106107de576107dd611392565b5b9060005260206000209060070201600001546001828154811061080457610803611392565b5b90600052602060002090600702016001016001838154811061082957610828611392565b5b90600052602060002090600702016002016001848154811061084e5761084d611392565b5b90600052602060002090600702016003016001858154811061087357610872611392565b5b9060005260206000209060070201600401546001868154811061089957610898611392565b5b906000526020600020906007020160050160009054906101000a900473ffffffffffffffffffffffffffffffffffffffff16600187815481106108df576108de611392565b5b906000526020600020906007020160060160009054906101000a900473ffffffffffffffffffffffffffffffffffffffff1685805461091d90611360565b80601f016020809104026020016040519081016040528092919081815260200182805461094990611360565b80156109965780601f1061096b57610100808354040283529160200191610996565b820191906000526020600020905b81548152906001019060200180831161097957829003601f168201915b505050505095508480546109a990611360565b80601f01602080910402602001604051908101604052809291908181526020018280546109d590611360565b8015610a225780601f106109f757610100808354040283529160200191610a22565b820191906000526020600020905b815481529060010190602001808311610a0557829003601f168201915b50505050509450838054610a3590611360565b80601f0160208091040260200160405190810160405280929190818152602001828054610a6190611360565b8015610aae5780601f10610a8357610100808354040283529160200191610aae565b820191906000526020600020905b815481529060010190602001808311610a9157829003601f168201915b50505050509350975097509750975097509750975050610ade565b8080610ad4906112e8565b915050610790565b505b919395979092949650565b60608060005b600180549050811015610ba25760018181548110610b1057610b0f611392565b5b906000526020600020906007020160060160009054906101000a900473ffffffffffffffffffffffffffffffffffffffff16828281518110610b5557610b54611392565b5b602002602001019073ffffffffffffffffffffffffffffffffffffffff16908173ffffffffffffffffffffffffffffffffffffffff16815250508080610b9a906112e8565b915050610aef565b508091505090565b6000600180549050905090565b34670de0b6b3a764000060018381548110610bd557610bd4611392565b5b906000526020600020906007020160040154610bf191906113c1565b1115610bfc57600080fd5b60018181548110610c1057610c0f611392565b5b906000526020600020906007020160050160009054906101000a900473ffffffffffffffffffffffffffffffffffffffff1673ffffffffffffffffffffffffffffffffffffffff166108fc349081150290604051600060405180830381858888f19350505050158015610c87573d6000803e3d6000fd5b5060005b600180549050811015610d42578160018281548110610cad57610cac611392565b5b9060005260206000209060070201600001541415610d2f573360018281548110610cda57610cd9611392565b5b906000526020600020906007020160060160006101000a81548173ffffffffffffffffffffffffffffffffffffffff021916908373ffffffffffffffffffffffffffffffffffffffff16021790555050610d44565b8080610d3a906112e8565b915050610c8b565b505b50565b828054610d5390611360565b90600052602060002090601f016020900481019282610d755760008555610dbc565b82601f10610d8e57805160ff1916838001178555610dbc565b82800160010185558215610dbc579182015b82811115610dbb578251825591602001919060010190610da0565b5b509050610dc99190610dcd565b5090565b5b80821115610de6576000816000905550600101610dce565b5090565b6000604051905090565b600080fd5b600080fd5b600080fd5b600080fd5b6000601f19601f8301169050919050565b7f4e487b7100000000000000000000000000000000000000000000000000000000600052604160045260246000fd5b610e5182610e08565b810181811067ffffffffffffffff82111715610e7057610e6f610e19565b5b80604052505050565b6000610e83610dea565b9050610e8f8282610e48565b919050565b600067ffffffffffffffff821115610eaf57610eae610e19565b5b610eb882610e08565b9050602081019050919050565b82818337600083830152505050565b6000610ee7610ee284610e94565b610e79565b905082815260208101848484011115610f0357610f02610e03565b5b610f0e848285610ec5565b509392505050565b600082601f830112610f2b57610f2a610dfe565b5b8135610f3b848260208601610ed4565b91505092915050565b6000819050919050565b610f5781610f44565b8114610f6257600080fd5b50565b600081359050610f7481610f4e565b92915050565b60008060008060808587031215610f9457610f93610df4565b5b600085013567ffffffffffffffff811115610fb257610fb1610df9565b5b610fbe87828801610f16565b945050602085013567ffffffffffffffff811115610fdf57610fde610df9565b5b610feb87828801610f16565b935050604085013567ffffffffffffffff81111561100c5761100b610df9565b5b61101887828801610f16565b925050606061102987828801610f65565b91505092959194509250565b60006020828403121561104b5761104a610df4565b5b600061105984828501610f65565b91505092915050565b61106b81610f44565b82525050565b600081519050919050565b600082825260208201905092915050565b60005b838110156110ab578082015181840152602081019050611090565b838111156110ba576000848401525b50505050565b60006110cb82611071565b6110d5818561107c565b93506110e581856020860161108d565b6110ee81610e08565b840191505092915050565b600073ffffffffffffffffffffffffffffffffffffffff82169050919050565b6000611124826110f9565b9050919050565b61113481611119565b82525050565b600060e08201905061114f600083018a611062565b818103602083015261116181896110c0565b9050818103604083015261117581886110c0565b9050818103606083015261118981876110c0565b90506111986080830186611062565b6111a560a083018561112b565b6111b260c083018461112b565b98975050505050505050565b60006020820190506111d36000830184611062565b92915050565b600081519050919050565b600082825260208201905092915050565b6000819050602082019050919050565b61120e81611119565b82525050565b60006112208383611205565b60208301905092915050565b6000602082019050919050565b6000611244826111d9565b61124e81856111e4565b9350611259836111f5565b8060005b8381101561128a5781516112718882611214565b975061127c8361122c565b92505060018101905061125d565b5085935050505092915050565b600060208201905081810360008301526112b18184611239565b905092915050565b7f4e487b7100000000000000000000000000000000000000000000000000000000600052601160045260246000fd5b60006112f382610f44565b91507fffffffffffffffffffffffffffffffffffffffffffffffffffffffffffffffff821415611326576113256112b9565b5b600182019050919050565b7f4e487b7100000000000000000000000000000000000000000000000000000000600052602260045260246000fd5b6000600282049050600182168061137857607f821691505b6020821081141561138c5761138b611331565b5b50919050565b7f4e487b7100000000000000000000000000000000000000000000000000000000600052603260045260246000fd5b60006113cc82610f44565b91506113d783610f44565b9250817fffffffffffffffffffffffffffffffffffffffffffffffffffffffffffffffff04831182151516156114105761140f6112b9565b5b82820290509291505056fea2646970667358221220b8f78c44c448f1eab19b3d44e0b6dddbb7f6d04edc45010612fc8517e90a9db864736f6c634300080a0033",
  "immutableReferences": {},
  "source": "// SPDX-License-Identifier: MIF\r\npragma solidity 0.8.10;\r\n\r\ncontract Adoption {\r\n\r\n  struct Item{\r\n    uint id;\r\n    string name;\r\n    string picture;\r\n    string switches;\r\n    uint price;\r\n    address uploader;\r\n    address owner;\r\n  }\r\nuint public keyboardId = 0;\r\nItem[] public keyboards;\r\n\r\nconstructor(){\r\n  add(\"ID80\",\"images/ID80.png\",\"BOBA U4T\", 2);\r\n  add(\"The Classic\",\"images/Classic.png\", \"Cherry MX Brown\", 3);\r\n  add(\"Candy Bar\",\"images/CandyBar.png\", \"BOBA Gum\", 4);\r\n  add(\"Halo\",\"\",\"Gateron Yellow\", 5);\r\n}\r\n\r\nfunction add(string memory name, string memory picture, string memory switches, uint price) public{\r\n  if(keccak256(bytes(picture)) == keccak256(bytes(\"\"))){\r\n    keyboards.push(Item(keyboardId, name, \"images/notUploaded.png\", switches, price, msg.sender, address(0)));\r\n  }else{\r\n    keyboards.push(Item(keyboardId, name, picture, switches, price, msg.sender, address(0)));\r\n  }\r\n  keyboardId++;\r\n}\r\n\r\nfunction get(uint id) public view returns (uint thisKeyboardId, string memory name, string memory picture, string memory switches, uint price, address uploader, address owner){\r\n    for(uint i = 0; i < keyboards.length; i++){\r\n      if(keyboards[i].id == id){\r\n        return (keyboards[i].id, keyboards[i].name, keyboards[i].picture, keyboards[i].switches, keyboards[i].price, keyboards[i].uploader, keyboards[i].owner);\r\n      }\r\n    }\r\n  }\r\n\r\n// Buying a keyboard\r\nfunction buy(uint id) public payable{\r\n  require(keyboards[id].price * 1 ether <= msg.value);\r\n\r\n  payable(keyboards[id].uploader).transfer(msg.value);\r\n  for(uint i = 0; i < keyboards.length; i++){\r\n      if (keyboards[i].id == id) {\r\n        keyboards[i].owner = msg.sender;\r\n        return;\r\n      }\r\n}\r\n}\r\n\r\nfunction getOwners() public view returns(address[] memory){\r\n  address[] memory arrayOfOwners;\r\n\r\n  for(uint i = 0; i < keyboards.length; i++){\r\n    arrayOfOwners[i] = keyboards[i].owner;\r\n  } \r\n  return(arrayOfOwners);\r\n}\r\n\r\nfunction getKeyboardsAmount() public view returns (uint256 length){\r\n  return keyboards.length;\r\n}\r\n\r\n}",
  "sourcePath": "C:\\Users\\matol\\OneDrive\\Documents\\GitHub\\KeyboardShop\\contracts\\Adoption.sol",
  "compiler": {
    "name": "solc",
    "version": "0.8.10+commit.fc410830.Emscripten.clang"
  },
  "schemaVersion": "3.4.3",
  "updatedAt": "2021-12-16T18:15:04.411Z",
  "networkType": "ethereum",
  "devdoc": {
    "kind": "dev",
    "methods": {},
    "version": 1
  },
  "userdoc": {
    "kind": "user",
    "methods": {},
    "version": 1
  }
}