{
  "contractName": "Adoption",
  "abi": [
    {
      "inputs": [],
      "stateMutability": "nonpayable",
      "type": "constructor"
    },
    {
      "inputs": [],
      "name": "keyboardId",
      "outputs": [
        {
          "internalType": "uint256",
          "name": "",
          "type": "uint256"
        }
      ],
      "stateMutability": "view",
      "type": "function",
      "constant": true
    },
    {
      "inputs": [
        {
          "internalType": "uint256",
          "name": "",
          "type": "uint256"
        }
      ],
      "name": "keyboards",
      "outputs": [
        {
          "internalType": "uint256",
          "name": "id",
          "type": "uint256"
        },
        {
          "internalType": "string",
          "name": "name",
          "type": "string"
        },
        {
          "internalType": "string",
          "name": "picture",
          "type": "string"
        },
        {
          "internalType": "string",
          "name": "switches",
          "type": "string"
        },
        {
          "internalType": "uint256",
          "name": "price",
          "type": "uint256"
        },
        {
          "internalType": "address",
          "name": "uploader",
          "type": "address"
        },
        {
          "internalType": "address",
          "name": "owner",
          "type": "address"
        }
      ],
      "stateMutability": "view",
      "type": "function",
      "constant": true
    },
    {
      "inputs": [
        {
          "internalType": "string",
          "name": "name",
          "type": "string"
        },
        {
          "internalType": "string",
          "name": "picture",
          "type": "string"
        },
        {
          "internalType": "string",
          "name": "switches",
          "type": "string"
        },
        {
          "internalType": "uint256",
          "name": "price",
          "type": "uint256"
        }
      ],
      "name": "add",
      "outputs": [],
      "stateMutability": "nonpayable",
      "type": "function"
    },
    {
      "inputs": [
        {
          "internalType": "uint256",
          "name": "id",
          "type": "uint256"
        }
      ],
      "name": "get",
      "outputs": [
        {
          "internalType": "uint256",
          "name": "thisKeyboardId",
          "type": "uint256"
        },
        {
          "internalType": "string",
          "name": "name",
          "type": "string"
        },
        {
          "internalType": "string",
          "name": "picture",
          "type": "string"
        },
        {
          "internalType": "string",
          "name": "switches",
          "type": "string"
        },
        {
          "internalType": "uint256",
          "name": "price",
          "type": "uint256"
        },
        {
          "internalType": "address",
          "name": "uploader",
          "type": "address"
        },
        {
          "internalType": "address",
          "name": "owner",
          "type": "address"
        }
      ],
      "stateMutability": "view",
      "type": "function",
      "constant": true
    },
    {
      "inputs": [
        {
          "internalType": "uint256",
          "name": "id",
          "type": "uint256"
        }
      ],
      "name": "buy",
      "outputs": [],
      "stateMutability": "payable",
      "type": "function",
      "payable": true
    },
    {
      "inputs": [],
      "name": "getOwners",
      "outputs": [
        {
          "internalType": "address[]",
          "name": "",
          "type": "address[]"
        }
      ],
      "stateMutability": "view",
      "type": "function",
      "constant": true
    },
    {
      "inputs": [],
      "name": "getKeyboardsAmount",
      "outputs": [
        {
          "internalType": "uint256",
          "name": "length",
          "type": "uint256"
        }
      ],
      "stateMutability": "view",
      "type": "function",
      "constant": true
    }
  ],
  "bytecode": "0x6080604052600080553480156200001557600080fd5b50620000ca6040518060400160405280600481526020017f49443830000000000000000000000000000000000000000000000000000000008152506040518060400160405280600881526020017f494438302e706e670000000000000000000000000000000000000000000000008152506040518060400160405280600881526020017f424f4241205534540000000000000000000000000000000000000000000000008152506002620002c660201b60201c565b6200017e6040518060400160405280600b81526020017f54686520436c61737369630000000000000000000000000000000000000000008152506040518060400160405280600b81526020017f436c61737369632e706e670000000000000000000000000000000000000000008152506040518060400160405280600f81526020017f436865727279204d582042726f776e00000000000000000000000000000000008152506003620002c660201b60201c565b620002326040518060400160405280600981526020017f43616e64792042617200000000000000000000000000000000000000000000008152506040518060400160405280600c81526020017f43616e64794261722e706e6700000000000000000000000000000000000000008152506040518060400160405280600881526020017f424f42412047756d0000000000000000000000000000000000000000000000008152506004620002c660201b60201c565b620002c06040518060400160405280600481526020017f48616c6f00000000000000000000000000000000000000000000000000000000815250604051806020016040528060008152506040518060400160405280600e81526020017f47617465726f6e2059656c6c6f770000000000000000000000000000000000008152506005620002c660201b60201c565b6200091f565b604051806020016040528060008152508051906020012083805190602001201415620004b55760016040518060e0016040528060005481526020018681526020016040518060400160405280601681526020017f696d616765732f6e6f7455706c6f616465642e706e670000000000000000000081525081526020018481526020018381526020013373ffffffffffffffffffffffffffffffffffffffff168152602001600073ffffffffffffffffffffffffffffffffffffffff168152509080600181540180825580915050600190039060005260206000209060070201600090919091909150600082015181600001556020820151816001019080519060200190620003d69291906200068a565b506040820151816002019080519060200190620003f59291906200068a565b506060820151816003019080519060200190620004149291906200068a565b506080820151816004015560a08201518160050160006101000a81548173ffffffffffffffffffffffffffffffffffffffff021916908373ffffffffffffffffffffffffffffffffffffffff16021790555060c08201518160060160006101000a81548173ffffffffffffffffffffffffffffffffffffffff021916908373ffffffffffffffffffffffffffffffffffffffff16021790555050506200066b565b600083604051602001620004ca91906200080d565b604051602081830303815290604052905060016040518060e0016040528060005481526020018781526020018381526020018581526020018481526020013373ffffffffffffffffffffffffffffffffffffffff168152602001600073ffffffffffffffffffffffffffffffffffffffff168152509080600181540180825580915050600190039060005260206000209060070201600090919091909150600082015181600001556020820151816001019080519060200190620005909291906200068a565b506040820151816002019080519060200190620005af9291906200068a565b506060820151816003019080519060200190620005ce9291906200068a565b506080820151816004015560a08201518160050160006101000a81548173ffffffffffffffffffffffffffffffffffffffff021916908373ffffffffffffffffffffffffffffffffffffffff16021790555060c08201518160060160006101000a81548173ffffffffffffffffffffffffffffffffffffffff021916908373ffffffffffffffffffffffffffffffffffffffff1602179055505050505b6000808154809291906200067f906200086c565b919050555050505050565b8280546200069890620008e9565b90600052602060002090601f016020900481019282620006bc576000855562000708565b82601f10620006d757805160ff191683800117855562000708565b8280016001018555821562000708579182015b8281111562000707578251825591602001919060010190620006ea565b5b5090506200071791906200071b565b5090565b5b80821115620007365760008160009055506001016200071c565b5090565b600081905092915050565b7f696d616765732f00000000000000000000000000000000000000000000000000600082015250565b60006200077d6007836200073a565b91506200078a8262000745565b600782019050919050565b600081519050919050565b60005b83811015620007c0578082015181840152602081019050620007a3565b83811115620007d0576000848401525b50505050565b6000620007e38262000795565b620007ef81856200073a565b935062000801818560208601620007a0565b80840191505092915050565b60006200081a826200076e565b9150620008288284620007d6565b915081905092915050565b7f4e487b7100000000000000000000000000000000000000000000000000000000600052601160045260246000fd5b6000819050919050565b6000620008798262000862565b91507fffffffffffffffffffffffffffffffffffffffffffffffffffffffffffffffff821415620008af57620008ae62000833565b5b600182019050919050565b7f4e487b7100000000000000000000000000000000000000000000000000000000600052602260045260246000fd5b600060028204905060018216806200090257607f821691505b60208210811415620009195762000918620008ba565b5b50919050565b611520806200092f6000396000f3fe6080604052600436106100705760003560e01c80639507d39a1161004e5780639507d39a1461010c578063a0e67e2b1461014f578063c6f8fc381461017a578063d96a094a146101a557610070565b80633f647a9714610075578063562277771461009e57806362d6ea45146100e1575b600080fd5b34801561008157600080fd5b5061009c60048036038101906100979190610f9f565b6101c1565b005b3480156100aa57600080fd5b506100c560048036038101906100c0919061105a565b610573565b6040516100d8979695949392919061115f565b60405180910390f35b3480156100ed57600080fd5b506100f661079d565b60405161010391906111e3565b60405180910390f35b34801561011857600080fd5b50610133600480360381019061012e919061105a565b6107a3565b604051610146979695949392919061115f565b60405180910390f35b34801561015b57600080fd5b50610164610b0e565b60405161017191906112bc565b60405180910390f35b34801561018657600080fd5b5061018f610bcf565b60405161019c91906111e3565b60405180910390f35b6101bf60048036038101906101ba919061105a565b610bdc565b005b6040518060200160405280600081525080519060200120838051906020012014156103a85760016040518060e0016040528060005481526020018681526020016040518060400160405280601681526020017f696d616765732f6e6f7455706c6f616465642e706e670000000000000000000081525081526020018481526020018381526020013373ffffffffffffffffffffffffffffffffffffffff168152602001600073ffffffffffffffffffffffffffffffffffffffff1681525090806001815401808255809150506001900390600052602060002090600702016000909190919091506000820151816000015560208201518160010190805190602001906102ce929190610d6c565b5060408201518160020190805190602001906102eb929190610d6c565b506060820151816003019080519060200190610308929190610d6c565b506080820151816004015560a08201518160050160006101000a81548173ffffffffffffffffffffffffffffffffffffffff021916908373ffffffffffffffffffffffffffffffffffffffff16021790555060c08201518160060160006101000a81548173ffffffffffffffffffffffffffffffffffffffff021916908373ffffffffffffffffffffffffffffffffffffffff1602179055505050610556565b6000836040516020016103bb9190611366565b604051602081830303815290604052905060016040518060e0016040528060005481526020018781526020018381526020018581526020018481526020013373ffffffffffffffffffffffffffffffffffffffff168152602001600073ffffffffffffffffffffffffffffffffffffffff16815250908060018154018082558091505060019003906000526020600020906007020160009091909190915060008201518160000155602082015181600101908051906020019061047f929190610d6c565b50604082015181600201908051906020019061049c929190610d6c565b5060608201518160030190805190602001906104b9929190610d6c565b506080820151816004015560a08201518160050160006101000a81548173ffffffffffffffffffffffffffffffffffffffff021916908373ffffffffffffffffffffffffffffffffffffffff16021790555060c08201518160060160006101000a81548173ffffffffffffffffffffffffffffffffffffffff021916908373ffffffffffffffffffffffffffffffffffffffff1602179055505050505b600080815480929190610568906113b7565b919050555050505050565b6001818154811061058357600080fd5b90600052602060002090600702016000915090508060000154908060010180546105ac9061142f565b80601f01602080910402602001604051908101604052809291908181526020018280546105d89061142f565b80156106255780601f106105fa57610100808354040283529160200191610625565b820191906000526020600020905b81548152906001019060200180831161060857829003601f168201915b50505050509080600201805461063a9061142f565b80601f01602080910402602001604051908101604052809291908181526020018280546106669061142f565b80156106b35780601f10610688576101008083540402835291602001916106b3565b820191906000526020600020905b81548152906001019060200180831161069657829003601f168201915b5050505050908060030180546106c89061142f565b80601f01602080910402602001604051908101604052809291908181526020018280546106f49061142f565b80156107415780601f1061071657610100808354040283529160200191610741565b820191906000526020600020905b81548152906001019060200180831161072457829003601f168201915b5050505050908060040154908060050160009054906101000a900473ffffffffffffffffffffffffffffffffffffffff16908060060160009054906101000a900473ffffffffffffffffffffffffffffffffffffffff16905087565b60005481565b60006060806060600080600080600090505b600180549050811015610b015788600182815481106107d7576107d6611461565b5b9060005260206000209060070201600001541415610aee576001818154811061080357610802611461565b5b9060005260206000209060070201600001546001828154811061082957610828611461565b5b90600052602060002090600702016001016001838154811061084e5761084d611461565b5b90600052602060002090600702016002016001848154811061087357610872611461565b5b90600052602060002090600702016003016001858154811061089857610897611461565b5b906000526020600020906007020160040154600186815481106108be576108bd611461565b5b906000526020600020906007020160050160009054906101000a900473ffffffffffffffffffffffffffffffffffffffff166001878154811061090457610903611461565b5b906000526020600020906007020160060160009054906101000a900473ffffffffffffffffffffffffffffffffffffffff168580546109429061142f565b80601f016020809104026020016040519081016040528092919081815260200182805461096e9061142f565b80156109bb5780601f10610990576101008083540402835291602001916109bb565b820191906000526020600020905b81548152906001019060200180831161099e57829003601f168201915b505050505095508480546109ce9061142f565b80601f01602080910402602001604051908101604052809291908181526020018280546109fa9061142f565b8015610a475780601f10610a1c57610100808354040283529160200191610a47565b820191906000526020600020905b815481529060010190602001808311610a2a57829003601f168201915b50505050509450838054610a5a9061142f565b80601f0160208091040260200160405190810160405280929190818152602001828054610a869061142f565b8015610ad35780601f10610aa857610100808354040283529160200191610ad3565b820191906000526020600020905b815481529060010190602001808311610ab657829003601f168201915b50505050509350975097509750975097509750975050610b03565b8080610af9906113b7565b9150506107b5565b505b919395979092949650565b60608060005b600180549050811015610bc75760018181548110610b3557610b34611461565b5b906000526020600020906007020160060160009054906101000a900473ffffffffffffffffffffffffffffffffffffffff16828281518110610b7a57610b79611461565b5b602002602001019073ffffffffffffffffffffffffffffffffffffffff16908173ffffffffffffffffffffffffffffffffffffffff16815250508080610bbf906113b7565b915050610b14565b508091505090565b6000600180549050905090565b34670de0b6b3a764000060018381548110610bfa57610bf9611461565b5b906000526020600020906007020160040154610c169190611490565b1115610c2157600080fd5b60018181548110610c3557610c34611461565b5b906000526020600020906007020160050160009054906101000a900473ffffffffffffffffffffffffffffffffffffffff1673ffffffffffffffffffffffffffffffffffffffff166108fc349081150290604051600060405180830381858888f19350505050158015610cac573d6000803e3d6000fd5b5060005b600180549050811015610d67578160018281548110610cd257610cd1611461565b5b9060005260206000209060070201600001541415610d54573360018281548110610cff57610cfe611461565b5b906000526020600020906007020160060160006101000a81548173ffffffffffffffffffffffffffffffffffffffff021916908373ffffffffffffffffffffffffffffffffffffffff16021790555050610d69565b8080610d5f906113b7565b915050610cb0565b505b50565b828054610d789061142f565b90600052602060002090601f016020900481019282610d9a5760008555610de1565b82601f10610db357805160ff1916838001178555610de1565b82800160010185558215610de1579182015b82811115610de0578251825591602001919060010190610dc5565b5b509050610dee9190610df2565b5090565b5b80821115610e0b576000816000905550600101610df3565b5090565b6000604051905090565b600080fd5b600080fd5b600080fd5b600080fd5b6000601f19601f8301169050919050565b7f4e487b7100000000000000000000000000000000000000000000000000000000600052604160045260246000fd5b610e7682610e2d565b810181811067ffffffffffffffff82111715610e9557610e94610e3e565b5b80604052505050565b6000610ea8610e0f565b9050610eb48282610e6d565b919050565b600067ffffffffffffffff821115610ed457610ed3610e3e565b5b610edd82610e2d565b9050602081019050919050565b82818337600083830152505050565b6000610f0c610f0784610eb9565b610e9e565b905082815260208101848484011115610f2857610f27610e28565b5b610f33848285610eea565b509392505050565b600082601f830112610f5057610f4f610e23565b5b8135610f60848260208601610ef9565b91505092915050565b6000819050919050565b610f7c81610f69565b8114610f8757600080fd5b50565b600081359050610f9981610f73565b92915050565b60008060008060808587031215610fb957610fb8610e19565b5b600085013567ffffffffffffffff811115610fd757610fd6610e1e565b5b610fe387828801610f3b565b945050602085013567ffffffffffffffff81111561100457611003610e1e565b5b61101087828801610f3b565b935050604085013567ffffffffffffffff81111561103157611030610e1e565b5b61103d87828801610f3b565b925050606061104e87828801610f8a565b91505092959194509250565b6000602082840312156110705761106f610e19565b5b600061107e84828501610f8a565b91505092915050565b61109081610f69565b82525050565b600081519050919050565b600082825260208201905092915050565b60005b838110156110d05780820151818401526020810190506110b5565b838111156110df576000848401525b50505050565b60006110f082611096565b6110fa81856110a1565b935061110a8185602086016110b2565b61111381610e2d565b840191505092915050565b600073ffffffffffffffffffffffffffffffffffffffff82169050919050565b60006111498261111e565b9050919050565b6111598161113e565b82525050565b600060e082019050611174600083018a611087565b818103602083015261118681896110e5565b9050818103604083015261119a81886110e5565b905081810360608301526111ae81876110e5565b90506111bd6080830186611087565b6111ca60a0830185611150565b6111d760c0830184611150565b98975050505050505050565b60006020820190506111f86000830184611087565b92915050565b600081519050919050565b600082825260208201905092915050565b6000819050602082019050919050565b6112338161113e565b82525050565b6000611245838361122a565b60208301905092915050565b6000602082019050919050565b6000611269826111fe565b6112738185611209565b935061127e8361121a565b8060005b838110156112af5781516112968882611239565b97506112a183611251565b925050600181019050611282565b5085935050505092915050565b600060208201905081810360008301526112d6818461125e565b905092915050565b600081905092915050565b7f696d616765732f00000000000000000000000000000000000000000000000000600082015250565b600061131f6007836112de565b915061132a826112e9565b600782019050919050565b600061134082611096565b61134a81856112de565b935061135a8185602086016110b2565b80840191505092915050565b600061137182611312565b915061137d8284611335565b915081905092915050565b7f4e487b7100000000000000000000000000000000000000000000000000000000600052601160045260246000fd5b60006113c282610f69565b91507fffffffffffffffffffffffffffffffffffffffffffffffffffffffffffffffff8214156113f5576113f4611388565b5b600182019050919050565b7f4e487b7100000000000000000000000000000000000000000000000000000000600052602260045260246000fd5b6000600282049050600182168061144757607f821691505b6020821081141561145b5761145a611400565b5b50919050565b7f4e487b7100000000000000000000000000000000000000000000000000000000600052603260045260246000fd5b600061149b82610f69565b91506114a683610f69565b9250817fffffffffffffffffffffffffffffffffffffffffffffffffffffffffffffffff04831182151516156114df576114de611388565b5b82820290509291505056fea264697066735822122030e5c1d28d631cf018d2594e6289a447e15fc3e168f67dc14f423ea5475c3c6c64736f6c634300080a0033",
  "immutableReferences": {},
  "source": "// SPDX-License-Identifier: MIF\r\npragma solidity 0.8.10;\r\n\r\ncontract Adoption {\r\n\r\n  struct Item{\r\n    uint id;\r\n    string name;\r\n    string picture;\r\n    string switches;\r\n    uint price;\r\n    address uploader;\r\n    address owner;\r\n  }\r\nuint public keyboardId = 0;\r\nItem[] public keyboards;\r\n\r\nconstructor(){\r\n  add(\"ID80\",\"ID80.png\",\"BOBA U4T\", 2);\r\n  add(\"The Classic\",\"Classic.png\", \"Cherry MX Brown\", 3);\r\n  add(\"Candy Bar\",\"CandyBar.png\", \"BOBA Gum\", 4);\r\n  add(\"Halo\",\"\",\"Gateron Yellow\", 5);\r\n}\r\n\r\nfunction add(string memory name, string memory picture, string memory switches, uint price) public{\r\n  if(keccak256(bytes(picture)) == keccak256(bytes(\"\"))){\r\n    keyboards.push(Item(keyboardId, name, \"images/notUploaded.png\", switches, price, msg.sender, address(0)));\r\n  }else{\r\n    string memory fullString = string(abi.encodePacked(\"images/\", picture));\r\n    keyboards.push(Item(keyboardId, name, fullString, switches, price, msg.sender, address(0)));\r\n  }\r\n  keyboardId++;\r\n}\r\n\r\nfunction get(uint id) public view returns (uint thisKeyboardId, string memory name, string memory picture, string memory switches, uint price, address uploader, address owner){\r\n    for(uint i = 0; i < keyboards.length; i++){\r\n      if(keyboards[i].id == id){\r\n        return (keyboards[i].id, keyboards[i].name, keyboards[i].picture, keyboards[i].switches, keyboards[i].price, keyboards[i].uploader, keyboards[i].owner);\r\n      }\r\n    }\r\n  }\r\n\r\n// Buying a keyboard\r\nfunction buy(uint id) public payable{\r\n  require(keyboards[id].price * 1 ether <= msg.value);\r\n\r\n  payable(keyboards[id].uploader).transfer(msg.value);\r\n  for(uint i = 0; i < keyboards.length; i++){\r\n      if (keyboards[i].id == id) {\r\n        keyboards[i].owner = msg.sender;\r\n        return;\r\n      }\r\n}\r\n}\r\n\r\nfunction getOwners() public view returns(address[] memory){\r\n  address[] memory arrayOfOwners;\r\n\r\n  for(uint i = 0; i < keyboards.length; i++){\r\n    arrayOfOwners[i] = keyboards[i].owner;\r\n  } \r\n  return(arrayOfOwners);\r\n}\r\n\r\nfunction getKeyboardsAmount() public view returns (uint256 length){\r\n  return keyboards.length;\r\n}\r\n\r\n}",
  "sourcePath": "C:\\Users\\matol\\OneDrive\\Documents\\GitHub\\KeyboardShop\\contracts\\Adoption.sol",
  "compiler": {
    "name": "solc",
    "version": "0.8.10+commit.fc410830.Emscripten.clang"
  },
  "schemaVersion": "3.4.3",
  "updatedAt": "2021-12-16T16:03:59.385Z",
  "networkType": "ethereum",
  "devdoc": {
    "kind": "dev",
    "methods": {},
    "version": 1
  },
  "userdoc": {
    "kind": "user",
    "methods": {},
    "version": 1
  }
}