{
  "contractName": "Adoption",
  "abi": [
    {
      "inputs": [],
      "stateMutability": "nonpayable",
      "type": "constructor"
    },
    {
      "inputs": [],
      "name": "keyboardId",
      "outputs": [
        {
          "internalType": "uint256",
          "name": "",
          "type": "uint256"
        }
      ],
      "stateMutability": "view",
      "type": "function",
      "constant": true
    },
    {
      "inputs": [
        {
          "internalType": "uint256",
          "name": "",
          "type": "uint256"
        }
      ],
      "name": "keyboards",
      "outputs": [
        {
          "internalType": "uint256",
          "name": "id",
          "type": "uint256"
        },
        {
          "internalType": "string",
          "name": "name",
          "type": "string"
        },
        {
          "internalType": "string",
          "name": "picture",
          "type": "string"
        },
        {
          "internalType": "string",
          "name": "switches",
          "type": "string"
        },
        {
          "internalType": "uint256",
          "name": "price",
          "type": "uint256"
        },
        {
          "internalType": "address",
          "name": "uploader",
          "type": "address"
        },
        {
          "internalType": "address",
          "name": "owner",
          "type": "address"
        }
      ],
      "stateMutability": "view",
      "type": "function",
      "constant": true
    },
    {
      "inputs": [
        {
          "internalType": "string",
          "name": "name",
          "type": "string"
        },
        {
          "internalType": "string",
          "name": "picture",
          "type": "string"
        },
        {
          "internalType": "string",
          "name": "switches",
          "type": "string"
        },
        {
          "internalType": "uint256",
          "name": "price",
          "type": "uint256"
        }
      ],
      "name": "add",
      "outputs": [],
      "stateMutability": "nonpayable",
      "type": "function"
    },
    {
      "inputs": [
        {
          "internalType": "uint256",
          "name": "id",
          "type": "uint256"
        }
      ],
      "name": "get",
      "outputs": [
        {
          "internalType": "uint256",
          "name": "thisKeyboardId",
          "type": "uint256"
        },
        {
          "internalType": "string",
          "name": "name",
          "type": "string"
        },
        {
          "internalType": "string",
          "name": "picture",
          "type": "string"
        },
        {
          "internalType": "string",
          "name": "switches",
          "type": "string"
        },
        {
          "internalType": "uint256",
          "name": "price",
          "type": "uint256"
        },
        {
          "internalType": "address",
          "name": "uploader",
          "type": "address"
        },
        {
          "internalType": "address",
          "name": "owner",
          "type": "address"
        }
      ],
      "stateMutability": "view",
      "type": "function",
      "constant": true
    },
    {
      "inputs": [
        {
          "internalType": "uint256",
          "name": "id",
          "type": "uint256"
        }
      ],
      "name": "buy",
      "outputs": [],
      "stateMutability": "payable",
      "type": "function",
      "payable": true
    },
    {
      "inputs": [
        {
          "internalType": "uint256",
          "name": "id",
          "type": "uint256"
        }
      ],
      "name": "deleteKeyboard",
      "outputs": [],
      "stateMutability": "nonpayable",
      "type": "function"
    },
    {
      "inputs": [
        {
          "internalType": "uint256",
          "name": "id",
          "type": "uint256"
        }
      ],
      "name": "sellKeyboard",
      "outputs": [],
      "stateMutability": "nonpayable",
      "type": "function"
    },
    {
      "inputs": [
        {
          "internalType": "uint256",
          "name": "id",
          "type": "uint256"
        },
        {
          "internalType": "string",
          "name": "name",
          "type": "string"
        },
        {
          "internalType": "string",
          "name": "switches",
          "type": "string"
        },
        {
          "internalType": "uint256",
          "name": "price",
          "type": "uint256"
        },
        {
          "internalType": "string",
          "name": "picture",
          "type": "string"
        }
      ],
      "name": "editKeyboard",
      "outputs": [],
      "stateMutability": "nonpayable",
      "type": "function"
    },
    {
      "inputs": [],
      "name": "getOwners",
      "outputs": [
        {
          "internalType": "address[]",
          "name": "",
          "type": "address[]"
        }
      ],
      "stateMutability": "view",
      "type": "function",
      "constant": true
    },
    {
      "inputs": [],
      "name": "getKeyboardsAmount",
      "outputs": [
        {
          "internalType": "uint256",
          "name": "length",
          "type": "uint256"
        }
      ],
      "stateMutability": "view",
      "type": "function",
      "constant": true
    }
  ],
  "bytecode": "0x6080604052600080553480156200001557600080fd5b50620000ca6040518060400160405280600481526020017f49443830000000000000000000000000000000000000000000000000000000008152506040518060400160405280600f81526020017f696d616765732f494438302e706e6700000000000000000000000000000000008152506040518060400160405280600881526020017f424f4241205534540000000000000000000000000000000000000000000000008152506002620002c660201b60201c565b6200017e6040518060400160405280600b81526020017f54686520436c61737369630000000000000000000000000000000000000000008152506040518060400160405280601281526020017f696d616765732f436c61737369632e706e6700000000000000000000000000008152506040518060400160405280600f81526020017f436865727279204d582042726f776e00000000000000000000000000000000008152506003620002c660201b60201c565b620002326040518060400160405280600981526020017f43616e64792042617200000000000000000000000000000000000000000000008152506040518060400160405280601381526020017f696d616765732f43616e64794261722e706e67000000000000000000000000008152506040518060400160405280600881526020017f424f42412047756d0000000000000000000000000000000000000000000000008152506004620002c660201b60201c565b620002c06040518060400160405280600481526020017f48616c6f00000000000000000000000000000000000000000000000000000000815250604051806020016040528060008152506040518060400160405280600e81526020017f47617465726f6e2059656c6c6f770000000000000000000000000000000000008152506005620002c660201b60201c565b6200085e565b60405180602001604052806000815250805190602001208480519060200120141562000325576040518060400160405280600781526020017f6e6f206e616d650000000000000000000000000000000000000000000000000081525093505b604051806020016040528060008152508051906020012083805190602001201415620005145760016040518060e0016040528060005481526020018681526020016040518060400160405280601681526020017f696d616765732f6e6f7455706c6f616465642e706e670000000000000000000081525081526020018481526020018381526020013373ffffffffffffffffffffffffffffffffffffffff168152602001600073ffffffffffffffffffffffffffffffffffffffff16815250908060018154018082558091505060019003906000526020600020906007020160009091909190915060008201518160000155602082015181600101908051906020019062000435929190620006c2565b50604082015181600201908051906020019062000454929190620006c2565b50606082015181600301908051906020019062000473929190620006c2565b506080820151816004015560a08201518160050160006101000a81548173ffffffffffffffffffffffffffffffffffffffff021916908373ffffffffffffffffffffffffffffffffffffffff16021790555060c08201518160060160006101000a81548173ffffffffffffffffffffffffffffffffffffffff021916908373ffffffffffffffffffffffffffffffffffffffff1602179055505050620006a3565b60016040518060e0016040528060005481526020018681526020018581526020018481526020018381526020013373ffffffffffffffffffffffffffffffffffffffff168152602001600073ffffffffffffffffffffffffffffffffffffffff168152509080600181540180825580915050600190039060005260206000209060070201600090919091909150600082015181600001556020820151816001019080519060200190620005c9929190620006c2565b506040820151816002019080519060200190620005e8929190620006c2565b50606082015181600301908051906020019062000607929190620006c2565b506080820151816004015560a08201518160050160006101000a81548173ffffffffffffffffffffffffffffffffffffffff021916908373ffffffffffffffffffffffffffffffffffffffff16021790555060c08201518160060160006101000a81548173ffffffffffffffffffffffffffffffffffffffff021916908373ffffffffffffffffffffffffffffffffffffffff16021790555050505b600080815480929190620006b790620007ab565b919050555050505050565b828054620006d09062000828565b90600052602060002090601f016020900481019282620006f4576000855562000740565b82601f106200070f57805160ff191683800117855562000740565b8280016001018555821562000740579182015b828111156200073f57825182559160200191906001019062000722565b5b5090506200074f919062000753565b5090565b5b808211156200076e57600081600090555060010162000754565b5090565b7f4e487b7100000000000000000000000000000000000000000000000000000000600052601160045260246000fd5b6000819050919050565b6000620007b882620007a1565b91507fffffffffffffffffffffffffffffffffffffffffffffffffffffffffffffffff821415620007ee57620007ed62000772565b5b600182019050919050565b7f4e487b7100000000000000000000000000000000000000000000000000000000600052602260045260246000fd5b600060028204905060018216806200084157607f821691505b60208210811415620008585762000857620007f9565b5b50919050565b611bf4806200086e6000396000f3fe6080604052600436106100915760003560e01c8063a0e67e2b11610059578063a0e67e2b14610199578063b65f10af146101c4578063c6f8fc38146101ed578063d96a094a14610218578063f46d0be41461023457610091565b80632c966c9e146100965780633f647a97146100bf57806356227777146100e857806362d6ea451461012b5780639507d39a14610156575b600080fd5b3480156100a257600080fd5b506100bd60048036038101906100b8919061164e565b61025d565b005b3480156100cb57600080fd5b506100e660048036038101906100e1919061171d565b610488565b005b3480156100f457600080fd5b5061010f600480360381019061010a91906117d8565b610873565b60405161012297969594939291906118dd565b60405180910390f35b34801561013757600080fd5b50610140610a9d565b60405161014d9190611961565b60405180910390f35b34801561016257600080fd5b5061017d600480360381019061017891906117d8565b610aa3565b60405161019097969594939291906118dd565b60405180910390f35b3480156101a557600080fd5b506101ae610e0e565b6040516101bb9190611a3a565b60405180910390f35b3480156101d057600080fd5b506101eb60048036038101906101e691906117d8565b610ecf565b005b3480156101f957600080fd5b506102026110b4565b60405161020f9190611961565b60405180910390f35b610232600480360381019061022d91906117d8565b6110c1565b005b34801561024057600080fd5b5061025b600480360381019061025691906117d8565b611251565b005b60005b60018054905081101561047f573373ffffffffffffffffffffffffffffffffffffffff166001828154811061029857610297611a5c565b5b906000526020600020906007020160060160009054906101000a900473ffffffffffffffffffffffffffffffffffffffff1673ffffffffffffffffffffffffffffffffffffffff16148015610311575085600182815481106102fd576102fc611a5c565b5b906000526020600020906007020160000154145b1561046c57604051806020016040528060008152508051906020012085805190602001201461037557846001828154811061034f5761034e611a5c565b5b906000526020600020906007020160010190805190602001906103739291906113db565b505b60405180602001604052806000815250805190602001208480519060200120146103d45783600182815481106103ae576103ad611a5c565b5b906000526020600020906007020160030190805190602001906103d29291906113db565b505b600083146104075782600182815481106103f1576103f0611a5c565b5b9060005260206000209060070201600401819055505b60405180602001604052806000815250805190602001208280519060200120146104665781600182815481106104405761043f611a5c565b5b906000526020600020906007020160020190805190602001906104649291906113db565b505b50610481565b808061047790611aba565b915050610260565b505b5050505050565b6040518060200160405280600081525080519060200120848051906020012014156104e6576040518060400160405280600781526020017f6e6f206e616d650000000000000000000000000000000000000000000000000081525093505b6040518060200160405280600081525080519060200120838051906020012014156106cd5760016040518060e0016040528060005481526020018681526020016040518060400160405280601681526020017f696d616765732f6e6f7455706c6f616465642e706e670000000000000000000081525081526020018481526020018381526020013373ffffffffffffffffffffffffffffffffffffffff168152602001600073ffffffffffffffffffffffffffffffffffffffff1681525090806001815401808255809150506001900390600052602060002090600702016000909190919091506000820151816000015560208201518160010190805190602001906105f39291906113db565b5060408201518160020190805190602001906106109291906113db565b50606082015181600301908051906020019061062d9291906113db565b506080820151816004015560a08201518160050160006101000a81548173ffffffffffffffffffffffffffffffffffffffff021916908373ffffffffffffffffffffffffffffffffffffffff16021790555060c08201518160060160006101000a81548173ffffffffffffffffffffffffffffffffffffffff021916908373ffffffffffffffffffffffffffffffffffffffff1602179055505050610856565b60016040518060e0016040528060005481526020018681526020018581526020018481526020018381526020013373ffffffffffffffffffffffffffffffffffffffff168152602001600073ffffffffffffffffffffffffffffffffffffffff1681525090806001815401808255809150506001900390600052602060002090600702016000909190919091506000820151816000015560208201518160010190805190602001906107809291906113db565b50604082015181600201908051906020019061079d9291906113db565b5060608201518160030190805190602001906107ba9291906113db565b506080820151816004015560a08201518160050160006101000a81548173ffffffffffffffffffffffffffffffffffffffff021916908373ffffffffffffffffffffffffffffffffffffffff16021790555060c08201518160060160006101000a81548173ffffffffffffffffffffffffffffffffffffffff021916908373ffffffffffffffffffffffffffffffffffffffff16021790555050505b60008081548092919061086890611aba565b919050555050505050565b6001818154811061088357600080fd5b90600052602060002090600702016000915090508060000154908060010180546108ac90611b32565b80601f01602080910402602001604051908101604052809291908181526020018280546108d890611b32565b80156109255780601f106108fa57610100808354040283529160200191610925565b820191906000526020600020905b81548152906001019060200180831161090857829003601f168201915b50505050509080600201805461093a90611b32565b80601f016020809104026020016040519081016040528092919081815260200182805461096690611b32565b80156109b35780601f10610988576101008083540402835291602001916109b3565b820191906000526020600020905b81548152906001019060200180831161099657829003601f168201915b5050505050908060030180546109c890611b32565b80601f01602080910402602001604051908101604052809291908181526020018280546109f490611b32565b8015610a415780601f10610a1657610100808354040283529160200191610a41565b820191906000526020600020905b815481529060010190602001808311610a2457829003601f168201915b5050505050908060040154908060050160009054906101000a900473ffffffffffffffffffffffffffffffffffffffff16908060060160009054906101000a900473ffffffffffffffffffffffffffffffffffffffff16905087565b60005481565b60006060806060600080600080600090505b600180549050811015610e01578860018281548110610ad757610ad6611a5c565b5b9060005260206000209060070201600001541415610dee5760018181548110610b0357610b02611a5c565b5b90600052602060002090600702016000015460018281548110610b2957610b28611a5c565b5b906000526020600020906007020160010160018381548110610b4e57610b4d611a5c565b5b906000526020600020906007020160020160018481548110610b7357610b72611a5c565b5b906000526020600020906007020160030160018581548110610b9857610b97611a5c565b5b90600052602060002090600702016004015460018681548110610bbe57610bbd611a5c565b5b906000526020600020906007020160050160009054906101000a900473ffffffffffffffffffffffffffffffffffffffff1660018781548110610c0457610c03611a5c565b5b906000526020600020906007020160060160009054906101000a900473ffffffffffffffffffffffffffffffffffffffff16858054610c4290611b32565b80601f0160208091040260200160405190810160405280929190818152602001828054610c6e90611b32565b8015610cbb5780601f10610c9057610100808354040283529160200191610cbb565b820191906000526020600020905b815481529060010190602001808311610c9e57829003601f168201915b50505050509550848054610cce90611b32565b80601f0160208091040260200160405190810160405280929190818152602001828054610cfa90611b32565b8015610d475780601f10610d1c57610100808354040283529160200191610d47565b820191906000526020600020905b815481529060010190602001808311610d2a57829003601f168201915b50505050509450838054610d5a90611b32565b80601f0160208091040260200160405190810160405280929190818152602001828054610d8690611b32565b8015610dd35780601f10610da857610100808354040283529160200191610dd3565b820191906000526020600020905b815481529060010190602001808311610db657829003601f168201915b50505050509350975097509750975097509750975050610e03565b8080610df990611aba565b915050610ab5565b505b919395979092949650565b60608060005b600180549050811015610ec75760018181548110610e3557610e34611a5c565b5b906000526020600020906007020160060160009054906101000a900473ffffffffffffffffffffffffffffffffffffffff16828281518110610e7a57610e79611a5c565b5b602002602001019073ffffffffffffffffffffffffffffffffffffffff16908173ffffffffffffffffffffffffffffffffffffffff16815250508080610ebf90611aba565b915050610e14565b508091505090565b60005b6001805490508110156110af573373ffffffffffffffffffffffffffffffffffffffff1660018281548110610f0a57610f09611a5c565b5b906000526020600020906007020160060160009054906101000a900473ffffffffffffffffffffffffffffffffffffffff1673ffffffffffffffffffffffffffffffffffffffff16148015610f8357508160018281548110610f6f57610f6e611a5c565b5b906000526020600020906007020160000154145b1561109c5760018181548110610f9c57610f9b611a5c565b5b906000526020600020906007020160060160009054906101000a900473ffffffffffffffffffffffffffffffffffffffff1660018281548110610fe257610fe1611a5c565b5b906000526020600020906007020160050160006101000a81548173ffffffffffffffffffffffffffffffffffffffff021916908373ffffffffffffffffffffffffffffffffffffffff16021790555060006001828154811061104757611046611a5c565b5b906000526020600020906007020160060160006101000a81548173ffffffffffffffffffffffffffffffffffffffff021916908373ffffffffffffffffffffffffffffffffffffffff160217905550506110b1565b80806110a790611aba565b915050610ed2565b505b50565b6000600180549050905090565b34670de0b6b3a7640000600183815481106110df576110de611a5c565b5b9060005260206000209060070201600401546110fb9190611b64565b111561110657600080fd5b6001818154811061111a57611119611a5c565b5b906000526020600020906007020160050160009054906101000a900473ffffffffffffffffffffffffffffffffffffffff1673ffffffffffffffffffffffffffffffffffffffff166108fc349081150290604051600060405180830381858888f19350505050158015611191573d6000803e3d6000fd5b5060005b60018054905081101561124c5781600182815481106111b7576111b6611a5c565b5b90600052602060002090600702016000015414156112395733600182815481106111e4576111e3611a5c565b5b906000526020600020906007020160060160006101000a81548173ffffffffffffffffffffffffffffffffffffffff021916908373ffffffffffffffffffffffffffffffffffffffff1602179055505061124e565b808061124490611aba565b915050611195565b505b50565b60005b6001805490508110156113d6573373ffffffffffffffffffffffffffffffffffffffff166001828154811061128c5761128b611a5c565b5b906000526020600020906007020160060160009054906101000a900473ffffffffffffffffffffffffffffffffffffffff1673ffffffffffffffffffffffffffffffffffffffff16148015611305575081600182815481106112f1576112f0611a5c565b5b906000526020600020906007020160000154145b156113c3576001818154811061131e5761131d611a5c565b5b90600052602060002090600702016000808201600090556001820160006113459190611461565b6002820160006113559190611461565b6003820160006113659190611461565b60048201600090556005820160006101000a81549073ffffffffffffffffffffffffffffffffffffffff02191690556006820160006101000a81549073ffffffffffffffffffffffffffffffffffffffff02191690555050506113d8565b80806113ce90611aba565b915050611254565b505b50565b8280546113e790611b32565b90600052602060002090601f0160209004810192826114095760008555611450565b82601f1061142257805160ff1916838001178555611450565b82800160010185558215611450579182015b8281111561144f578251825591602001919060010190611434565b5b50905061145d91906114a1565b5090565b50805461146d90611b32565b6000825580601f1061147f575061149e565b601f01602090049060005260206000209081019061149d91906114a1565b5b50565b5b808211156114ba5760008160009055506001016114a2565b5090565b6000604051905090565b600080fd5b600080fd5b6000819050919050565b6114e5816114d2565b81146114f057600080fd5b50565b600081359050611502816114dc565b92915050565b600080fd5b600080fd5b6000601f19601f8301169050919050565b7f4e487b7100000000000000000000000000000000000000000000000000000000600052604160045260246000fd5b61155b82611512565b810181811067ffffffffffffffff8211171561157a57611579611523565b5b80604052505050565b600061158d6114be565b90506115998282611552565b919050565b600067ffffffffffffffff8211156115b9576115b8611523565b5b6115c282611512565b9050602081019050919050565b82818337600083830152505050565b60006115f16115ec8461159e565b611583565b90508281526020810184848401111561160d5761160c61150d565b5b6116188482856115cf565b509392505050565b600082601f83011261163557611634611508565b5b81356116458482602086016115de565b91505092915050565b600080600080600060a0868803121561166a576116696114c8565b5b6000611678888289016114f3565b955050602086013567ffffffffffffffff811115611699576116986114cd565b5b6116a588828901611620565b945050604086013567ffffffffffffffff8111156116c6576116c56114cd565b5b6116d288828901611620565b93505060606116e3888289016114f3565b925050608086013567ffffffffffffffff811115611704576117036114cd565b5b61171088828901611620565b9150509295509295909350565b60008060008060808587031215611737576117366114c8565b5b600085013567ffffffffffffffff811115611755576117546114cd565b5b61176187828801611620565b945050602085013567ffffffffffffffff811115611782576117816114cd565b5b61178e87828801611620565b935050604085013567ffffffffffffffff8111156117af576117ae6114cd565b5b6117bb87828801611620565b92505060606117cc878288016114f3565b91505092959194509250565b6000602082840312156117ee576117ed6114c8565b5b60006117fc848285016114f3565b91505092915050565b61180e816114d2565b82525050565b600081519050919050565b600082825260208201905092915050565b60005b8381101561184e578082015181840152602081019050611833565b8381111561185d576000848401525b50505050565b600061186e82611814565b611878818561181f565b9350611888818560208601611830565b61189181611512565b840191505092915050565b600073ffffffffffffffffffffffffffffffffffffffff82169050919050565b60006118c78261189c565b9050919050565b6118d7816118bc565b82525050565b600060e0820190506118f2600083018a611805565b81810360208301526119048189611863565b905081810360408301526119188188611863565b9050818103606083015261192c8187611863565b905061193b6080830186611805565b61194860a08301856118ce565b61195560c08301846118ce565b98975050505050505050565b60006020820190506119766000830184611805565b92915050565b600081519050919050565b600082825260208201905092915050565b6000819050602082019050919050565b6119b1816118bc565b82525050565b60006119c383836119a8565b60208301905092915050565b6000602082019050919050565b60006119e78261197c565b6119f18185611987565b93506119fc83611998565b8060005b83811015611a2d578151611a1488826119b7565b9750611a1f836119cf565b925050600181019050611a00565b5085935050505092915050565b60006020820190508181036000830152611a5481846119dc565b905092915050565b7f4e487b7100000000000000000000000000000000000000000000000000000000600052603260045260246000fd5b7f4e487b7100000000000000000000000000000000000000000000000000000000600052601160045260246000fd5b6000611ac5826114d2565b91507fffffffffffffffffffffffffffffffffffffffffffffffffffffffffffffffff821415611af857611af7611a8b565b5b600182019050919050565b7f4e487b7100000000000000000000000000000000000000000000000000000000600052602260045260246000fd5b60006002820490506001821680611b4a57607f821691505b60208210811415611b5e57611b5d611b03565b5b50919050565b6000611b6f826114d2565b9150611b7a836114d2565b9250817fffffffffffffffffffffffffffffffffffffffffffffffffffffffffffffffff0483118215151615611bb357611bb2611a8b565b5b82820290509291505056fea2646970667358221220d76dcf6a08ad026f655d0d519d1faaee0f0ddfdee23aa3e7e2c784d72b2cbb9664736f6c634300080a0033",
  "immutableReferences": {},
  "source": "// SPDX-License-Identifier: MIF\r\npragma solidity 0.8.10;\r\n\r\ncontract Adoption {\r\n\r\n  struct Item{\r\n    uint id;\r\n    string name;\r\n    string picture;\r\n    string switches;\r\n    uint price;\r\n    address uploader;\r\n    address owner;\r\n  }\r\nuint public keyboardId = 0;\r\nItem[] public keyboards;\r\n\r\nconstructor(){\r\n  add(\"ID80\",\"images/ID80.png\",\"BOBA U4T\", 2);\r\n  add(\"The Classic\",\"images/Classic.png\", \"Cherry MX Brown\", 3);\r\n  add(\"Candy Bar\",\"images/CandyBar.png\", \"BOBA Gum\", 4);\r\n  add(\"Halo\",\"\",\"Gateron Yellow\", 5);\r\n}\r\n\r\n//adding a keyboard to the list of keyboards\r\nfunction add(string memory name, string memory picture, string memory switches, uint price) public{\r\n  if(keccak256(bytes(name)) == keccak256(bytes(\"\"))){name = \"no name\";}\r\n\r\n  if(keccak256(bytes(picture)) == keccak256(bytes(\"\"))){\r\n    keyboards.push(Item(keyboardId, name, \"images/notUploaded.png\", switches, price, msg.sender, address(0)));\r\n  }else{\r\n    keyboards.push(Item(keyboardId, name, picture, switches, price, msg.sender, address(0)));\r\n  }\r\n  keyboardId++;\r\n}\r\n\r\n//getting a keyboard by id\r\nfunction get(uint id) public view returns (uint thisKeyboardId, string memory name, string memory picture, string memory switches, uint price, address uploader, address owner){\r\n    for(uint i = 0; i < keyboards.length; i++){\r\n      if(keyboards[i].id == id){\r\n        return (keyboards[i].id, keyboards[i].name, keyboards[i].picture, keyboards[i].switches, keyboards[i].price, keyboards[i].uploader, keyboards[i].owner);\r\n      }\r\n    }\r\n  }\r\n\r\n// Buying a keyboard\r\nfunction buy(uint id) public payable{\r\n  require(keyboards[id].price * 1 ether <= msg.value);\r\n\r\n  payable(keyboards[id].uploader).transfer(msg.value);\r\n  for(uint i = 0; i < keyboards.length; i++){\r\n      if (keyboards[i].id == id) {\r\n        keyboards[i].owner = msg.sender;\r\n        return;\r\n      }\r\n}\r\n}\r\n\r\n//deleting an owned keyboard\r\nfunction deleteKeyboard(uint id) public{\r\n  for(uint i = 0; i < keyboards.length; i++){\r\n    if(keyboards[i].owner == msg.sender && keyboards[i].id == id){\r\n      delete keyboards[i];\r\n      return;\r\n    }\r\n  }\r\n}\r\n\r\n//selling an owned keyboard\r\nfunction sellKeyboard(uint id) public{\r\n  for(uint i = 0; i < keyboards.length; i++){\r\n    if(keyboards[i].owner == msg.sender && keyboards[i].id == id){\r\n      keyboards[i].uploader = keyboards[i].owner;\r\n      keyboards[i].owner = address(0);\r\n      return;\r\n    }\r\n  }\r\n}\r\n\r\n//editing a keyboard (able to edit even if not all of the values are given)\r\nfunction editKeyboard(uint id, string memory name, string memory switches, uint price, string memory picture) public{\r\n  for(uint i = 0; i < keyboards.length; i++){\r\n    if(keyboards[i].owner == msg.sender && keyboards[i].id == id){\r\n      if(keccak256(bytes(name)) != keccak256(bytes(\"\"))){keyboards[i].name = name;}\r\n      if(keccak256(bytes(switches)) != keccak256(bytes(\"\"))){keyboards[i].switches = switches;}\r\n      if(price != 0){keyboards[i].price = price;}\r\n      if(keccak256(bytes(picture)) != keccak256(bytes(\"\"))){keyboards[i].picture = picture;}\r\n      \r\n      return;\r\n    }\r\n  }\r\n}\r\n\r\nfunction getOwners() public view returns(address[] memory){\r\n  address[] memory arrayOfOwners;\r\n\r\n  for(uint i = 0; i < keyboards.length; i++){\r\n    arrayOfOwners[i] = keyboards[i].owner;\r\n  } \r\n  return(arrayOfOwners);\r\n}\r\n\r\nfunction getKeyboardsAmount() public view returns (uint256 length){\r\n  return keyboards.length;\r\n}\r\n\r\n}",
  "sourcePath": "C:\\Users\\matol\\OneDrive\\Documents\\GitHub\\KeyboardShop\\contracts\\Adoption.sol",
  "compiler": {
    "name": "solc",
    "version": "0.8.10+commit.fc410830.Emscripten.clang"
  },
  "schemaVersion": "3.4.3",
  "updatedAt": "2021-12-18T14:19:34.174Z",
  "networkType": "ethereum",
  "devdoc": {
    "kind": "dev",
    "methods": {},
    "version": 1
  },
  "userdoc": {
    "kind": "user",
    "methods": {},
    "version": 1
  }
}