{
  "contractName": "Adoption",
  "abi": [
    {
      "inputs": [],
      "stateMutability": "nonpayable",
      "type": "constructor"
    },
    {
      "inputs": [
        {
          "internalType": "uint256",
          "name": "",
          "type": "uint256"
        }
      ],
      "name": "arrayForItems",
      "outputs": [
        {
          "internalType": "uint256",
          "name": "",
          "type": "uint256"
        }
      ],
      "stateMutability": "view",
      "type": "function",
      "constant": true
    },
    {
      "inputs": [],
      "name": "keyboardCount",
      "outputs": [
        {
          "internalType": "uint256",
          "name": "",
          "type": "uint256"
        }
      ],
      "stateMutability": "view",
      "type": "function",
      "constant": true
    },
    {
      "inputs": [],
      "name": "keyboardId",
      "outputs": [
        {
          "internalType": "uint256",
          "name": "",
          "type": "uint256"
        }
      ],
      "stateMutability": "view",
      "type": "function",
      "constant": true
    },
    {
      "inputs": [
        {
          "internalType": "uint256",
          "name": "",
          "type": "uint256"
        }
      ],
      "name": "keyboards",
      "outputs": [
        {
          "internalType": "string",
          "name": "name",
          "type": "string"
        },
        {
          "internalType": "string",
          "name": "picture",
          "type": "string"
        },
        {
          "internalType": "string",
          "name": "keycaps",
          "type": "string"
        },
        {
          "internalType": "string",
          "name": "ffactor",
          "type": "string"
        },
        {
          "internalType": "string",
          "name": "switches",
          "type": "string"
        }
      ],
      "stateMutability": "view",
      "type": "function",
      "constant": true
    },
    {
      "inputs": [
        {
          "internalType": "uint256",
          "name": "",
          "type": "uint256"
        }
      ],
      "name": "owners",
      "outputs": [
        {
          "internalType": "address",
          "name": "",
          "type": "address"
        }
      ],
      "stateMutability": "view",
      "type": "function",
      "constant": true
    },
    {
      "inputs": [
        {
          "internalType": "uint256",
          "name": "petId",
          "type": "uint256"
        }
      ],
      "name": "adopt",
      "outputs": [
        {
          "internalType": "uint256",
          "name": "",
          "type": "uint256"
        }
      ],
      "stateMutability": "nonpayable",
      "type": "function"
    },
    {
      "inputs": [],
      "name": "getAdopters",
      "outputs": [
        {
          "internalType": "address[4]",
          "name": "",
          "type": "address[4]"
        }
      ],
      "stateMutability": "view",
      "type": "function",
      "constant": true
    }
  ],
  "bytecode": "0x6080604052600080553480156200001557600080fd5b50620001346040518060400160405280600481526020017f49443830000000000000000000000000000000000000000000000000000000008152506040518060400160405280600f81526020017f696d616765732f494438302e706e6700000000000000000000000000000000008152506040518060400160405280600581526020017f4c617365720000000000000000000000000000000000000000000000000000008152506040518060400160405280600381526020017f37352500000000000000000000000000000000000000000000000000000000008152506040518060400160405280600881526020017f424f4241205534540000000000000000000000000000000000000000000000008152506200049460201b60201c565b620002526040518060400160405280600b81526020017f54686520436c61737369630000000000000000000000000000000000000000008152506040518060400160405280601281526020017f696d616765732f436c61737369632e706e6700000000000000000000000000008152506040518060400160405280600981526020017f426f74616e6963616c00000000000000000000000000000000000000000000008152506040518060400160405280600381526020017f36352500000000000000000000000000000000000000000000000000000000008152506040518060400160405280600f81526020017f436865727279204d582042726f776e00000000000000000000000000000000008152506200049460201b60201c565b620003706040518060400160405280600981526020017f43616e64792042617200000000000000000000000000000000000000000000008152506040518060400160405280601381526020017f696d616765732f43616e64794261722e706e67000000000000000000000000008152506040518060400160405280600981526020017f56696c65426c6f6f6d00000000000000000000000000000000000000000000008152506040518060400160405280600381526020017f35302500000000000000000000000000000000000000000000000000000000008152506040518060400160405280600881526020017f424f42412047756d0000000000000000000000000000000000000000000000008152506200049460201b60201c565b6200048e6040518060400160405280600481526020017f48616c6f000000000000000000000000000000000000000000000000000000008152506040518060400160405280601381526020017f696d616765732f43616e64794261722e706e67000000000000000000000000008152506040518060400160405280600481526020017f48616c6f000000000000000000000000000000000000000000000000000000008152506040518060400160405280600381526020017f39362500000000000000000000000000000000000000000000000000000000008152506040518060400160405280600e81526020017f47617465726f6e2059656c6c6f770000000000000000000000000000000000008152506200049460201b60201c565b6200077d565b6040518060a001604052808681526020018581526020018481526020018381526020018281525060056000805481526020019081526020016000206000820151816000019080519060200190620004ed929190620005e1565b5060208201518160010190805190602001906200050c929190620005e1565b5060408201518160020190805190602001906200052b929190620005e1565b5060608201518160030190805190602001906200054a929190620005e1565b50608082015181600401908051906020019062000569929190620005e1565b509050506000600660008054815260200190815260200160002060006101000a81548173ffffffffffffffffffffffffffffffffffffffff021916908373ffffffffffffffffffffffffffffffffffffffff160217905550600080815480929190620005d590620006ca565b91905055505050505050565b828054620005ef9062000747565b90600052602060002090601f0160209004810192826200061357600085556200065f565b82601f106200062e57805160ff19168380011785556200065f565b828001600101855582156200065f579182015b828111156200065e57825182559160200191906001019062000641565b5b5090506200066e919062000672565b5090565b5b808211156200068d57600081600090555060010162000673565b5090565b7f4e487b7100000000000000000000000000000000000000000000000000000000600052601160045260246000fd5b6000819050919050565b6000620006d782620006c0565b91507fffffffffffffffffffffffffffffffffffffffffffffffffffffffffffffffff8214156200070d576200070c62000691565b5b600182019050919050565b7f4e487b7100000000000000000000000000000000000000000000000000000000600052602260045260246000fd5b600060028204905060018216806200076057607f821691505b6020821081141562000777576200077662000718565b5b50919050565b610a25806200078d6000396000f3fe608060405234801561001057600080fd5b506004361061007d5760003560e01c806362d6ea451161005b57806362d6ea45146101045780638588b2c514610122578063d945db0b14610152578063fd313ef5146101825761007d565b8063025e7c27146100825780633de4eb17146100b257806356227777146100d0575b600080fd5b61009c6004803603810190610097919061065f565b6101a0565b6040516100a991906106cd565b60405180910390f35b6100ba6101d3565b6040516100c79190610793565b60405180910390f35b6100ea60048036038101906100e5919061065f565b610288565b6040516100fb959493929190610847565b60405180910390f35b61010c610566565b60405161011991906108cc565b60405180910390f35b61013c6004803603810190610137919061065f565b61056c565b60405161014991906108cc565b60405180910390f35b61016c6004803603810190610167919061065f565b6105e2565b60405161017991906108cc565b60405180910390f35b61018a6105fd565b60405161019791906108cc565b60405180910390f35b60066020528060005260406000206000915054906101000a900473ffffffffffffffffffffffffffffffffffffffff1681565b6101db610602565b6101e3610602565b60005b6004811015610280576006600082815260200190815260200160002060009054906101000a900473ffffffffffffffffffffffffffffffffffffffff16828260048110610236576102356108e7565b5b602002019073ffffffffffffffffffffffffffffffffffffffff16908173ffffffffffffffffffffffffffffffffffffffff1681525050808061027890610945565b9150506101e6565b508091505090565b60056020528060005260406000206000915090508060000180546102ab906109bd565b80601f01602080910402602001604051908101604052809291908181526020018280546102d7906109bd565b80156103245780601f106102f957610100808354040283529160200191610324565b820191906000526020600020905b81548152906001019060200180831161030757829003601f168201915b505050505090806001018054610339906109bd565b80601f0160208091040260200160405190810160405280929190818152602001828054610365906109bd565b80156103b25780601f10610387576101008083540402835291602001916103b2565b820191906000526020600020905b81548152906001019060200180831161039557829003601f168201915b5050505050908060020180546103c7906109bd565b80601f01602080910402602001604051908101604052809291908181526020018280546103f3906109bd565b80156104405780601f1061041557610100808354040283529160200191610440565b820191906000526020600020905b81548152906001019060200180831161042357829003601f168201915b505050505090806003018054610455906109bd565b80601f0160208091040260200160405190810160405280929190818152602001828054610481906109bd565b80156104ce5780601f106104a3576101008083540402835291602001916104ce565b820191906000526020600020905b8154815290600101906020018083116104b157829003601f168201915b5050505050908060040180546104e3906109bd565b80601f016020809104026020016040519081016040528092919081815260200182805461050f906109bd565b801561055c5780601f106105315761010080835404028352916020019161055c565b820191906000526020600020905b81548152906001019060200180831161053f57829003601f168201915b5050505050905085565b60005481565b600080821015801561057f575060048211155b61058857600080fd5b336006600084815260200190815260200160002060006101000a81548173ffffffffffffffffffffffffffffffffffffffff021916908373ffffffffffffffffffffffffffffffffffffffff160217905550819050919050565b600181600481106105f257600080fd5b016000915090505481565b600481565b6040518060800160405280600490602082028036833780820191505090505090565b600080fd5b6000819050919050565b61063c81610629565b811461064757600080fd5b50565b60008135905061065981610633565b92915050565b60006020828403121561067557610674610624565b5b60006106838482850161064a565b91505092915050565b600073ffffffffffffffffffffffffffffffffffffffff82169050919050565b60006106b78261068c565b9050919050565b6106c7816106ac565b82525050565b60006020820190506106e260008301846106be565b92915050565b600060049050919050565b600081905092915050565b6000819050919050565b610711816106ac565b82525050565b60006107238383610708565b60208301905092915050565b6000602082019050919050565b610745816106e8565b61074f81846106f3565b925061075a826106fe565b8060005b8381101561078b5781516107728782610717565b965061077d8361072f565b92505060018101905061075e565b505050505050565b60006080820190506107a8600083018461073c565b92915050565b600081519050919050565b600082825260208201905092915050565b60005b838110156107e85780820151818401526020810190506107cd565b838111156107f7576000848401525b50505050565b6000601f19601f8301169050919050565b6000610819826107ae565b61082381856107b9565b93506108338185602086016107ca565b61083c816107fd565b840191505092915050565b600060a0820190508181036000830152610861818861080e565b90508181036020830152610875818761080e565b90508181036040830152610889818661080e565b9050818103606083015261089d818561080e565b905081810360808301526108b1818461080e565b90509695505050505050565b6108c681610629565b82525050565b60006020820190506108e160008301846108bd565b92915050565b7f4e487b7100000000000000000000000000000000000000000000000000000000600052603260045260246000fd5b7f4e487b7100000000000000000000000000000000000000000000000000000000600052601160045260246000fd5b600061095082610629565b91507fffffffffffffffffffffffffffffffffffffffffffffffffffffffffffffffff82141561098357610982610916565b5b600182019050919050565b7f4e487b7100000000000000000000000000000000000000000000000000000000600052602260045260246000fd5b600060028204905060018216806109d557607f821691505b602082108114156109e9576109e861098e565b5b5091905056fea26469706673582212204dac7fe0e769eecb695581d47f68bfa3516ba0acc95df6039007ad9b5782a59464736f6c634300080a0033",
  "immutableReferences": {},
  "source": "// SPDX-License-Identifier: MIF\r\npragma solidity 0.8.10;\r\n\r\ncontract Adoption {\r\n\r\n  struct Item{\r\n    string name;\r\n    string picture;\r\n    string keycaps;\r\n    string ffactor;\r\n    string switches;\r\n  }\r\nuint public constant keyboardCount = 4;\r\nuint public keyboardId = 0;\r\nuint[keyboardCount] public arrayForItems;\r\n\r\nmapping(uint => Item) public keyboards;\r\nmapping(uint => address) public owners;\r\n\r\nconstructor(){\r\n  add(\"ID80\",\"images/ID80.png\",\"Laser\",\"75%\",\"BOBA U4T\");\r\n  add(\"The Classic\",\"images/Classic.png\",\"Botanical\",\"65%\",\"Cherry MX Brown\");\r\n  add(\"Candy Bar\",\"images/CandyBar.png\",\"VileBloom\",\"50%\",\"BOBA Gum\");\r\n  add(\"Halo\",\"images/CandyBar.png\",\"Halo\",\"96%\",\"Gateron Yellow\");\r\n}\r\n\r\nfunction add(string memory name, string memory picture, string memory keycaps, string memory ffactor, string memory switches) private{\r\n  keyboards[keyboardId] = Item(name, picture, keycaps, ffactor, switches);\r\n  owners[keyboardId] = address(0);\r\n  keyboardId++;\r\n}\r\n\r\n// Adopting a pet\r\nfunction adopt(uint petId) public returns (uint) {\r\n  require(petId >= 0 && petId <= keyboardCount);\r\n\r\n  owners[petId] = msg.sender;\r\n\r\n  return petId;\r\n}\r\n\r\n// Retrieving the adopters\r\nfunction getAdopters() public view returns (address[keyboardCount] memory) {\r\n  address[keyboardCount] memory arrayOfOwners;\r\n\r\n  for (uint i=0;i < keyboardCount; i++) {\r\n\t\t\tarrayOfOwners[i] = owners[i];\r\n\t\t}\r\n\r\n  return arrayOfOwners;\r\n}\r\n\r\n}",
  "sourcePath": "C:\\Users\\matol\\OneDrive\\Documents\\GitHub\\KeyboardShop\\contracts\\Adoption.sol",
  "compiler": {
    "name": "solc",
    "version": "0.8.10+commit.fc410830.Emscripten.clang"
  },
  "schemaVersion": "3.4.3",
  "updatedAt": "2021-12-15T20:21:13.913Z",
  "networkType": "ethereum",
  "devdoc": {
    "kind": "dev",
    "methods": {},
    "version": 1
  },
  "userdoc": {
    "kind": "user",
    "methods": {},
    "version": 1
  }
}