{
  "contractName": "Adoption",
  "abi": [
    {
      "inputs": [],
      "stateMutability": "nonpayable",
      "type": "constructor"
    },
    {
      "inputs": [],
      "name": "keyboardId",
      "outputs": [
        {
          "internalType": "uint256",
          "name": "",
          "type": "uint256"
        }
      ],
      "stateMutability": "view",
      "type": "function",
      "constant": true
    },
    {
      "inputs": [
        {
          "internalType": "uint256",
          "name": "",
          "type": "uint256"
        }
      ],
      "name": "keyboards",
      "outputs": [
        {
          "internalType": "uint256",
          "name": "id",
          "type": "uint256"
        },
        {
          "internalType": "string",
          "name": "name",
          "type": "string"
        },
        {
          "internalType": "string",
          "name": "picture",
          "type": "string"
        },
        {
          "internalType": "string",
          "name": "switches",
          "type": "string"
        },
        {
          "internalType": "uint256",
          "name": "price",
          "type": "uint256"
        },
        {
          "internalType": "address",
          "name": "uploader",
          "type": "address"
        },
        {
          "internalType": "address",
          "name": "owner",
          "type": "address"
        }
      ],
      "stateMutability": "view",
      "type": "function",
      "constant": true
    },
    {
      "inputs": [
        {
          "internalType": "uint256",
          "name": "id",
          "type": "uint256"
        }
      ],
      "name": "get",
      "outputs": [
        {
          "internalType": "uint256",
          "name": "thisKeyboardId",
          "type": "uint256"
        },
        {
          "internalType": "string",
          "name": "name",
          "type": "string"
        },
        {
          "internalType": "string",
          "name": "picture",
          "type": "string"
        },
        {
          "internalType": "string",
          "name": "switches",
          "type": "string"
        },
        {
          "internalType": "uint256",
          "name": "price",
          "type": "uint256"
        },
        {
          "internalType": "address",
          "name": "uploader",
          "type": "address"
        },
        {
          "internalType": "address",
          "name": "owner",
          "type": "address"
        }
      ],
      "stateMutability": "view",
      "type": "function",
      "constant": true
    },
    {
      "inputs": [
        {
          "internalType": "uint256",
          "name": "id",
          "type": "uint256"
        }
      ],
      "name": "buy",
      "outputs": [],
      "stateMutability": "payable",
      "type": "function",
      "payable": true
    },
    {
      "inputs": [],
      "name": "getOwners",
      "outputs": [
        {
          "internalType": "address[]",
          "name": "",
          "type": "address[]"
        }
      ],
      "stateMutability": "view",
      "type": "function",
      "constant": true
    },
    {
      "inputs": [],
      "name": "getKeyboardsAmount",
      "outputs": [
        {
          "internalType": "uint256",
          "name": "length",
          "type": "uint256"
        }
      ],
      "stateMutability": "view",
      "type": "function",
      "constant": true
    }
  ],
  "bytecode": "0x6080604052600080553480156200001557600080fd5b50620000ca6040518060400160405280600481526020017f49443830000000000000000000000000000000000000000000000000000000008152506040518060400160405280600881526020017f494438302e706e670000000000000000000000000000000000000000000000008152506040518060400160405280600881526020017f424f4241205534540000000000000000000000000000000000000000000000008152506002620002c660201b60201c565b6200017e6040518060400160405280600b81526020017f54686520436c61737369630000000000000000000000000000000000000000008152506040518060400160405280600b81526020017f436c61737369632e706e670000000000000000000000000000000000000000008152506040518060400160405280600f81526020017f436865727279204d582042726f776e00000000000000000000000000000000008152506003620002c660201b60201c565b620002326040518060400160405280600981526020017f43616e64792042617200000000000000000000000000000000000000000000008152506040518060400160405280600c81526020017f43616e64794261722e706e6700000000000000000000000000000000000000008152506040518060400160405280600881526020017f424f42412047756d0000000000000000000000000000000000000000000000008152506004620002c660201b60201c565b620002c06040518060400160405280600481526020017f48616c6f00000000000000000000000000000000000000000000000000000000815250604051806020016040528060008152506040518060400160405280600e81526020017f47617465726f6e2059656c6c6f770000000000000000000000000000000000008152506005620002c660201b60201c565b6200091f565b604051806020016040528060008152508051906020012083805190602001201415620004b55760016040518060e0016040528060005481526020018681526020016040518060400160405280601681526020017f696d616765732f6e6f7455706c6f616465642e706e670000000000000000000081525081526020018481526020018381526020013373ffffffffffffffffffffffffffffffffffffffff168152602001600073ffffffffffffffffffffffffffffffffffffffff168152509080600181540180825580915050600190039060005260206000209060070201600090919091909150600082015181600001556020820151816001019080519060200190620003d69291906200068a565b506040820151816002019080519060200190620003f59291906200068a565b506060820151816003019080519060200190620004149291906200068a565b506080820151816004015560a08201518160050160006101000a81548173ffffffffffffffffffffffffffffffffffffffff021916908373ffffffffffffffffffffffffffffffffffffffff16021790555060c08201518160060160006101000a81548173ffffffffffffffffffffffffffffffffffffffff021916908373ffffffffffffffffffffffffffffffffffffffff16021790555050506200066b565b600083604051602001620004ca91906200080d565b604051602081830303815290604052905060016040518060e0016040528060005481526020018781526020018381526020018581526020018481526020013373ffffffffffffffffffffffffffffffffffffffff168152602001600073ffffffffffffffffffffffffffffffffffffffff168152509080600181540180825580915050600190039060005260206000209060070201600090919091909150600082015181600001556020820151816001019080519060200190620005909291906200068a565b506040820151816002019080519060200190620005af9291906200068a565b506060820151816003019080519060200190620005ce9291906200068a565b506080820151816004015560a08201518160050160006101000a81548173ffffffffffffffffffffffffffffffffffffffff021916908373ffffffffffffffffffffffffffffffffffffffff16021790555060c08201518160060160006101000a81548173ffffffffffffffffffffffffffffffffffffffff021916908373ffffffffffffffffffffffffffffffffffffffff1602179055505050505b6000808154809291906200067f906200086c565b919050555050505050565b8280546200069890620008e9565b90600052602060002090601f016020900481019282620006bc576000855562000708565b82601f10620006d757805160ff191683800117855562000708565b8280016001018555821562000708579182015b8281111562000707578251825591602001919060010190620006ea565b5b5090506200071791906200071b565b5090565b5b80821115620007365760008160009055506001016200071c565b5090565b600081905092915050565b7f696d616765732f00000000000000000000000000000000000000000000000000600082015250565b60006200077d6007836200073a565b91506200078a8262000745565b600782019050919050565b600081519050919050565b60005b83811015620007c0578082015181840152602081019050620007a3565b83811115620007d0576000848401525b50505050565b6000620007e38262000795565b620007ef81856200073a565b935062000801818560208601620007a0565b80840191505092915050565b60006200081a826200076e565b9150620008288284620007d6565b915081905092915050565b7f4e487b7100000000000000000000000000000000000000000000000000000000600052601160045260246000fd5b6000819050919050565b6000620008798262000862565b91507fffffffffffffffffffffffffffffffffffffffffffffffffffffffffffffffff821415620008af57620008ae62000833565b5b600182019050919050565b7f4e487b7100000000000000000000000000000000000000000000000000000000600052602260045260246000fd5b600060028204905060018216806200090257607f821691505b60208210811415620009195762000918620008ba565b5b50919050565b610dde806200092f6000396000f3fe6080604052600436106100555760003560e01c8063562277771461005a57806362d6ea451461009d5780639507d39a146100c8578063a0e67e2b1461010b578063c6f8fc3814610136578063d96a094a14610161575b600080fd5b34801561006657600080fd5b50610081600480360381019061007c91906109b1565b61017d565b6040516100949796959493929190610ac7565b60405180910390f35b3480156100a957600080fd5b506100b26103a7565b6040516100bf9190610b4b565b60405180910390f35b3480156100d457600080fd5b506100ef60048036038101906100ea91906109b1565b6103ad565b6040516101029796959493929190610ac7565b60405180910390f35b34801561011757600080fd5b50610120610718565b60405161012d9190610c24565b60405180910390f35b34801561014257600080fd5b5061014b6107d9565b6040516101589190610b4b565b60405180910390f35b61017b600480360381019061017691906109b1565b6107e6565b005b6001818154811061018d57600080fd5b90600052602060002090600702016000915090508060000154908060010180546101b690610c75565b80601f01602080910402602001604051908101604052809291908181526020018280546101e290610c75565b801561022f5780601f106102045761010080835404028352916020019161022f565b820191906000526020600020905b81548152906001019060200180831161021257829003601f168201915b50505050509080600201805461024490610c75565b80601f016020809104026020016040519081016040528092919081815260200182805461027090610c75565b80156102bd5780601f10610292576101008083540402835291602001916102bd565b820191906000526020600020905b8154815290600101906020018083116102a057829003601f168201915b5050505050908060030180546102d290610c75565b80601f01602080910402602001604051908101604052809291908181526020018280546102fe90610c75565b801561034b5780601f106103205761010080835404028352916020019161034b565b820191906000526020600020905b81548152906001019060200180831161032e57829003601f168201915b5050505050908060040154908060050160009054906101000a900473ffffffffffffffffffffffffffffffffffffffff16908060060160009054906101000a900473ffffffffffffffffffffffffffffffffffffffff16905087565b60005481565b60006060806060600080600080600090505b60018054905081101561070b5788600182815481106103e1576103e0610ca7565b5b90600052602060002090600702016000015414156106f8576001818154811061040d5761040c610ca7565b5b9060005260206000209060070201600001546001828154811061043357610432610ca7565b5b90600052602060002090600702016001016001838154811061045857610457610ca7565b5b90600052602060002090600702016002016001848154811061047d5761047c610ca7565b5b9060005260206000209060070201600301600185815481106104a2576104a1610ca7565b5b906000526020600020906007020160040154600186815481106104c8576104c7610ca7565b5b906000526020600020906007020160050160009054906101000a900473ffffffffffffffffffffffffffffffffffffffff166001878154811061050e5761050d610ca7565b5b906000526020600020906007020160060160009054906101000a900473ffffffffffffffffffffffffffffffffffffffff1685805461054c90610c75565b80601f016020809104026020016040519081016040528092919081815260200182805461057890610c75565b80156105c55780601f1061059a576101008083540402835291602001916105c5565b820191906000526020600020905b8154815290600101906020018083116105a857829003601f168201915b505050505095508480546105d890610c75565b80601f016020809104026020016040519081016040528092919081815260200182805461060490610c75565b80156106515780601f1061062657610100808354040283529160200191610651565b820191906000526020600020905b81548152906001019060200180831161063457829003601f168201915b5050505050945083805461066490610c75565b80601f016020809104026020016040519081016040528092919081815260200182805461069090610c75565b80156106dd5780601f106106b2576101008083540402835291602001916106dd565b820191906000526020600020905b8154815290600101906020018083116106c057829003601f168201915b5050505050935097509750975097509750975097505061070d565b808061070390610d05565b9150506103bf565b505b919395979092949650565b60608060005b6001805490508110156107d1576001818154811061073f5761073e610ca7565b5b906000526020600020906007020160060160009054906101000a900473ffffffffffffffffffffffffffffffffffffffff1682828151811061078457610783610ca7565b5b602002602001019073ffffffffffffffffffffffffffffffffffffffff16908173ffffffffffffffffffffffffffffffffffffffff168152505080806107c990610d05565b91505061071e565b508091505090565b6000600180549050905090565b34670de0b6b3a76400006001838154811061080457610803610ca7565b5b9060005260206000209060070201600401546108209190610d4e565b111561082b57600080fd5b6001818154811061083f5761083e610ca7565b5b906000526020600020906007020160050160009054906101000a900473ffffffffffffffffffffffffffffffffffffffff1673ffffffffffffffffffffffffffffffffffffffff166108fc349081150290604051600060405180830381858888f193505050501580156108b6573d6000803e3d6000fd5b5060005b6001805490508110156109715781600182815481106108dc576108db610ca7565b5b906000526020600020906007020160000154141561095e57336001828154811061090957610908610ca7565b5b906000526020600020906007020160060160006101000a81548173ffffffffffffffffffffffffffffffffffffffff021916908373ffffffffffffffffffffffffffffffffffffffff16021790555050610973565b808061096990610d05565b9150506108ba565b505b50565b600080fd5b6000819050919050565b61098e8161097b565b811461099957600080fd5b50565b6000813590506109ab81610985565b92915050565b6000602082840312156109c7576109c6610976565b5b60006109d58482850161099c565b91505092915050565b6109e78161097b565b82525050565b600081519050919050565b600082825260208201905092915050565b60005b83811015610a27578082015181840152602081019050610a0c565b83811115610a36576000848401525b50505050565b6000601f19601f8301169050919050565b6000610a58826109ed565b610a6281856109f8565b9350610a72818560208601610a09565b610a7b81610a3c565b840191505092915050565b600073ffffffffffffffffffffffffffffffffffffffff82169050919050565b6000610ab182610a86565b9050919050565b610ac181610aa6565b82525050565b600060e082019050610adc600083018a6109de565b8181036020830152610aee8189610a4d565b90508181036040830152610b028188610a4d565b90508181036060830152610b168187610a4d565b9050610b2560808301866109de565b610b3260a0830185610ab8565b610b3f60c0830184610ab8565b98975050505050505050565b6000602082019050610b6060008301846109de565b92915050565b600081519050919050565b600082825260208201905092915050565b6000819050602082019050919050565b610b9b81610aa6565b82525050565b6000610bad8383610b92565b60208301905092915050565b6000602082019050919050565b6000610bd182610b66565b610bdb8185610b71565b9350610be683610b82565b8060005b83811015610c17578151610bfe8882610ba1565b9750610c0983610bb9565b925050600181019050610bea565b5085935050505092915050565b60006020820190508181036000830152610c3e8184610bc6565b905092915050565b7f4e487b7100000000000000000000000000000000000000000000000000000000600052602260045260246000fd5b60006002820490506001821680610c8d57607f821691505b60208210811415610ca157610ca0610c46565b5b50919050565b7f4e487b7100000000000000000000000000000000000000000000000000000000600052603260045260246000fd5b7f4e487b7100000000000000000000000000000000000000000000000000000000600052601160045260246000fd5b6000610d108261097b565b91507fffffffffffffffffffffffffffffffffffffffffffffffffffffffffffffffff821415610d4357610d42610cd6565b5b600182019050919050565b6000610d598261097b565b9150610d648361097b565b9250817fffffffffffffffffffffffffffffffffffffffffffffffffffffffffffffffff0483118215151615610d9d57610d9c610cd6565b5b82820290509291505056fea2646970667358221220e955ac5f584cd4c6bff6342dd6dabf64e1aa1dd52d6bf9c90a2074feba8c638864736f6c634300080a0033",
  "immutableReferences": {},
  "source": "// SPDX-License-Identifier: MIF\r\npragma solidity 0.8.10;\r\n\r\ncontract Adoption {\r\n\r\n  struct Item{\r\n    uint id;\r\n    string name;\r\n    string picture;\r\n    string switches;\r\n    uint price;\r\n    address uploader;\r\n    address owner;\r\n  }\r\nuint public keyboardId = 0;\r\nItem[] public keyboards;\r\n\r\nconstructor(){\r\n  add(\"ID80\",\"ID80.png\",\"BOBA U4T\", 2);\r\n  add(\"The Classic\",\"Classic.png\", \"Cherry MX Brown\", 3);\r\n  add(\"Candy Bar\",\"CandyBar.png\", \"BOBA Gum\", 4);\r\n  add(\"Halo\",\"\",\"Gateron Yellow\", 5);\r\n}\r\n\r\nfunction add(string memory name, string memory picture, string memory switches, uint price) private{\r\n  if(keccak256(bytes(picture)) == keccak256(bytes(\"\"))){\r\n    keyboards.push(Item(keyboardId, name, \"images/notUploaded.png\", switches, price, msg.sender, address(0)));\r\n  }else{\r\n    string memory fullString = string(abi.encodePacked(\"images/\", picture));\r\n    keyboards.push(Item(keyboardId, name, fullString, switches, price, msg.sender, address(0)));\r\n  }\r\n  keyboardId++;\r\n}\r\n\r\nfunction get(uint id) public view returns (uint thisKeyboardId, string memory name, string memory picture, string memory switches, uint price, address uploader, address owner){\r\n    for(uint i = 0; i < keyboards.length; i++){\r\n      if(keyboards[i].id == id){\r\n        return (keyboards[i].id, keyboards[i].name, keyboards[i].picture, keyboards[i].switches, keyboards[i].price, keyboards[i].uploader, keyboards[i].owner);\r\n      }\r\n    }\r\n  }\r\n\r\n// Buying a keyboard\r\nfunction buy(uint id) public payable{\r\n  require(keyboards[id].price * 1 ether <= msg.value);\r\n\r\n  payable(keyboards[id].uploader).transfer(msg.value);\r\n  for(uint i = 0; i < keyboards.length; i++){\r\n      if (keyboards[i].id == id) {\r\n        keyboards[i].owner = msg.sender;\r\n        return;\r\n      }\r\n}\r\n}\r\n\r\nfunction getOwners() public view returns(address[] memory){\r\n  address[] memory arrayOfOwners;\r\n\r\n  for(uint i = 0; i < keyboards.length; i++){\r\n    arrayOfOwners[i] = keyboards[i].owner;\r\n  } \r\n  return(arrayOfOwners);\r\n}\r\n\r\nfunction getKeyboardsAmount() public view returns (uint256 length){\r\n  return keyboards.length;\r\n}\r\n\r\n}",
  "sourcePath": "C:\\Users\\matol\\OneDrive\\Documents\\GitHub\\KeyboardShop\\contracts\\Adoption.sol",
  "compiler": {
    "name": "solc",
    "version": "0.8.10+commit.fc410830.Emscripten.clang"
  },
  "schemaVersion": "3.4.3",
  "updatedAt": "2021-12-16T14:44:50.486Z",
  "networkType": "ethereum",
  "devdoc": {
    "kind": "dev",
    "methods": {},
    "version": 1
  },
  "userdoc": {
    "kind": "user",
    "methods": {},
    "version": 1
  }
}