{
  "contractName": "KbCrud",
  "abi": [
    {
      "inputs": [],
      "stateMutability": "nonpayable",
      "type": "constructor"
    },
    {
      "anonymous": false,
      "inputs": [
        {
          "indexed": false,
          "internalType": "uint256",
          "name": "id",
          "type": "uint256"
        }
      ],
      "name": "KeyboardDelete",
      "type": "event"
    },
    {
      "anonymous": false,
      "inputs": [
        {
          "indexed": false,
          "internalType": "uint256",
          "name": "id",
          "type": "uint256"
        },
        {
          "indexed": false,
          "internalType": "string",
          "name": "name",
          "type": "string"
        },
        {
          "indexed": false,
          "internalType": "string",
          "name": "picture",
          "type": "string"
        },
        {
          "indexed": false,
          "internalType": "string",
          "name": "keycaps",
          "type": "string"
        },
        {
          "indexed": false,
          "internalType": "string",
          "name": "ffactor",
          "type": "string"
        },
        {
          "indexed": false,
          "internalType": "string",
          "name": "switches",
          "type": "string"
        }
      ],
      "name": "NewKeyboard",
      "type": "event"
    },
    {
      "anonymous": false,
      "inputs": [
        {
          "indexed": false,
          "internalType": "uint256",
          "name": "id",
          "type": "uint256"
        },
        {
          "indexed": false,
          "internalType": "string",
          "name": "name",
          "type": "string"
        },
        {
          "indexed": false,
          "internalType": "string",
          "name": "picture",
          "type": "string"
        },
        {
          "indexed": false,
          "internalType": "string",
          "name": "keycaps",
          "type": "string"
        },
        {
          "indexed": false,
          "internalType": "string",
          "name": "ffactor",
          "type": "string"
        },
        {
          "indexed": false,
          "internalType": "string",
          "name": "switches",
          "type": "string"
        }
      ],
      "name": "SpecsUpdated",
      "type": "event"
    },
    {
      "inputs": [],
      "name": "highestId",
      "outputs": [
        {
          "internalType": "uint256",
          "name": "",
          "type": "uint256"
        }
      ],
      "stateMutability": "view",
      "type": "function"
    },
    {
      "inputs": [
        {
          "internalType": "uint256",
          "name": "",
          "type": "uint256"
        }
      ],
      "name": "keyboards",
      "outputs": [
        {
          "internalType": "uint256",
          "name": "id",
          "type": "uint256"
        },
        {
          "internalType": "string",
          "name": "name",
          "type": "string"
        },
        {
          "internalType": "string",
          "name": "picture",
          "type": "string"
        },
        {
          "internalType": "string",
          "name": "keycaps",
          "type": "string"
        },
        {
          "internalType": "string",
          "name": "ffactor",
          "type": "string"
        },
        {
          "internalType": "string",
          "name": "switches",
          "type": "string"
        }
      ],
      "stateMutability": "view",
      "type": "function"
    },
    {
      "inputs": [],
      "name": "totalKeyboards",
      "outputs": [
        {
          "internalType": "uint256",
          "name": "",
          "type": "uint256"
        }
      ],
      "stateMutability": "view",
      "type": "function"
    },
    {
      "inputs": [
        {
          "internalType": "string",
          "name": "name",
          "type": "string"
        },
        {
          "internalType": "string",
          "name": "picture",
          "type": "string"
        },
        {
          "internalType": "string",
          "name": "keycaps",
          "type": "string"
        },
        {
          "internalType": "string",
          "name": "ffactor",
          "type": "string"
        },
        {
          "internalType": "string",
          "name": "switches",
          "type": "string"
        }
      ],
      "name": "insert",
      "outputs": [
        {
          "internalType": "uint256",
          "name": "",
          "type": "uint256"
        }
      ],
      "stateMutability": "nonpayable",
      "type": "function"
    },
    {
      "inputs": [
        {
          "internalType": "uint256",
          "name": "idCheck",
          "type": "uint256"
        },
        {
          "internalType": "string",
          "name": "newName",
          "type": "string"
        },
        {
          "internalType": "string",
          "name": "newPicture",
          "type": "string"
        },
        {
          "internalType": "string",
          "name": "newKeycaps",
          "type": "string"
        },
        {
          "internalType": "string",
          "name": "newFfactor",
          "type": "string"
        },
        {
          "internalType": "string",
          "name": "newSwitches",
          "type": "string"
        }
      ],
      "name": "update",
      "outputs": [
        {
          "internalType": "bool",
          "name": "",
          "type": "bool"
        }
      ],
      "stateMutability": "nonpayable",
      "type": "function"
    },
    {
      "inputs": [
        {
          "internalType": "uint256",
          "name": "idCheck",
          "type": "uint256"
        }
      ],
      "name": "deleteKeyboard",
      "outputs": [
        {
          "internalType": "bool",
          "name": "",
          "type": "bool"
        }
      ],
      "stateMutability": "nonpayable",
      "type": "function"
    },
    {
      "inputs": [
        {
          "internalType": "uint256",
          "name": "idCheck",
          "type": "uint256"
        }
      ],
      "name": "getKeyboard",
      "outputs": [
        {
          "internalType": "string",
          "name": "name",
          "type": "string"
        },
        {
          "internalType": "string",
          "name": "picture",
          "type": "string"
        },
        {
          "internalType": "string",
          "name": "keycaps",
          "type": "string"
        },
        {
          "internalType": "string",
          "name": "ffactor",
          "type": "string"
        },
        {
          "internalType": "string",
          "name": "switches",
          "type": "string"
        }
      ],
      "stateMutability": "view",
      "type": "function"
    },
    {
      "inputs": [],
      "name": "getTotalKeyboards",
      "outputs": [
        {
          "internalType": "uint256",
          "name": "length",
          "type": "uint256"
        }
      ],
      "stateMutability": "view",
      "type": "function"
    }
  ],
  "bytecode": "0x608060405234801561001057600080fd5b50600060018190555060006002819055506117bd806100306000396000f3fe608060405234801561001057600080fd5b50600436106100885760003560e01c8063d23fbf9c1161005b578063d23fbf9c14610144578063e54d891114610174578063f46d0be414610192578063fbb340c7146101c257610088565b8063020420171461008d578063551a64b0146100c157806356227777146100df5780635a282a6914610114575b600080fd5b6100a760048036038101906100a29190611040565b6101e0565b6040516100b8959493929190611106565b60405180910390f35b6100c96105ff565b6040516100d6919061118b565b60405180910390f35b6100f960048036038101906100f49190611040565b610605565b60405161010b969594939291906111a6565b60405180910390f35b61012e6004803603810190610129919061135f565b6108f9565b60405161013b9190611493565b60405180910390f35b61015e600480360381019061015991906114ae565b610aba565b60405161016b919061118b565b60405180910390f35b61017c610c39565b604051610189919061118b565b60405180910390f35b6101ac60048036038101906101a79190611040565b610c45565b6040516101b99190611493565b60405180910390f35b6101ca610e80565b6040516101d7919061118b565b60405180910390f35b606080606080606060005b6001548110156105ba57866000828154811061020a576102096115b5565b5b90600052602060002090600602016000015414156105a75760008181548110610236576102356115b5565b5b90600052602060002090600602016001016000828154811061025b5761025a6115b5565b5b9060005260206000209060060201600201600083815481106102805761027f6115b5565b5b9060005260206000209060060201600301600084815481106102a5576102a46115b5565b5b9060005260206000209060060201600401600085815481106102ca576102c96115b5565b5b90600052602060002090600602016005018480546102e790611613565b80601f016020809104026020016040519081016040528092919081815260200182805461031390611613565b80156103605780601f1061033557610100808354040283529160200191610360565b820191906000526020600020905b81548152906001019060200180831161034357829003601f168201915b5050505050945083805461037390611613565b80601f016020809104026020016040519081016040528092919081815260200182805461039f90611613565b80156103ec5780601f106103c1576101008083540402835291602001916103ec565b820191906000526020600020905b8154815290600101906020018083116103cf57829003601f168201915b505050505093508280546103ff90611613565b80601f016020809104026020016040519081016040528092919081815260200182805461042b90611613565b80156104785780601f1061044d57610100808354040283529160200191610478565b820191906000526020600020905b81548152906001019060200180831161045b57829003601f168201915b5050505050925081805461048b90611613565b80601f01602080910402602001604051908101604052809291908181526020018280546104b790611613565b80156105045780601f106104d957610100808354040283529160200191610504565b820191906000526020600020905b8154815290600101906020018083116104e757829003601f168201915b5050505050915080805461051790611613565b80601f016020809104026020016040519081016040528092919081815260200182805461054390611613565b80156105905780601f1061056557610100808354040283529160200191610590565b820191906000526020600020905b81548152906001019060200180831161057357829003601f168201915b5050505050905095509550955095509550506105f6565b80806105b290611674565b9150506101eb565b506040517f08c379a00000000000000000000000000000000000000000000000000000000081526004016105ed90611709565b60405180910390fd5b91939590929450565b60025481565b6000818154811061061557600080fd5b906000526020600020906006020160009150905080600001549080600101805461063e90611613565b80601f016020809104026020016040519081016040528092919081815260200182805461066a90611613565b80156106b75780601f1061068c576101008083540402835291602001916106b7565b820191906000526020600020905b81548152906001019060200180831161069a57829003601f168201915b5050505050908060020180546106cc90611613565b80601f01602080910402602001604051908101604052809291908181526020018280546106f890611613565b80156107455780601f1061071a57610100808354040283529160200191610745565b820191906000526020600020905b81548152906001019060200180831161072857829003601f168201915b50505050509080600301805461075a90611613565b80601f016020809104026020016040519081016040528092919081815260200182805461078690611613565b80156107d35780601f106107a8576101008083540402835291602001916107d3565b820191906000526020600020905b8154815290600101906020018083116107b657829003601f168201915b5050505050908060040180546107e890611613565b80601f016020809104026020016040519081016040528092919081815260200182805461081490611613565b80156108615780601f1061083657610100808354040283529160200191610861565b820191906000526020600020905b81548152906001019060200180831161084457829003601f168201915b50505050509080600501805461087690611613565b80601f01602080910402602001604051908101604052809291908181526020018280546108a290611613565b80156108ef5780601f106108c4576101008083540402835291602001916108ef565b820191906000526020600020905b8154815290600101906020018083116108d257829003601f168201915b5050505050905086565b60008060009050600154811015610aae57876000828154811061091f5761091e6115b5565b5b9060005260206000209060060201600001541415610aa457866000828154811061094c5761094b6115b5565b5b90600052602060002090600602016001019080519060200190610970929190610e86565b508560008281548110610986576109856115b5565b5b906000526020600020906006020160020190805190602001906109aa929190610e86565b5084600082815481106109c0576109bf6115b5565b5b906000526020600020906006020160030190805190602001906109e4929190610e86565b5083600082815481106109fa576109f96115b5565b5b90600052602060002090600602016004019080519060200190610a1e929190610e86565b508260008281548110610a3457610a336115b5565b5b90600052602060002090600602016005019080519060200190610a58929190610e86565b507fc5823d00324ea68fbb3b41d0dec05aaa9729c924078f189010a499be5fff0e06888888888888604051610a92969594939291906111a6565b60405180910390a16001915050610ab0565b6000915050610ab0565b505b9695505050505050565b6000806040518060c0016040528060025481526020018881526020018781526020018681526020018581526020018481525090506000819080600181540180825580915050600190039060005260206000209060060201600090919091909150600082015181600001556020820151816001019080519060200190610b40929190610e86565b506040820151816002019080519060200190610b5d929190610e86565b506060820151816003019080519060200190610b7a929190610e86565b506080820151816004019080519060200190610b97929190610e86565b5060a0820151816005019080519060200190610bb4929190610e86565b50505060016000815480929190610bca90611674565b91905055507fe18b1ce8b1359308ec3a35549bb1b9f258cfe0d1390baa0db30cd5eaa23087536002548888888888604051610c0a969594939291906111a6565b60405180910390a160026000815480929190610c2590611674565b919050555060015491505095945050505050565b60008080549050905090565b60008060015411610c5557600080fd5b6000600154811015610e79578260008281548110610c7657610c756115b5565b5b9060005260206000209060060201600001541415610e6f57600060018054610c9e9190611729565b81548110610caf57610cae6115b5565b5b906000526020600020906006020160008281548110610cd157610cd06115b5565b5b9060005260206000209060060201600082015481600001556001820181600101908054610cfd90611613565b610d08929190610f0c565b506002820181600201908054610d1d90611613565b610d28929190610f0c565b506003820181600301908054610d3d90611613565b610d48929190610f0c565b506004820181600401908054610d5d90611613565b610d68929190610f0c565b506005820181600501908054610d7d90611613565b610d88929190610f0c565b50905050600060018054610d9c9190611729565b81548110610dad57610dac6115b5565b5b9060005260206000209060060201600080820160009055600182016000610dd49190610f99565b600282016000610de49190610f99565b600382016000610df49190610f99565b600482016000610e049190610f99565b600582016000610e149190610f99565b505060016000815480929190610e299061175d565b91905055507f0ff8e45adb37721ed6ac00994665cd048aeb0e3ca9b28ff146d9f975993abc3f83604051610e5d919061118b565b60405180910390a16001915050610e7b565b6000915050610e7b565b505b919050565b60015481565b828054610e9290611613565b90600052602060002090601f016020900481019282610eb45760008555610efb565b82601f10610ecd57805160ff1916838001178555610efb565b82800160010185558215610efb579182015b82811115610efa578251825591602001919060010190610edf565b5b509050610f089190610fd9565b5090565b828054610f1890611613565b90600052602060002090601f016020900481019282610f3a5760008555610f88565b82601f10610f4b5780548555610f88565b82800160010185558215610f8857600052602060002091601f016020900482015b82811115610f87578254825591600101919060010190610f6c565b5b509050610f959190610fd9565b5090565b508054610fa590611613565b6000825580601f10610fb75750610fd6565b601f016020900490600052602060002090810190610fd59190610fd9565b5b50565b5b80821115610ff2576000816000905550600101610fda565b5090565b6000604051905090565b600080fd5b600080fd5b6000819050919050565b61101d8161100a565b811461102857600080fd5b50565b60008135905061103a81611014565b92915050565b60006020828403121561105657611055611000565b5b60006110648482850161102b565b91505092915050565b600081519050919050565b600082825260208201905092915050565b60005b838110156110a757808201518184015260208101905061108c565b838111156110b6576000848401525b50505050565b6000601f19601f8301169050919050565b60006110d88261106d565b6110e28185611078565b93506110f2818560208601611089565b6110fb816110bc565b840191505092915050565b600060a082019050818103600083015261112081886110cd565b9050818103602083015261113481876110cd565b9050818103604083015261114881866110cd565b9050818103606083015261115c81856110cd565b9050818103608083015261117081846110cd565b90509695505050505050565b6111858161100a565b82525050565b60006020820190506111a0600083018461117c565b92915050565b600060c0820190506111bb600083018961117c565b81810360208301526111cd81886110cd565b905081810360408301526111e181876110cd565b905081810360608301526111f581866110cd565b9050818103608083015261120981856110cd565b905081810360a083015261121d81846110cd565b9050979650505050505050565b600080fd5b600080fd5b7f4e487b7100000000000000000000000000000000000000000000000000000000600052604160045260246000fd5b61126c826110bc565b810181811067ffffffffffffffff8211171561128b5761128a611234565b5b80604052505050565b600061129e610ff6565b90506112aa8282611263565b919050565b600067ffffffffffffffff8211156112ca576112c9611234565b5b6112d3826110bc565b9050602081019050919050565b82818337600083830152505050565b60006113026112fd846112af565b611294565b90508281526020810184848401111561131e5761131d61122f565b5b6113298482856112e0565b509392505050565b600082601f8301126113465761134561122a565b5b81356113568482602086016112ef565b91505092915050565b60008060008060008060c0878903121561137c5761137b611000565b5b600061138a89828a0161102b565b965050602087013567ffffffffffffffff8111156113ab576113aa611005565b5b6113b789828a01611331565b955050604087013567ffffffffffffffff8111156113d8576113d7611005565b5b6113e489828a01611331565b945050606087013567ffffffffffffffff81111561140557611404611005565b5b61141189828a01611331565b935050608087013567ffffffffffffffff81111561143257611431611005565b5b61143e89828a01611331565b92505060a087013567ffffffffffffffff81111561145f5761145e611005565b5b61146b89828a01611331565b9150509295509295509295565b60008115159050919050565b61148d81611478565b82525050565b60006020820190506114a86000830184611484565b92915050565b600080600080600060a086880312156114ca576114c9611000565b5b600086013567ffffffffffffffff8111156114e8576114e7611005565b5b6114f488828901611331565b955050602086013567ffffffffffffffff81111561151557611514611005565b5b61152188828901611331565b945050604086013567ffffffffffffffff81111561154257611541611005565b5b61154e88828901611331565b935050606086013567ffffffffffffffff81111561156f5761156e611005565b5b61157b88828901611331565b925050608086013567ffffffffffffffff81111561159c5761159b611005565b5b6115a888828901611331565b9150509295509295909350565b7f4e487b7100000000000000000000000000000000000000000000000000000000600052603260045260246000fd5b7f4e487b7100000000000000000000000000000000000000000000000000000000600052602260045260246000fd5b6000600282049050600182168061162b57607f821691505b6020821081141561163f5761163e6115e4565b5b50919050565b7f4e487b7100000000000000000000000000000000000000000000000000000000600052601160045260246000fd5b600061167f8261100a565b91507fffffffffffffffffffffffffffffffffffffffffffffffffffffffffffffffff8214156116b2576116b1611645565b5b600182019050919050565b7f6b6579626f617264206e6f7420666f756e640000000000000000000000000000600082015250565b60006116f3601283611078565b91506116fe826116bd565b602082019050919050565b60006020820190508181036000830152611722816116e6565b9050919050565b60006117348261100a565b915061173f8361100a565b92508282101561175257611751611645565b5b828203905092915050565b60006117688261100a565b9150600082141561177c5761177b611645565b5b60018203905091905056fea2646970667358221220f8e8609d12c8f273c3ec57ecc9f4fea99d1f5c5efa178fdeb304a8be5472431464736f6c634300080a0033",
  "immutableReferences": {},
  "source": "// SPDX-License-Identifier: MIF\r\npragma solidity 0.8.10;\r\n\r\ncontract KbCrud{\r\n\r\nstruct keyboard{\r\n    uint id;\r\n    string name;\r\n    string picture;\r\n    string keycaps;\r\n    string ffactor;\r\n    string switches;\r\n}\r\n\r\nkeyboard[] public keyboards;\r\nuint public totalKeyboards;\r\nuint public highestId;\r\n\r\nconstructor(){\r\n    totalKeyboards = 0;\r\n    highestId = 0;\r\n}\r\n\r\nevent NewKeyboard(uint id, string name, string picture, string keycaps, string ffactor, string switches);\r\n\r\nevent SpecsUpdated(uint id, string name, string picture, string keycaps, string ffactor, string switches);\r\n\r\nevent KeyboardDelete(uint id);\r\n\r\nfunction insert(string memory name, string memory picture, string memory keycaps, string memory ffactor, string memory switches) public returns (uint){\r\n    keyboard memory newKeyboard = keyboard(highestId, name, picture, keycaps, ffactor, switches);\r\n    keyboards.push(newKeyboard);\r\n    totalKeyboards++;\r\n    //emit event\r\n    emit NewKeyboard(highestId, name, picture, keycaps, ffactor, switches);\r\n    highestId++;\r\n\r\n    return totalKeyboards;\r\n}\r\n\r\nfunction update(uint idCheck, string memory newName, string memory newPicture, string memory newKeycaps, string memory newFfactor, string memory newSwitches) public returns (bool){\r\n    for(uint i = 0; i < totalKeyboards; i++){\r\n        if(keyboards[i].id == idCheck){\r\n            keyboards[i].name = newName;\r\n            keyboards[i].picture = newPicture;\r\n            keyboards[i].keycaps = newKeycaps;\r\n            keyboards[i].ffactor = newFfactor;\r\n            keyboards[i].switches = newSwitches;\r\n            emit SpecsUpdated(idCheck, newName, newPicture, newKeycaps, newFfactor, newSwitches);\r\n            return true;//succsess\r\n        }\r\n        return false;//fail\r\n    }\r\n}\r\nfunction deleteKeyboard(uint idCheck) public returns (bool){\r\n    require(totalKeyboards > 0);\r\n    for (uint i = 0; i < totalKeyboards; i++){\r\n        if(keyboards[i].id == idCheck){\r\n            keyboards[i] = keyboards[totalKeyboards-1]; //pushing last keyboard into current array and deleting it\r\n            delete keyboards[totalKeyboards-1];\r\n            totalKeyboards--;\r\n            emit KeyboardDelete(idCheck);\r\n            return true;\r\n        }\r\n        return false;//fail\r\n    }\r\n}\r\nfunction getKeyboard(uint idCheck) public view returns(string memory name, string memory picture, string memory keycaps, string  memory ffactor, string memory switches){\r\n    for (uint i = 0; i < totalKeyboards; i++){\r\n        if(keyboards[i].id == idCheck){\r\n            return (keyboards[i].name, keyboards[i].picture, keyboards[i].keycaps, keyboards[i].ffactor, keyboards[i].switches);\r\n        }\r\n    }\r\n    revert('keyboard not found');\r\n}\r\n\r\nfunction getTotalKeyboards() public view returns (uint length){\r\n    return keyboards.length;\r\n}\r\n\r\n}",
  "sourcePath": "C:\\Users\\matol\\OneDrive\\Documents\\GitHub\\KeyboardShop\\contracts\\KbCrud.sol",
  "compiler": {
    "name": "solc",
    "version": "0.8.10+commit.fc410830.Emscripten.clang"
  },
  "schemaVersion": "3.4.3",
  "updatedAt": "2021-12-14T20:50:25.322Z",
  "devdoc": {
    "kind": "dev",
    "methods": {},
    "version": 1
  },
  "userdoc": {
    "kind": "user",
    "methods": {},
    "version": 1
  }
}