{
  "contractName": "KbCrud",
  "abi": [
    {
      "inputs": [],
      "stateMutability": "nonpayable",
      "type": "constructor"
    },
    {
      "anonymous": false,
      "inputs": [
        {
          "indexed": false,
          "internalType": "string",
          "name": "name",
          "type": "string"
        }
      ],
      "name": "KeyboardBuy",
      "type": "event"
    },
    {
      "anonymous": false,
      "inputs": [
        {
          "indexed": false,
          "internalType": "string",
          "name": "name",
          "type": "string"
        }
      ],
      "name": "KeyboardDelete",
      "type": "event"
    },
    {
      "anonymous": false,
      "inputs": [
        {
          "indexed": false,
          "internalType": "string",
          "name": "name",
          "type": "string"
        },
        {
          "indexed": false,
          "internalType": "string",
          "name": "picture",
          "type": "string"
        },
        {
          "indexed": false,
          "internalType": "string",
          "name": "keycaps",
          "type": "string"
        },
        {
          "indexed": false,
          "internalType": "string",
          "name": "ffactor",
          "type": "string"
        },
        {
          "indexed": false,
          "internalType": "string",
          "name": "switches",
          "type": "string"
        }
      ],
      "name": "NewKeyboard",
      "type": "event"
    },
    {
      "anonymous": false,
      "inputs": [
        {
          "indexed": false,
          "internalType": "string",
          "name": "name",
          "type": "string"
        },
        {
          "indexed": false,
          "internalType": "string",
          "name": "picture",
          "type": "string"
        },
        {
          "indexed": false,
          "internalType": "string",
          "name": "keycaps",
          "type": "string"
        },
        {
          "indexed": false,
          "internalType": "string",
          "name": "ffactor",
          "type": "string"
        },
        {
          "indexed": false,
          "internalType": "string",
          "name": "switches",
          "type": "string"
        }
      ],
      "name": "SpecsUpdated",
      "type": "event"
    },
    {
      "inputs": [],
      "name": "itemId",
      "outputs": [
        {
          "internalType": "uint256",
          "name": "",
          "type": "uint256"
        }
      ],
      "stateMutability": "view",
      "type": "function"
    },
    {
      "inputs": [
        {
          "internalType": "uint256",
          "name": "",
          "type": "uint256"
        }
      ],
      "name": "keyboardArray",
      "outputs": [
        {
          "internalType": "uint256",
          "name": "",
          "type": "uint256"
        }
      ],
      "stateMutability": "view",
      "type": "function"
    },
    {
      "inputs": [
        {
          "internalType": "uint256",
          "name": "",
          "type": "uint256"
        }
      ],
      "name": "keyboards",
      "outputs": [
        {
          "internalType": "string",
          "name": "name",
          "type": "string"
        },
        {
          "internalType": "string",
          "name": "picture",
          "type": "string"
        },
        {
          "internalType": "string",
          "name": "keycaps",
          "type": "string"
        },
        {
          "internalType": "string",
          "name": "ffactor",
          "type": "string"
        },
        {
          "internalType": "string",
          "name": "switches",
          "type": "string"
        }
      ],
      "stateMutability": "view",
      "type": "function"
    },
    {
      "inputs": [
        {
          "internalType": "uint256",
          "name": "",
          "type": "uint256"
        }
      ],
      "name": "owners",
      "outputs": [
        {
          "internalType": "address",
          "name": "",
          "type": "address"
        }
      ],
      "stateMutability": "view",
      "type": "function"
    },
    {
      "inputs": [
        {
          "internalType": "string",
          "name": "name",
          "type": "string"
        },
        {
          "internalType": "string",
          "name": "picture",
          "type": "string"
        },
        {
          "internalType": "string",
          "name": "keycaps",
          "type": "string"
        },
        {
          "internalType": "string",
          "name": "ffactor",
          "type": "string"
        },
        {
          "internalType": "string",
          "name": "switches",
          "type": "string"
        }
      ],
      "name": "insert",
      "outputs": [],
      "stateMutability": "nonpayable",
      "type": "function"
    },
    {
      "inputs": [
        {
          "internalType": "uint256",
          "name": "id",
          "type": "uint256"
        },
        {
          "internalType": "string",
          "name": "newName",
          "type": "string"
        },
        {
          "internalType": "string",
          "name": "newPicture",
          "type": "string"
        },
        {
          "internalType": "string",
          "name": "newKeycaps",
          "type": "string"
        },
        {
          "internalType": "string",
          "name": "newFfactor",
          "type": "string"
        },
        {
          "internalType": "string",
          "name": "newSwitches",
          "type": "string"
        }
      ],
      "name": "update",
      "outputs": [],
      "stateMutability": "nonpayable",
      "type": "function"
    },
    {
      "inputs": [
        {
          "internalType": "uint256",
          "name": "id",
          "type": "uint256"
        }
      ],
      "name": "getKeyboard",
      "outputs": [
        {
          "internalType": "string",
          "name": "name",
          "type": "string"
        },
        {
          "internalType": "string",
          "name": "picture",
          "type": "string"
        },
        {
          "internalType": "string",
          "name": "keycaps",
          "type": "string"
        },
        {
          "internalType": "string",
          "name": "ffactor",
          "type": "string"
        },
        {
          "internalType": "string",
          "name": "switches",
          "type": "string"
        }
      ],
      "stateMutability": "view",
      "type": "function"
    },
    {
      "inputs": [
        {
          "internalType": "uint256",
          "name": "_itemId",
          "type": "uint256"
        }
      ],
      "name": "getName",
      "outputs": [
        {
          "internalType": "string",
          "name": "",
          "type": "string"
        }
      ],
      "stateMutability": "view",
      "type": "function"
    },
    {
      "inputs": [
        {
          "internalType": "uint256",
          "name": "_itemId",
          "type": "uint256"
        }
      ],
      "name": "getPicture",
      "outputs": [
        {
          "internalType": "string",
          "name": "",
          "type": "string"
        }
      ],
      "stateMutability": "view",
      "type": "function"
    },
    {
      "inputs": [
        {
          "internalType": "uint256",
          "name": "_itemId",
          "type": "uint256"
        }
      ],
      "name": "getKeycaps",
      "outputs": [
        {
          "internalType": "string",
          "name": "",
          "type": "string"
        }
      ],
      "stateMutability": "view",
      "type": "function"
    },
    {
      "inputs": [
        {
          "internalType": "uint256",
          "name": "_itemId",
          "type": "uint256"
        }
      ],
      "name": "getFfactor",
      "outputs": [
        {
          "internalType": "string",
          "name": "",
          "type": "string"
        }
      ],
      "stateMutability": "view",
      "type": "function"
    },
    {
      "inputs": [
        {
          "internalType": "uint256",
          "name": "_itemId",
          "type": "uint256"
        }
      ],
      "name": "getSwitches",
      "outputs": [
        {
          "internalType": "string",
          "name": "",
          "type": "string"
        }
      ],
      "stateMutability": "view",
      "type": "function"
    },
    {
      "inputs": [
        {
          "internalType": "uint256",
          "name": "_itemId",
          "type": "uint256"
        }
      ],
      "name": "buyKeyboard",
      "outputs": [
        {
          "internalType": "uint256",
          "name": "",
          "type": "uint256"
        }
      ],
      "stateMutability": "nonpayable",
      "type": "function"
    },
    {
      "inputs": [
        {
          "internalType": "uint256",
          "name": "_itemId",
          "type": "uint256"
        },
        {
          "internalType": "address",
          "name": "person_wallet",
          "type": "address"
        }
      ],
      "name": "checkOwner",
      "outputs": [
        {
          "internalType": "bool",
          "name": "",
          "type": "bool"
        }
      ],
      "stateMutability": "view",
      "type": "function"
    },
    {
      "inputs": [],
      "name": "getKeyboardCount",
      "outputs": [
        {
          "internalType": "uint256",
          "name": "",
          "type": "uint256"
        }
      ],
      "stateMutability": "pure",
      "type": "function"
    },
    {
      "inputs": [],
      "name": "getOwners",
      "outputs": [
        {
          "internalType": "address[4]",
          "name": "",
          "type": "address[4]"
        }
      ],
      "stateMutability": "view",
      "type": "function"
    }
  ],
  "bytecode": "0x6080604052600080553480156200001557600080fd5b50620001346040518060400160405280600481526020017f49443830000000000000000000000000000000000000000000000000000000008152506040518060400160405280600f81526020017f696d616765732f494438302e706e6700000000000000000000000000000000008152506040518060400160405280600581526020017f6c617365720000000000000000000000000000000000000000000000000000008152506040518060400160405280600381526020017f37352500000000000000000000000000000000000000000000000000000000008152506040518060400160405280600881526020017f424f4241205534740000000000000000000000000000000000000000000000008152506200049460201b60201c565b620002526040518060400160405280600b81526020017f54686520436c61737369630000000000000000000000000000000000000000008152506040518060400160405280601281526020017f696d616765732f436c61737369632e706e6700000000000000000000000000008152506040518060400160405280600981526020017f426f74616e6963616c00000000000000000000000000000000000000000000008152506040518060400160405280600381526020017f36352500000000000000000000000000000000000000000000000000000000008152506040518060400160405280600f81526020017f436865727279204d582042726f776e00000000000000000000000000000000008152506200049460201b60201c565b620003706040518060400160405280600981526020017f43616e64792042617200000000000000000000000000000000000000000000008152506040518060400160405280601381526020017f696d616765732f43616e64794261722e706e67000000000000000000000000008152506040518060400160405280600981526020017f56696c65426c6f6f6d00000000000000000000000000000000000000000000008152506040518060400160405280600381526020017f35302500000000000000000000000000000000000000000000000000000000008152506040518060400160405280600881526020017f424f42412047756d0000000000000000000000000000000000000000000000008152506200049460201b60201c565b6200048e6040518060400160405280600381526020017f42617200000000000000000000000000000000000000000000000000000000008152506040518060400160405280601381526020017f696d616765732f43616e64794261722e706e67000000000000000000000000008152506040518060400160405280600481526020017f56696c65000000000000000000000000000000000000000000000000000000008152506040518060400160405280600381526020017f35352500000000000000000000000000000000000000000000000000000000008152506040518060400160405280600881526020017f424f4241206d616e0000000000000000000000000000000000000000000000008152506200049460201b60201c565b620008e2565b6040518060a001604052808681526020018581526020018481526020018381526020018281525060056000805481526020019081526020016000206000820151816000019080519060200190620004ed92919062000622565b5060208201518160010190805190602001906200050c92919062000622565b5060408201518160020190805190602001906200052b92919062000622565b5060608201518160030190805190602001906200054a92919062000622565b5060808201518160040190805190602001906200056992919062000622565b509050506000600660008054815260200190815260200160002060006101000a81548173ffffffffffffffffffffffffffffffffffffffff021916908373ffffffffffffffffffffffffffffffffffffffff160217905550600080815480929190620005d5906200070b565b91905055507fb19a6f17c1f3539cb269765d5312b9c7fbaf159ce2d33268ff9f8b318d3d8dae858585858560405162000613959493929190620007fd565b60405180910390a15050505050565b8280546200063090620008ac565b90600052602060002090601f016020900481019282620006545760008555620006a0565b82601f106200066f57805160ff1916838001178555620006a0565b82800160010185558215620006a0579182015b828111156200069f57825182559160200191906001019062000682565b5b509050620006af9190620006b3565b5090565b5b80821115620006ce576000816000905550600101620006b4565b5090565b7f4e487b7100000000000000000000000000000000000000000000000000000000600052601160045260246000fd5b6000819050919050565b6000620007188262000701565b91507fffffffffffffffffffffffffffffffffffffffffffffffffffffffffffffffff8214156200074e576200074d620006d2565b5b600182019050919050565b600081519050919050565b600082825260208201905092915050565b60005b838110156200079557808201518184015260208101905062000778565b83811115620007a5576000848401525b50505050565b6000601f19601f8301169050919050565b6000620007c98262000759565b620007d5818562000764565b9350620007e781856020860162000775565b620007f281620007ab565b840191505092915050565b600060a0820190508181036000830152620008198188620007bc565b905081810360208301526200082f8187620007bc565b90508181036040830152620008458186620007bc565b905081810360608301526200085b8185620007bc565b90508181036080830152620008718184620007bc565b90509695505050505050565b7f4e487b7100000000000000000000000000000000000000000000000000000000600052602260045260246000fd5b60006002820490506001821680620008c557607f821691505b60208210811415620008dc57620008db6200087d565b5b50919050565b611f5080620008f26000396000f3fe608060405234801561001057600080fd5b50600436106101005760003560e01c80639afc053a11610097578063ca6158cb11610066578063ca6158cb14610315578063d23fbf9c14610333578063e242a8091461034f578063f022e8551461037f57610100565b80639afc053a14610267578063a0e67e2b14610297578063b75c74ee146102b5578063be8dbea6146102e557610100565b80632e06dd1b116100d35780632e06dd1b146101b757806356227777146101e75780635a282a691461021b5780636b8ff5741461023757610100565b80630204201714610105578063025e7c271461013957806305c8489c146101695780630d24aa0914610199575b600080fd5b61011f600480360381019061011a9190611576565b6103af565b60405161013095949392919061163c565b60405180910390f35b610153600480360381019061014e9190611576565b610744565b60405161016091906116f3565b60405180910390f35b610183600480360381019061017e9190611576565b610777565b604051610190919061170e565b60405180910390f35b6101a161086f565b6040516101ae919061173f565b60405180910390f35b6101d160048036038101906101cc9190611576565b610878565b6040516101de919061170e565b60405180910390f35b61020160048036038101906101fc9190611576565b610970565b60405161021295949392919061163c565b60405180910390f35b6102356004803603810190610230919061188f565b610c4e565b005b610251600480360381019061024c9190611576565b610d6c565b60405161025e919061170e565b60405180910390f35b610281600480360381019061027c9190611576565b610e64565b60405161028e919061170e565b60405180910390f35b61029f610f5c565b6040516102ac9190611a53565b60405180910390f35b6102cf60048036038101906102ca9190611576565b611011565b6040516102dc919061173f565b60405180910390f35b6102ff60048036038101906102fa9190611a9a565b611151565b60405161030c9190611af5565b60405180910390f35b61031d6111ce565b60405161032a919061173f565b60405180910390f35b61034d60048036038101906103489190611b10565b6111d4565b005b61036960048036038101906103649190611576565b611354565b604051610376919061170e565b60405180910390f35b61039960048036038101906103949190611576565b61144c565b6040516103a6919061173f565b60405180910390f35b6060806060806060600086101580156103c85750600486105b610407576040517f08c379a00000000000000000000000000000000000000000000000000000000081526004016103fe90611c63565b60405180910390fd5b600560008781526020019081526020016000206000016005600088815260200190815260200160002060010160056000898152602001908152602001600020600201600560008a8152602001908152602001600020600301600560008b815260200190815260200160002060040184805461048190611cb2565b80601f01602080910402602001604051908101604052809291908181526020018280546104ad90611cb2565b80156104fa5780601f106104cf576101008083540402835291602001916104fa565b820191906000526020600020905b8154815290600101906020018083116104dd57829003601f168201915b5050505050945083805461050d90611cb2565b80601f016020809104026020016040519081016040528092919081815260200182805461053990611cb2565b80156105865780601f1061055b57610100808354040283529160200191610586565b820191906000526020600020905b81548152906001019060200180831161056957829003601f168201915b5050505050935082805461059990611cb2565b80601f01602080910402602001604051908101604052809291908181526020018280546105c590611cb2565b80156106125780601f106105e757610100808354040283529160200191610612565b820191906000526020600020905b8154815290600101906020018083116105f557829003601f168201915b5050505050925081805461062590611cb2565b80601f016020809104026020016040519081016040528092919081815260200182805461065190611cb2565b801561069e5780601f106106735761010080835404028352916020019161069e565b820191906000526020600020905b81548152906001019060200180831161068157829003601f168201915b505050505091508080546106b190611cb2565b80601f01602080910402602001604051908101604052809291908181526020018280546106dd90611cb2565b801561072a5780601f106106ff5761010080835404028352916020019161072a565b820191906000526020600020905b81548152906001019060200180831161070d57829003601f168201915b505050505090509450945094509450945091939590929450565b60066020528060005260406000206000915054906101000a900473ffffffffffffffffffffffffffffffffffffffff1681565b60606000821015801561078a5750600482105b6107c9576040517f08c379a00000000000000000000000000000000000000000000000000000000081526004016107c090611c63565b60405180910390fd5b6005600083815260200190815260200160002060010180546107ea90611cb2565b80601f016020809104026020016040519081016040528092919081815260200182805461081690611cb2565b80156108635780601f1061083857610100808354040283529160200191610863565b820191906000526020600020905b81548152906001019060200180831161084657829003601f168201915b50505050509050919050565b60006004905090565b60606000821015801561088b5750600482105b6108ca576040517f08c379a00000000000000000000000000000000000000000000000000000000081526004016108c190611c63565b60405180910390fd5b6005600083815260200190815260200160002060040180546108eb90611cb2565b80601f016020809104026020016040519081016040528092919081815260200182805461091790611cb2565b80156109645780601f1061093957610100808354040283529160200191610964565b820191906000526020600020905b81548152906001019060200180831161094757829003601f168201915b50505050509050919050565b600560205280600052604060002060009150905080600001805461099390611cb2565b80601f01602080910402602001604051908101604052809291908181526020018280546109bf90611cb2565b8015610a0c5780601f106109e157610100808354040283529160200191610a0c565b820191906000526020600020905b8154815290600101906020018083116109ef57829003601f168201915b505050505090806001018054610a2190611cb2565b80601f0160208091040260200160405190810160405280929190818152602001828054610a4d90611cb2565b8015610a9a5780601f10610a6f57610100808354040283529160200191610a9a565b820191906000526020600020905b815481529060010190602001808311610a7d57829003601f168201915b505050505090806002018054610aaf90611cb2565b80601f0160208091040260200160405190810160405280929190818152602001828054610adb90611cb2565b8015610b285780601f10610afd57610100808354040283529160200191610b28565b820191906000526020600020905b815481529060010190602001808311610b0b57829003601f168201915b505050505090806003018054610b3d90611cb2565b80601f0160208091040260200160405190810160405280929190818152602001828054610b6990611cb2565b8015610bb65780601f10610b8b57610100808354040283529160200191610bb6565b820191906000526020600020905b815481529060010190602001808311610b9957829003601f168201915b505050505090806004018054610bcb90611cb2565b80601f0160208091040260200160405190810160405280929190818152602001828054610bf790611cb2565b8015610c445780601f10610c1957610100808354040283529160200191610c44565b820191906000526020600020905b815481529060010190602001808311610c2757829003601f168201915b5050505050905085565b84600560008881526020019081526020016000206000019080519060200190610c78929190611467565b5083600560008881526020019081526020016000206001019080519060200190610ca3929190611467565b5082600560008881526020019081526020016000206002019080519060200190610cce929190611467565b5081600560008881526020019081526020016000206003019080519060200190610cf9929190611467565b5080600560008881526020019081526020016000206004019080519060200190610d24929190611467565b507fcb3512955f36b7f83fb76167f7f7ce07ffa0afc73601b8b5feffa26b74b74ec28585858585604051610d5c95949392919061163c565b60405180910390a1505050505050565b606060008210158015610d7f5750600482105b610dbe576040517f08c379a0000000000000000000000000000000000000000000000000000000008152600401610db590611c63565b60405180910390fd5b600560008381526020019081526020016000206000018054610ddf90611cb2565b80601f0160208091040260200160405190810160405280929190818152602001828054610e0b90611cb2565b8015610e585780601f10610e2d57610100808354040283529160200191610e58565b820191906000526020600020905b815481529060010190602001808311610e3b57829003601f168201915b50505050509050919050565b606060008210158015610e775750600482105b610eb6576040517f08c379a0000000000000000000000000000000000000000000000000000000008152600401610ead90611c63565b60405180910390fd5b600560008381526020019081526020016000206003018054610ed790611cb2565b80601f0160208091040260200160405190810160405280929190818152602001828054610f0390611cb2565b8015610f505780601f10610f2557610100808354040283529160200191610f50565b820191906000526020600020905b815481529060010190602001808311610f3357829003601f168201915b50505050509050919050565b610f646114ed565b610f6c6114ed565b60005b6004811015611009576006600082815260200190815260200160002060009054906101000a900473ffffffffffffffffffffffffffffffffffffffff16828260048110610fbf57610fbe611ce4565b5b602002019073ffffffffffffffffffffffffffffffffffffffff16908173ffffffffffffffffffffffffffffffffffffffff1681525050808061100190611d42565b915050610f6f565b508091505090565b60008082101580156110235750600482105b611062576040517f08c379a000000000000000000000000000000000000000000000000000000000815260040161105990611dd7565b60405180910390fd5b61106c8233611151565b6110ab576040517f08c379a00000000000000000000000000000000000000000000000000000000081526004016110a290611e43565b60405180910390fd5b336006600084815260200190815260200160002060006101000a81548173ffffffffffffffffffffffffffffffffffffffff021916908373ffffffffffffffffffffffffffffffffffffffff1602179055507f09b045d3273cb882cf0d22fa40ee2b655edaa37ef94698983a1ea823ac834226600560008481526020019081526020016000206000016040516111419190611ef8565b60405180910390a1819050919050565b60006006600084815260200190815260200160002060009054906101000a900473ffffffffffffffffffffffffffffffffffffffff1673ffffffffffffffffffffffffffffffffffffffff168273ffffffffffffffffffffffffffffffffffffffff1614156111c357600090506111c8565b600190505b92915050565b60005481565b6040518060a00160405280868152602001858152602001848152602001838152602001828152506005600080548152602001908152602001600020600082015181600001908051906020019061122b929190611467565b506020820151816001019080519060200190611248929190611467565b506040820151816002019080519060200190611265929190611467565b506060820151816003019080519060200190611282929190611467565b50608082015181600401908051906020019061129f929190611467565b509050506000600660008054815260200190815260200160002060006101000a81548173ffffffffffffffffffffffffffffffffffffffff021916908373ffffffffffffffffffffffffffffffffffffffff16021790555060008081548092919061130990611d42565b91905055507fb19a6f17c1f3539cb269765d5312b9c7fbaf159ce2d33268ff9f8b318d3d8dae858585858560405161134595949392919061163c565b60405180910390a15050505050565b6060600082101580156113675750600482105b6113a6576040517f08c379a000000000000000000000000000000000000000000000000000000000815260040161139d90611c63565b60405180910390fd5b6005600083815260200190815260200160002060020180546113c790611cb2565b80601f01602080910402602001604051908101604052809291908181526020018280546113f390611cb2565b80156114405780601f1061141557610100808354040283529160200191611440565b820191906000526020600020905b81548152906001019060200180831161142357829003601f168201915b50505050509050919050565b6001816004811061145c57600080fd5b016000915090505481565b82805461147390611cb2565b90600052602060002090601f01602090048101928261149557600085556114dc565b82601f106114ae57805160ff19168380011785556114dc565b828001600101855582156114dc579182015b828111156114db5782518255916020019190600101906114c0565b5b5090506114e9919061150f565b5090565b6040518060800160405280600490602082028036833780820191505090505090565b5b80821115611528576000816000905550600101611510565b5090565b6000604051905090565b600080fd5b600080fd5b6000819050919050565b61155381611540565b811461155e57600080fd5b50565b6000813590506115708161154a565b92915050565b60006020828403121561158c5761158b611536565b5b600061159a84828501611561565b91505092915050565b600081519050919050565b600082825260208201905092915050565b60005b838110156115dd5780820151818401526020810190506115c2565b838111156115ec576000848401525b50505050565b6000601f19601f8301169050919050565b600061160e826115a3565b61161881856115ae565b93506116288185602086016115bf565b611631816115f2565b840191505092915050565b600060a08201905081810360008301526116568188611603565b9050818103602083015261166a8187611603565b9050818103604083015261167e8186611603565b905081810360608301526116928185611603565b905081810360808301526116a68184611603565b90509695505050505050565b600073ffffffffffffffffffffffffffffffffffffffff82169050919050565b60006116dd826116b2565b9050919050565b6116ed816116d2565b82525050565b600060208201905061170860008301846116e4565b92915050565b600060208201905081810360008301526117288184611603565b905092915050565b61173981611540565b82525050565b60006020820190506117546000830184611730565b92915050565b600080fd5b600080fd5b7f4e487b7100000000000000000000000000000000000000000000000000000000600052604160045260246000fd5b61179c826115f2565b810181811067ffffffffffffffff821117156117bb576117ba611764565b5b80604052505050565b60006117ce61152c565b90506117da8282611793565b919050565b600067ffffffffffffffff8211156117fa576117f9611764565b5b611803826115f2565b9050602081019050919050565b82818337600083830152505050565b600061183261182d846117df565b6117c4565b90508281526020810184848401111561184e5761184d61175f565b5b611859848285611810565b509392505050565b600082601f8301126118765761187561175a565b5b813561188684826020860161181f565b91505092915050565b60008060008060008060c087890312156118ac576118ab611536565b5b60006118ba89828a01611561565b965050602087013567ffffffffffffffff8111156118db576118da61153b565b5b6118e789828a01611861565b955050604087013567ffffffffffffffff8111156119085761190761153b565b5b61191489828a01611861565b945050606087013567ffffffffffffffff8111156119355761193461153b565b5b61194189828a01611861565b935050608087013567ffffffffffffffff8111156119625761196161153b565b5b61196e89828a01611861565b92505060a087013567ffffffffffffffff81111561198f5761198e61153b565b5b61199b89828a01611861565b9150509295509295509295565b600060049050919050565b600081905092915050565b6000819050919050565b6119d1816116d2565b82525050565b60006119e383836119c8565b60208301905092915050565b6000602082019050919050565b611a05816119a8565b611a0f81846119b3565b9250611a1a826119be565b8060005b83811015611a4b578151611a3287826119d7565b9650611a3d836119ef565b925050600181019050611a1e565b505050505050565b6000608082019050611a6860008301846119fc565b92915050565b611a77816116d2565b8114611a8257600080fd5b50565b600081359050611a9481611a6e565b92915050565b60008060408385031215611ab157611ab0611536565b5b6000611abf85828601611561565b9250506020611ad085828601611a85565b9150509250929050565b60008115159050919050565b611aef81611ada565b82525050565b6000602082019050611b0a6000830184611ae6565b92915050565b600080600080600060a08688031215611b2c57611b2b611536565b5b600086013567ffffffffffffffff811115611b4a57611b4961153b565b5b611b5688828901611861565b955050602086013567ffffffffffffffff811115611b7757611b7661153b565b5b611b8388828901611861565b945050604086013567ffffffffffffffff811115611ba457611ba361153b565b5b611bb088828901611861565b935050606086013567ffffffffffffffff811115611bd157611bd061153b565b5b611bdd88828901611861565b925050608086013567ffffffffffffffff811115611bfe57611bfd61153b565b5b611c0a88828901611861565b9150509295509295909350565b7f4974656d20646f6573206e6f7420657869737400000000000000000000000000600082015250565b6000611c4d6013836115ae565b9150611c5882611c17565b602082019050919050565b60006020820190508181036000830152611c7c81611c40565b9050919050565b7f4e487b7100000000000000000000000000000000000000000000000000000000600052602260045260246000fd5b60006002820490506001821680611cca57607f821691505b60208210811415611cde57611cdd611c83565b5b50919050565b7f4e487b7100000000000000000000000000000000000000000000000000000000600052603260045260246000fd5b7f4e487b7100000000000000000000000000000000000000000000000000000000600052601160045260246000fd5b6000611d4d82611540565b91507fffffffffffffffffffffffffffffffffffffffffffffffffffffffffffffffff821415611d8057611d7f611d13565b5b600182019050919050565b7f627579696e67206e6f6e2d6578697374616e74206974656d0000000000000000600082015250565b6000611dc16018836115ae565b9150611dcc82611d8b565b602082019050919050565b60006020820190508181036000830152611df081611db4565b9050919050565b7f547279696e6720746f2062757920616c7265616479206f776e6564206974656d600082015250565b6000611e2d6020836115ae565b9150611e3882611df7565b602082019050919050565b60006020820190508181036000830152611e5c81611e20565b9050919050565b60008190508160005260206000209050919050565b60008154611e8581611cb2565b611e8f81866115ae565b94506001821660008114611eaa5760018114611ebc57611eef565b60ff1983168652602086019350611eef565b611ec585611e63565b60005b83811015611ee757815481890152600182019150602081019050611ec8565b808801955050505b50505092915050565b60006020820190508181036000830152611f128184611e78565b90509291505056fea26469706673582212202182888f247199100d80361f1e698e6ff9a9f42c2c3c01b9d0f0195cfb66223f64736f6c634300080a0033",
  "immutableReferences": {},
  "source": "// SPDX-License-Identifier: MIF\r\npragma solidity 0.8.10;\r\n\r\ncontract KbCrud{\r\n\r\nstruct keyboard{\r\n    string name;\r\n    string picture;\r\n    string keycaps;\r\n    string ffactor;\r\n    string switches;\r\n}\r\nuint constant totalKeyboards = 4;\r\nuint public itemId = 0;\r\n\r\nuint[totalKeyboards] public keyboardArray;\r\n\r\n//hash tables for keyboards and ownership\r\nmapping(uint => keyboard) public keyboards;\r\nmapping(uint => address) public owners;\r\n\r\nconstructor(){\r\n    insert(\"ID80\", \"images/ID80.png\", \"laser\", \"75%\", \"BOBA U4t\");\r\n    insert(\"The Classic\", \"images/Classic.png\", \"Botanical\", \"65%\", \"Cherry MX Brown\");\r\n    insert(\"Candy Bar\", \"images/CandyBar.png\", \"VileBloom\", \"50%\", \"BOBA Gum\");\r\n    insert(\"Bar\", \"images/CandyBar.png\", \"Vile\", \"55%\", \"BOBA man\");\r\n}\r\n\r\nevent NewKeyboard(string name, string picture, string keycaps, string ffactor, string switches);\r\n\r\nevent SpecsUpdated(string name, string picture, string keycaps, string ffactor, string switches);\r\n\r\nevent KeyboardDelete(string name);\r\n\r\nevent KeyboardBuy(string name);\r\n\r\nfunction insert(string memory name, string memory picture, string memory keycaps, string memory ffactor, string memory switches) public {\r\n    keyboards[itemId] = keyboard(name, picture, keycaps, ffactor, switches);\r\n    owners[itemId] = address(0);\r\n    itemId++;\r\n    //emit event\r\n    emit NewKeyboard(name, picture, keycaps, ffactor, switches);\r\n}\r\n\r\nfunction update(uint id, string memory newName, string memory newPicture, string memory newKeycaps, string memory newFfactor, string memory newSwitches) public{\r\n            keyboards[id].name = newName;\r\n            keyboards[id].picture = newPicture;\r\n            keyboards[id].keycaps = newKeycaps;\r\n            keyboards[id].ffactor = newFfactor;\r\n            keyboards[id].switches = newSwitches;\r\n            emit SpecsUpdated(newName, newPicture, newKeycaps, newFfactor, newSwitches);\r\n}\r\nfunction getKeyboard(uint id) public view returns(string memory name, string memory picture, string memory keycaps, string  memory ffactor, string memory switches){\r\n    require(id >= 0 && id < totalKeyboards, \"Item does not exist\");\r\n    return (keyboards[id].name, keyboards[id].picture, keyboards[id].keycaps, keyboards[id].ffactor, keyboards[id].switches);\r\n}\r\n\r\n    function getName (uint _itemId) public view returns (string memory) {\r\n\t\trequire(_itemId >= 0 && _itemId < totalKeyboards, \"Item does not exist\");\r\n\r\n\t\treturn keyboards[_itemId].name;\r\n\t}\r\n    function getPicture (uint _itemId) public view returns (string memory) {\r\n\t\trequire(_itemId >= 0 && _itemId < totalKeyboards, \"Item does not exist\");\r\n\r\n\t\treturn keyboards[_itemId].picture;\r\n\t}\r\n    function getKeycaps (uint _itemId) public view returns (string memory) {\r\n\t\trequire(_itemId >= 0 && _itemId < totalKeyboards, \"Item does not exist\");\r\n\r\n\t\treturn keyboards[_itemId].keycaps;\r\n\t}\r\n    function getFfactor (uint _itemId) public view returns (string memory) {\r\n\t\trequire(_itemId >= 0 && _itemId < totalKeyboards, \"Item does not exist\");\r\n\t\treturn keyboards[_itemId].ffactor;\r\n\t}\r\n    function getSwitches (uint _itemId) public view returns (string memory) {\r\n\t\trequire(_itemId >= 0 && _itemId < totalKeyboards, \"Item does not exist\");\r\n\r\n\t\treturn keyboards[_itemId].switches;\r\n\t}\r\n\r\nfunction buyKeyboard(uint _itemId) public returns (uint){\r\n    require(_itemId >= 0 && _itemId < totalKeyboards, \"buying non-existant item\");\r\n    require(checkOwner(_itemId, msg.sender), \"Trying to buy already owned item\");\r\n    owners[_itemId] = msg.sender;\r\n\r\n    emit KeyboardBuy(keyboards[_itemId].name);\r\n\r\n    return _itemId;\r\n}\r\n\r\nfunction checkOwner (uint _itemId, address person_wallet) public view returns (bool) {\r\n\t\tif (person_wallet == owners[_itemId]) {\r\n\t\t\treturn false;\r\n\t\t} else {\r\n\t\t\treturn true;\r\n\t\t}\r\n\t}\r\n\r\nfunction getKeyboardCount () public pure returns (uint) {\r\n\t\treturn totalKeyboards;\r\n\t}\r\n\r\nfunction getOwners() public view returns (address[totalKeyboards] memory) {\r\n\t\taddress[totalKeyboards] memory arrayOfOwners;\r\n\r\n\t\tfor (uint i=0;i < totalKeyboards; i++) {\r\n\t\t\tarrayOfOwners[i] = owners[i];\r\n\t\t}\r\n\r\n\t\treturn arrayOfOwners;\r\n\r\n\t}\r\n\r\n}",
  "sourcePath": "C:\\Users\\matol\\OneDrive\\Documents\\GitHub\\KeyboardShop\\contracts\\KbCrud.sol",
  "compiler": {
    "name": "solc",
    "version": "0.8.10+commit.fc410830.Emscripten.clang"
  },
  "schemaVersion": "3.4.3",
  "updatedAt": "2021-12-15T16:18:59.089Z",
  "devdoc": {
    "kind": "dev",
    "methods": {},
    "version": 1
  },
  "userdoc": {
    "kind": "user",
    "methods": {},
    "version": 1
  }
}